:040000000DEF00F010
:0400080008EF38F0D5
:06001800FF0084EF45F03B
:10260000002289000000008C930086900022950033
:102610000A9500000000000000000000000000001B
:1026200000000000000000000000000000000000AA
:102630000000000000000000000000000086940080
:102640006294003E940000000074686574613A2052
:10265000256420736574506F696E743A2564206533
:102660006E636F6465723A202564206572726F72C2
:102670003A2025302E3266206C6579436F6E747275
:102680006F6C3A20252E32662070776D3A20252E09
:1026900032660A0D004572726F7220616C206C65A3
:1026A000657220656C20736574706F696E742E0A94
:1026B00000526563696269646F3A2025730A00619C
:1026C000646356616C75653A2025750A00286E753D
:1026D0006C6C2900696E66006E616E00256875007D
:0126E00000F9
:1026E2000501C16B99C5C2F59AC5C3F59BC5C4F571
:1026F2009CC5C5F5C5BF82EF13F080EF13F096EFCE
:1027020013F0010EC16FC2C56AF5C3C56BF5C4C52E
:102712006CF5C5C56DF538EC49F06AC5C2F56BC5F7
:10272200C3F56CC5C4F56DC5C5F5000E0501C76FCF
:10273200000EC66FA9C6B5F5AAC6B6F5C151D8B482
:10274200A5EF13F0A7EF13F0BBEF13F0C151D8A41C
:10275200ADEF13F0AFEF13F0B5EF13F0000EA76F6C
:102762002B0EA66FB9EF13F0000EA76F2D0EA66FFA
:10277200A6C5C1F5C2C56AF5C3C56BF5C4C56CF57E
:10278200C5C56DF54EEC3FF005016A056B11D8A485
:10279200CDEF13F0CFEF13F0FFEF13F0C151D8B428
:1027A200D5EF13F0D7EF13F0E0EF13F0C1C510F738
:1027B200B507D8A0B607000EC76F010EC66F100E80
:1027C200C6256A6F070EC7216B6FD40E6C6FF8ECCB
:1027D20048F00501FD0EB527FF0EB62397C57DF51E
:1027E20098C57EF5100E7F6F070E806FB5C581F517
:1027F200B6C582F5ACEC46F0A2EF18F0C2C56AF598
:10280200C3C56BF5C4C56CF5C5C56DF54EEC3FF09F
:1028120005016A516B11D8A411EF14F013EF14F0F3
:1028220030EF14F0C151D8B419EF14F01BEF14F0CB
:1028320024EF14F0C1C510F7B507D8A0B607000EF3
:10284200C76F010EC66F100EC6256A6F070EC7212D
:102852006B6FD80E6C6FF8EC48F0EAEF13F0000ED5
:10286200C86F000EC96F800ECA6F3F0ECB6F000E8D
:10287200B06F000EAF6FC2C56AF5C3C56BF5C4C5B4
:102882006CF5C5C56DF5000E6E6F000E6F6F000E14
:10289200706F000E716FE6EC43F00501D8B054EF93
:1028A20014F056EF14F038EF15F062EF14F0B1C5E2
:1028B200C8F5B2C5C9F5B3C5CAF5B4C5CBF5AF4BBA
:1028C200B02BC8C56AF5C9C56BF5CAC56CF5CBC5D1
:1028D2006DF5000E6E6F000E6F6F200E706F410E61
:1028E200716FCFEC24F06AC5B1F56BC5B2F56CC55A
:1028F200B3F56DC5B4F50501B151C25D6A6FB25150
:10290200C3596B6FB351C4596C6FB451C5596D6FD4
:1029120076EC47F005016DBF9AEF14F06D516C1122
:102922006B1109E1020E6A5DD8A09AEF14F09CEFD8
:1029320014F058EF14F0B1C583F5B2C584F5B3C5F0
:1029420085F5B4C586F5C2C587F5C3C588F5C4C586
:1029520089F5C5C58AF5C6EC3DF00501D8A0B4EFEE
:1029620014F0B6EF14F058EF14F0C851C25D6A6F5C
:10297200C951C3596B6FCA51C4596C6FCB51C559F8
:102982006D6F76EC47F005016DBFD5EF14F06D5118
:102992006C116B1107E1020E6A5DD8B0D3EF14F02F
:1029A200D5EF14F01EEF15F0C8C5C2F5C9C5C3F5C1
:1029B200CAC5C4F5CBC5C5F538EF15F0C8C56AF56B
:1029C200C9C56BF5CAC56CF5CBC56DF5000E6E6F4A
:1029D200000E6F6F200E706F410E716FFCEC2AF0CB
:1029E2006AC5C8F56BC5C9F56CC5CAF56DC5CBF529
:1029F2000501AF07D8A0B007C851C25D6A6FC951BF
:102A0200C3596B6FCA51C4596C6FCB51C5596D6FA5
:102A120076EC47F005016DBF1CEF15F06D516C119E
:102A22006B1107E1020E6A5DD8B01AEF15F01CEFC8
:102A320015F01EEF15F0D5EF14F0C2C583F5C3C52E
:102A420084F5C4C585F5C5C586F5C8C587F5C9C56C
:102A520088F5CAC589F5CBC58AF5C6EC3DF00501F6
:102A6200D8A036EF15F038EF15F0DFEF14F09DC562
:102A7200A9F5A9C5AAF5ECBF41EF15F043EF15F092
:102A820049EF15F0EBC5A2F5ECC5A3F54DEF15F036
:102A9200000EA36F060EA26FA2C5ADF5A3C5AEF5DB
:102AA200AD4BAE2B660EAA19D8A45AEF15F05CEF07
:102AB20015F07CEF15F0B0BF63EF15F061EF15F084
:102AC2006FEF15F0000EC86F000EC96F800ECA6F4F
:102AD2003F0ECB6F000EB06F000EAF6F670EA919DD
:102AE200D8B476EF15F078EF15F07CEF15F0AF5112
:102AF200AD27B051AE23000EC06F000EBF6FC2C52E
:102B0200B7F5C3C5B8F5C4C5B9F5C5C5BAF5C8C5E5
:102B1200B1F5C9C5B2F5CAC5B3F5CBC5B4F50EEF6B
:102B220016F0B7C56AF5B8C56BF5B9C56CF5BAC587
:102B32006DF5C8C56EF5C9C56FF5CAC570F5CBC5CB
:102B420071F5FCEC2AF06AC583F56BC584F56CC59A
:102B520085F56DC586F576EC33F083C5BBF584C586
:102B6200BCF585C5BDF586C5BEF5BBC56AF5BCC558
:102B72006BF5BDC56CF5BEC56DF542EC3DF06AC5A1
:102B8200ABF56BC5ACF5B7C583F5B8C584F5B9C56A
:102B920085F5BAC586F5BBC56EF5BCC56FF5BDC575
:102BA20070F5BEC571F5C8C56AF5C9C56BF5CAC56C
:102BB2006CF5CBC56DF5CFEC24F06AC587F56BC516
:102BC20088F56CC589F56DC58AF56AEC48F083C550
:102BD200B7F584C5B8F585C5B9F586C5BAF5C8C5D2
:102BE2006AF5C9C56BF5CAC56CF5CBC56DF5000EA6
:102BF20005016E6F000E6F6F200E706F410E716FC8
:102C0200FCEC2AF06AC5C8F56BC5C9F56CC5CAF5F6
:102C12006DC5CBF50501BF4BC02BAD51BF5DC0519A
:102C2200800A9E6FAE51800A9E59D8A01BEF16F003
:102C32001DEF16F092EF15F0C8C56AF5C9C56BF520
:102C4200CAC56CF5CBC56DF5000E6E6F000E6F6FC9
:102C5200A00E706F400E716FCFEC24F06AC5BBF509
:102C62006BC5BCF56CC5BDF56DC5BEF5B7C583F5C5
:102C7200B8C584F5B9C585F5BAC586F5BBC587F56E
:102C8200BCC588F5BDC589F5BEC58AF5C6EC3DF063
:102C92000501D8B04FEF16F051EF16F05BEF16F0CA
:102CA200000EBB6F000EBC6F000EBD6F000EBE6F3C
:102CB20084EF16F0B7C56AF5B8C56BF5B9C56CF502
:102CC200BAC56DF5BBC56EF5BCC56FF5BDC570F572
:102CD200BEC571F5E6EC43F00501D8A073EF16F01E
:102CE20075EF16F084EF16F0ABB17AEF16F07CEFC9
:102CF20016F084EF16F0000EBB6F000EBC6F000ED4
:102D0200BD6F000EBE6FC2C56AF5C3C56BF5C4C503
:102D12006CF5C5C56DF5BBC56EF5BCC56FF5BDC51A
:102D220070F5BEC571F5BDEC1DF06AC5B7F56BC592
:102D3200B8F56CC5B9F56DC5BAF5B7C583F5B8C5B3
:102D420084F5B9C585F5BAC586F5000E05016E6F25
:102D5200000E6F6F200E706F410E716FB1C56AF574
:102D6200B2C56BF5B3C56CF5B4C56DF5CFEC24F007
:102D72006AC587F56BC588F56CC589F56DC58AF599
:102D8200C6EC3DF00501D8A0C9EF16F0CBEF16F066
:102D9200F3EF16F0AF4BB02BB1C56AF5B2C56BF5C8
:102DA200B3C56CF5B4C56DF5000E6E6F000E6F6F96
:102DB200200E706F410E716FCFEC24F06AC5B1F531
:102DC2006BC5B2F56CC5B3F56DC5B4F5660E0501FC
:102DD200AA19D8A4EFEF16F0F1EF16F0F3EF16F000
:102DE200AD4BAE2BB1C5C8F5B2C5C9F5B3C5CAF571
:102DF200B4C5CBF5AFC5A0F5B0C5A1F5A86B000E63
:102E0200A56F000EA46F000EC06F000EBF6FF0EF33
:102E120017F0B7C56AF5B8C56BF5B9C56CF5BAC593
:102E22006DF5C8C56EF5C9C56FF5CAC570F5CBC5D8
:102E320071F5FCEC2AF06AC583F56BC584F56CC5A7
:102E420085F56DC586F576EC33F083C5BBF584C593
:102E5200BCF585C5BDF586C5BEF5BBC56AF5BCC565
:102E62006BF5BDC56CF5BEC56DF542EC3DF00501D7
:102E72006BBF47EF17F06B5107E10A0E6A5DD8B0DE
:102E820045EF17F047EF17F057EF17F0BBC56AF59C
:102E9200BCC56BF5BDC56CF5BEC56DF542EC3DF02C
:102EA2006AC5ABF56BC5ACF55BEF17F0000EAC6F06
:102EB200090EAB6F0501A851D8A462EF17F064EFB9
:102EC20017F08CEF17F0A1BF6BEF17F069EF17F057
:102ED2008CEF17F0100EC625D96E070EC721DA6ED9
:102EE2002E0EDF6EC64BC72BB507D8A0B607010E54
:102EF200A86F8CEF17F0100EC625D96E070EC721EA
:102F0200DA6E300EDF6EC64BC72BB507D8A0B607F8
:102F1200A407D8A0A507A451A511D8A493EF17F030
:102F220095EF17F07CEF17F0100EC625D96E070E3D
:102F3200C721DA6EAB51300FDF6EC64BC72BB50718
:102F4200D8A0B607B7C583F5B8C584F5B9C585F568
:102F5200BAC586F5BBC56EF5BCC56FF5BDC570F5C6
:102F6200BEC571F5C8C56AF5C9C56BF5CAC56CF5AC
:102F7200CBC56DF5CFEC24F06AC587F56BC588F536
:102F82006CC589F56DC58AF56AEC48F083C5B7F55D
:102F920084C5B8F585C5B9F586C5BAF5C8C56AF55B
:102FA200C9C56BF5CAC56CF5CBC56DF5000E05013B
:102FB2006E6F000E6F6F200E706F410E716FFCEC22
:102FC2002AF06AC5C8F56BC5C9F56CC5CAF56DC5E9
:102FD200CBF50501A007D8A0A107BF4BC02BAD516F
:102FE200BF5DC051800A9E6FAE51800A9E59D8B013
:102FF200FDEF17F0FFEF17F00DEF18F0C7BF0BEF63
:1030020018F0C75109E14B0EC65DD8A00BEF18F0BE
:103012000DEF18F00AEF17F0000EC06F4F0EBF6FE2
:10302200100EBF25D96E070EC021DA6EDF6A100EB0
:103032009E6F070E9F6FC6519E5FC7519F5BBF5128
:103042009E256A6FC0519F216B6F100E6C6F070E29
:103052006D6FC6C56EF5C7C56FF5CBEC47F00501C0
:10306200C651BF5DC66FC751C059C76FC151D8A401
:103072003DEF18F040EF18F0010E41EF18F0000E8E
:10308200BF6FC06B0601BBA349EF18F04BEF18F0FE
:103092007AEF18F05BEF18F0C607D8A0C707100E3A
:1030A200C625D96E070EC721DA6E300EDF6EB50760
:1030B200D8A0B6070501B551BF5DC051800A9E6F09
:1030C200B651800A9E59D8B069EF18F06BEF18F02C
:1030D2007AEF18F0C651BF5DC051800A9E6FC7518A
:1030E200800A9E59D8A078EF18F07AEF18F04DEFC9
:1030F20018F00501C151D8B481EF18F083EF18F030
:103102008EEF18F0C607D8A0C707100EC625D96ED5
:10311200070EC721DA6EC1C5DFF4BF51B55FC051DA
:10312200B65B97C57DF598C57EF5100EC6257F6FF7
:10313200070EC721806FB5C581F5B6C582F5ACEC27
:1031420046F012000501A66B21EEA7F1070EDE6A1A
:10315200E806FDE282C5AFF583C5B0F587BFBDEFD6
:1031620018F0875107E1250E865DD8B0BBEF18F045
:10317200BDEF18F0C6EF18F086058711D8A4C4EF8A
:1031820018F0C6EF18F0CDEF18F0000E0601B26F7E
:10319200160EB16F30EF1BF0AF51B011D8B4D4EFAF
:1031A20018F0D6EF18F030EF1BF0AFC5D9F4B0C568
:1031B200DAF4DF50D8A4E0EF18F0E2EF18F0E4EF11
:1031C20018F030EF1BF0AFC5D9F4B0C5DAF4DF5018
:1031D200B16FF4EF18F0AF4BB02BAFC5D9F4B0C557
:1031E200DAF4DF50B16F200EB119D8B4FBEF18F04A
:1031F200FDEF18F0ECEF18F0B1C58AF5F70E8A274B
:10320200040E8A6507EF19F009EF19F0ECEF18F0D8
:103212002D0EB119D8A410EF19F012EF19F01DEF0D
:1032220019F0A681AF4BB02BAFC5D9F4B0C5DAF413
:10323200DF50B16F28EF19F02B0EB119D8A424EF8B
:1032420019F026EF19F028EF19F013EF19F0300EEC
:10325200B119D8A42FEF19F031EF19F0CAEF19F014
:10326200AF4BB02BAFC5D9F4B0C5DAF4DF50B16FB4
:1032720086518711D8B440EF19F042EF19F04CEFA4
:1032820019F0100E86198711D8A44AEF19F04CEFE5
:1032920019F0BCEF19F0780EB119D8B453EF19F048
:1032A20055EF19F05EEF19F0580EB119D8A45CEF82
:1032B20019F05EEF19F0BCEF19F0000E876F100ED7
:1032C200866FAF4BB02BAFC5D9F4B0C5DAF4DF507F
:1032D200B16FB1C58AF5200E8A139F0E8A271A0E86
:1032E2008A6176EF19F078EF19F09CEF19F0B1C509
:1032F2008AF59F0E8A27190E8A6582EF19F084EFEC
:1033020019F089EF19F0B1C59AF59B6B90EF19F09E
:10331200B1C58AF55F0E8A178A519A6F9B6B9AC55F
:103322008AF5C90E8A27100E8A619AEF19F09CEF6E
:1033320019F0B6EF19F0B1C58AF5200E8A139F0E67
:103342008A27190E8A65A8EF19F0AAEF19F0CAEFB9
:1033520019F0B1C58AF5D00E8A27090E8A65B4EF35
:1033620019F0B6EF19F0CAEF19F0A685AF07D8A089
:10337200B00730EF1BF0A68586518711D8A4C4EFA1
:1033820019F0C6EF19F0CAEF19F0000E876F080E98
:10339200866F86518711D8A4D1EF19F0D3EF19F0B7
:1033A200D7EF19F0000E876F0A0E866F8851D8B4D6
:1033B200DDEF19F0DFEF19F00AEF1AF0A6B1E4EF32
:1033C20019F0E6EF19F0F8EF19F0FF0E9E6FFF0EFD
:1033D2009F6FFF0EA06FFF0EA16FFF0EA26FFF0E79
:1033E200A36FFF0EA46F7F0EA56F12EF1AF0000EEF
:1033F2009E6F000E9F6F000EA06F000EA16F000E59
:10340200A26F000EA36F000EA46F800EA56F12EFC5
:103412001AF09E699F69A069A169A269A369A4695A
:10342200A569A7C592F5A8C593F5A9C594F5AAC53E
:1034320095F5ABC596F5ACC597F5ADC598F5AEC596
:1034420099F5B1C58AF5200E8A139F0E8A271A0EA6
:103452008A612EEF1AF030EF1AF04DEF1AF0B1C573
:103462008AF59F0E8A27190E8A653AEF1AF03CEF09
:103472001AF041EF1AF0B1C59CF59D6B48EF1AF0B6
:10348200B1C58AF55F0E8A178A519C6F9D6B9C515C
:10349200C90FB16F5BEF1AF0B1C58AF5D00E8A275A
:1034A2000A0E8A6157EF1AF059EF1AF016EF1BF065
:1034B200300EB15FB1518A6F8B6B86518A5D8B5131
:1034C200800A8C6F8751800A8C59D8A06BEF1AF052
:1034D2006DEF1AF06FEF1AF016EF1BF0A6B374EF50
:1034E2001AF076EF1AF00BEF1BF086C56AF587C566
:1034F2006BF5000E6BBFFF0E6C6F6D6F6E6F6F6FB3
:10350200706F716FA7C572F5A8C573F5A9C574F57B
:10351200AAC575F5ABC576F5ACC577F5ADC578F539
:10352200AEC579F534EC45F06AC58AF56BC58BF505
:103532006CC58CF56DC58DF56EC58EF56FC58FF5B5
:1035420070C590F571C591F50501B1518A25A76F36
:10355200000E8B21A86F000E8C21A96F000E8D2109
:10356200AA6F000E8E21AB6F000E8F21AC6F000E82
:103572009021AD6F000E9121AE6F9251A75D9351D4
:10358200A8599451A9599551AA599651AB59975195
:10359200AC599851AD599951AE59D8A0D3EF1AF000
:1035A200D5EF1AF0F4EF1AF08851D8B4DBEF1AF025
:1035B200DDEF1AF00BEF1BF0A7519E5DA8519F594A
:1035C200A951A059AA51A159AB51A259AC51A35921
:1035D200AD51A459AE51A559D8B0F2EF1AF0F4EF9B
:1035E2001AF00BEF1BF09EC5A7F59FC5A8F5A0C565
:1035F200A9F5A1C5AAF5A2C5ABF5A3C5ACF5A4C5AD
:10360200ADF5A5C5AEF5000E0601B26F220EB16F83
:103612000501A683AF4BB02BAFC5D9F4B0C5DAF420
:10362200DF50B16FA68512EF1AF0A651030BE80620
:10363200D8A41EEF1BF020EF1BF030EF1BF0AE1FE3
:10364200AD1FAC1FAB1FAA1FA91FA81FA76D000E9D
:10365200A823A923AA23AB23AC23AD23AE230501C0
:1036620084518511D8B438EF1BF03AEF1BF04DEFBF
:103672001BF0A6B53FEF1BF041EF1BF045EF1BF02F
:1036820082C5AFF583C5B0F584C5D9F485C5DAF432
:10369200AFC5DEF4B0C5DDF4A7C582F5A8C583F5D4
:1036A200A9C584F5AAC585F5ABC586F5ACC587F570
:1036B200ADC588F5AEC589F51200CEC5D9F4CFC522
:1036C200DAF4DFC4F6F4260EF76E000EF86E080088
:1036D200F550250AD8A470EF1BF072EF1BF0A5EF8E
:1036E2001DF0CEC5D9F4CFC5DAF4DF2A000E0601EB
:1036F200AA6F000EA96FA9C6BBF60501EB69EC69BA
:10370200D56BA3EF1BF00601BB83CEC5D9F4CFC5A1
:10371200DAF4DF2AA3EF1BF0010ED56FA3EF1BF043
:10372200CEC5D9F4CFC5DAF4DFC4F6F4260EF76EAF
:10373200000EF86E0800F550300AD8B484EF1BF082
:103742008DEF1BF00501D551D8B4AAEF1BF0ACEFF9
:103752001BF091EF1BF0CEC5D9F4CFC5DAF4DFC46C
:10376200F6F4260EF76E000EF86E0800F5502E0ADB
:10377200D8A4BEEF1BF0C0EF1BF0D3EF1BF0CEC5F9
:10378200D9F4CFC5DAF4DF2ACEC56AF5CFC56BF519
:10379200D0C56CF5D1C56DF56DEC42F06AC5EBF59F
:1037A2006BC5ECF5CEC5D9F4CFC5DAF4DF5005010F
:1037B200DA6FDAC5F6F4260EF76E000EF86E080020
:1037C200F550640AD8B4E8EF1BF0EAEF1BF0FAEF09
:1037D2001BF0DAC5F6F4260EF76E000EF86E08003E
:1037E200F550690AD8A4F8EF1BF0FAEF1BF020EFAE
:1037F2001CF0D0C5D9F4D1C5DAF4DFC4D2F5020E7B
:10380200DE26DFC4D3F5000EDD22D2C5D9F4D3C53E
:10381200DAF4DEC4D6F5DDC4D7F5DA29CEC5D9F49B
:10382200CFC5DAF4DF6ECCC586F5CDC587F5D6C532
:1038320088F5D7C589F582EC35F0BCEF1DF0DAC505
:10384200F6F4260EF76E000EF86E0800F550750AB3
:10385200D8A42EEF1CF030EF1CF066EF1CF0D0C5A0
:10386200D9F4D1C5DAF4DFC4D2F5020EDE26DFC404
:10387200D3F5000EDD22D2C5D9F4D3C5DAF4DEC405
:10388200D6F5DDC4D7F5DA29CEC5D9F4CFC5DAF439
:10389200DF6E58EF1CF0CCC586F5CDC587F5D6C5D1
:1038A20088F5D7C589F5EBEC39F0BCEF1DF0DAC528
:1038B200F6F4260EF76E000EF86E0800F550750A43
:1038C200D8B44CEF1CF066EF1CF0D56BCEC5D9F422
:1038D200CFC5DAF4DFC4F6F4260EF76E000EF86EEA
:1038E2000800F550730AD8A479EF1CF07BEF1CF0A6
:1038F20084EF1CF0CEC5D9F4CFC5DAF4DF2A010E6D
:10390200D56FD0EF1CF0CEC5D9F4CFC5DAF4DFC441
:10391200F6F4260EF76E000EF86E0800F5506C0AEB
:10392200D8A496EF1CF098EF1CF0D0EF1CF0CEC597
:10393200D9F4CFC5DAF4DF50D26F010ED227D2C547
:10394200F6F4260EF76E000EF86E0800F5506C0ABB
:10395200D8A4AEEF1CF0B0EF1CF0D0EF1CF0CEC537
:10396200D9F4CFC5DAF4DF50D26F020ED227D2C516
:10397200F6F4260EF76E000EF86E0800F550730A84
:10398200D8A4C6EF1CF0C8EF1CF0D0EF1CF0CEC5D7
:10399200D9F4CFC5DAF4030EDF2680EF1CF0D5513F
:1039A200D8B4D6EF1CF0D8EF1CF0F4EF1CF0CCC565
:1039B20076F5CDC577F5D0C5D9F4D1C5DAF4DFC433
:1039C200D2F5020EDE26DFC4D3F5000EDD22D2C50B
:1039D200D9F4D3C5DAF4DEC478F5DDC479F533EC75
:1039E2003CF0BCEF1DF0CEC5D9F4CFC5DAF4DF5000
:1039F200DA6FDAC5F6F4260EF76E000EF86E0800DE
:103A0200F5C4D4F50FEF1DF0DA2B1EEF1DF06C0E8E
:103A1200D46F1EEF1DF0D46B1EEF1DF0D4514C0A73
:103A2200D8B405EF1DF02A0AD8B408EF1DF00A0A2F
:103A3200D8B405EF1DF00CEF1DF0DAC5F6F4260E32
:103A4200F76E000EF86E0800F550660AD8A42CEF47
:103A52001DF02EEF1DF09EEF1DF064EF1DF0D0C59E
:103A6200D9F4D1C5DAF4DFC4D2F5040EDE26DFC400
:103A7200D3F5000EDD22D2C5D9F4D3C5DAF4DEC403
:103A8200D6F5DEC4D7F5DEC4D8F5DEC4D9F56FEFBE
:103A92001DF0D0C5D9F4D1C5DAF4DFC4D2F5040ED5
:103AA200DE26DFC4D3F5000EDD22D2C5D9F4D3C59C
:103AB200DAF4DEC4D6F5DEC4D7F5DEC4D8F5DEC44A
:103AC200D9F56FEF1DF0D4514C0AD8B44AEF1DF06E
:103AD200200AD8B430EF1DF06FEF1DF0DA29CEC501
:103AE200D9F4CFC5DAF4DF6E90EF1DF0CCC597F5AF
:103AF200CDC598F5D6C599F5D7C59AF5D8C59BF524
:103B0200D9C59CF5DAC5F6F4260EF76E000EF86EEE
:103B12000800F5C49DF571EC13F0BCEF1DF0DAC599
:103B2200F6F4260EF76E000EF86E0800F550660ADF
:103B3200D8B477EF1DF09EEF1DF0CEC5D9F4CFC5F6
:103B4200DAF4DF2ABCEF1DF0CEC5D9F4CFC5DAF422
:103B5200DFC4F6F4260EF76E000EF86E0800F5507C
:103B620005016D6F6E6BCCC56FF5CDC570F507ECB9
:103B720042F09EEF1DF0120005016D51800B766F31
:103B82006D516D25786F6CAFC9EF1DF0CBEF1DF055
:103B9200CCEF1DF078817851D8B4D2EF1DF0D4EF7C
:103BA2001DF0E8EF1DF07829D8A4DAEF1DF0DCEF64
:103BB2001DF0E4EF1DF0000E6A6F000E6B6F000E39
:103BC2006C6F000E6D6F6C8F6D6BF0EF1DF0000E61
:103BD2006A6F000E6B6F000E6C6F000E6D6F71518D
:103BE200800B776F76517719D8B4FAEF1DF0FCEF9E
:103BF2001DF0FDEF1DF0768D71517125776F70AF5D
:103C020005EF1EF007EF1EF008EF1EF077817751E7
:103C1200D8B40EEF1EF010EF1EF024EF1EF077293D
:103C2200D8A416EF1EF018EF1EF020EF1EF0000EC3
:103C32006E6F000E6F6F000E706F000E716F708FDF
:103C4200716B2CEF1EF0000E6E6F000E6F6F000E88
:103C5200706F000E716F7851775DD8B033EF1EF040
:103C620035EF1EF05CEF1EF076AD3AEF1EF03CEF42
:103C72001EF03EEF1EF0800E761B78C579F577C5F3
:103C820078F579C577F56AC579F56EC56AF579C5AE
:103C92006EF56BC579F56FC56BF579C56FF56CC5BA
:103CA20079F570C56CF579C570F56DC579F571C595
:103CB2006DF579C571F5796B785177C572F5736BCE
:103CC200725F000E735B73BF70EF1EF0735109E1F8
:103CD2001A0E725DD8A070EF1EF072EF1EF0A9EFFF
:103CE2001EF06A516B116C116D11D8A47BEF1EF09E
:103CF2007EEF1EF0010E7FEF1EF0000E796F000EB8
:103D02006A6F000E6B6F000E6C6F000E6D6F77C5E1
:103D120078F5B2EF1EF079A191EF1EF093EF1EF04D
:103D220099EF1EF0D89079310109796F9BEF1EF05F
:103D3200D89079336AA1A0EF1EF0A2EF1EF0A3EF94
:103D42001EF0798F6D356D336C336B336A33782B9C
:103D52007751785DD8A0B0EF1EF0B2EF1EF08CEF75
:103D62001EF076BDB7EF1EF0B9EF1EF0F9EF1EF0B0
:103D72007851D8A4BFEF1EF0C1EF1EF0CBEF1EF0BA
:103D8200000E6A6F000E6B6F000E6C6F000E6D6F8F
:103D920018EF20F06E516A276F516B2370516C231C
:103DA20071516D236DA1D8EF1EF0DAEF1EF086EF90
:103DB2001FF079A1DFEF1EF0E1EF1EF0E7EF1EF03A
:103DC200D89079310109796FE9EF1EF0D8907933F3
:103DD2006AA1EEEF1EF0F0EF1EF0F1EF1EF0798F08
:103DE2006D356D336C336B336A33782B86EF1FF08E
:103DF2006E516A5D6F516B5970516C596D51800AE9
:103E0200726F7151800A7259D8B00AEF1FF00CEF2D
:103E12001FF037EF1FF06A516E5D726F6B516F5971
:103E2200736F6C517059746F6D517159756FFF0ECC
:103E320072256A6FFF0E73216B6FFF0E74216C6F18
:103E4200FF0E75216D6F800E761B796D7951D8A4A6
:103E52002DEF1FF02FEF1FF03FEF1FF0010E6A272B
:103E6200000E6B236C236D233FEF1FF06E516A5FD0
:103E72006F516B5B70516C5B71516D5B6A516B1171
:103E82006C116D11D8A448EF1FF04AEF1FF07FEFBD
:103E92001FF07951D8A450EF1FF052EF1FF07FEFBF
:103EA2001FF0000E6A6F000E6B6F000E6C6F000E3B
:103EB2006D6F18EF20F0D8906A376B376C376D371B
:103EC20079AF66EF1FF068EF1FF069EF1FF06A81AC
:103ED20079A16EEF1FF070EF1FF074EF1FF0D88022
:103EE200793776EF1FF0D89079377851D8B47CEFD4
:103EF2001FF07EEF1FF07FEF1FF078076CAF84EFAB
:103F02001FF086EF1FF05CEF1FF0776B79AF8CEF3D
:103F12001FF08EEF1FF0A6EF1FF079C572F57F0E2E
:103F22007217D8B497EF1FF099EF1FF09DEF1FF0B3
:103F3200010E776FA6EF1FF06AA1A2EF1FF0A4EFA8
:103F42001FF0A6EF1FF099EF1FF07751D8B4ACEF36
:103F52001FF0AEEF1FF0D9EF1FF0010E6A27000E1F
:103F62006B236C236D236DA1B9EF1FF0BBEF1FF024
:103F7200D9EF1FF06AC572F56BC573F56CC574F5A0
:103F82006DC575F57535753374337333723372C518
:103F92006AF573C56BF574C56CF575C56DF5782951
:103FA200D8B4D6EF1FF0D8EF1FF0D9EF1FF0782B5F
:103FB2007829D8B4DFEF1FF0E1EF1FF0E9EF1FF02F
:103FC2007851D8A4E7EF1FF0E9EF1FF0FAEF1FF0E6
:103FD200000E6A6F000E6B6F000E6C6F000E6D6F3D
:103FE2007851D8A4F7EF1FF0F9EF1FF0FAEF1FF0A6
:103FF200766B78A1FFEF1FF001EF20F004EF20F0C5
:104002006C8F05EF20F06C9FD89078316D6F76AF92
:104012000DEF20F00FEF20F010EF20F06D8F6AC54A
:104022006AF56BC56BF56CC56CF56DC56DF5120067
:1040320040C60FF541C610F542C611F543C612F54A
:104042004CC613F54DC614F54EC615F54FC616F5FA
:1040520015EC3BF00FC57CF610C57DF611C57EF65A
:1040620012C57FF63CC60FF53DC610F53EC611F5EA
:104072003FC612F54CC613F54DC614F54EC615F5DE
:104082004FC616F515EC3BF00FC578F610C579F65C
:1040920011C57AF612C57BF638C60FF539C610F58A
:1040A2003AC611F53BC612F54CC613F54DC614F5CA
:1040B2004EC615F54FC616F515EC3BF00FC574F656
:1040C20010C575F611C576F612C577F640C60FF51E
:1040D20041C610F542C611F543C612F548C613F59E
:1040E20049C614F54AC615F54BC616F515EC3BF054
:1040F2000FC570F610C571F611C572F612C573F6CA
:104102003CC60FF53DC610F53EC611F53FC612F589
:1041120048C613F549C614F54AC615F54BC616F539
:1041220015EC3BF00FC56CF610C56DF611C56EF6B9
:1041320012C56FF638C60FF539C610F53AC611F535
:104142003BC612F548C613F549C614F54AC615F51D
:104152004BC616F515EC3BF00FC568F610C569F6AF
:1041620011C56AF612C56BF640C60FF541C610F5C9
:1041720042C611F543C612F544C613F545C614F5F9
:1041820046C615F547C616F515EC3BF00FC564F6A5
:1041920010C565F611C566F612C567F63CC60FF581
:1041A2003DC610F53EC611F53FC612F544C613F5DD
:1041B20045C614F546C615F547C616F515EC3BF08F
:1041C2000FC560F610C561F611C562F612C563F639
:1041D20038C60FF539C610F53AC611F53BC612F5C9
:1041E20044C613F545C614F546C615F547C616F579
:1041F20015EC3BF00FC55CF610C55DF611C55EF619
:1042020012C55FF67CC60FF57DC610F57EC611F5A8
:104212007FC612F578C613F579C614F57AC615F578
:104222007BC616F5A4EC3BF00FC558F610C559F63F
:1042320011C55AF612C55BF674C60FF575C610F5B0
:1042420076C611F577C612F570C613F571C614F568
:1042520072C615F573C616F5A4EC3BF00FC554F6FD
:1042620010C555F611C556F612C557F654C60FF5C8
:1042720055C610F556C611F557C612F56CC613F59C
:104282006DC614F56EC615F56FC616F5A4EC3BF0B7
:104292000FC554F610C555F611C556F612C557F698
:1042A20054C60FF555C610F556C611F557C612F588
:1042B20068C613F569C614F56AC615F56BC616F518
:1042C200A4EC3BF00FC554F610C555F611C556F6D1
:1042D20012C557F654C60FF555C610F556C611F558
:1042E20057C612F564C613F565C614F566C615F50C
:1042F20067C616F5A4EC3BF00FC554F610C555F68B
:1043020011C556F612C557F660C60FF561C610F50F
:1043120062C611F563C612F55CC613F55DC614F5E7
:104322005EC615F55FC616F5A4EC3BF00FC550F658
:1043320010C551F611C552F612C553F654C605F50D
:1043420055C606F556C607F557C608F558C601F50F
:1043520059C602F55AC603F55BC604F574EC22F0A1
:1043620001C54FF502C550F503C551F504C552F517
:104372004FC501F550C502F551C503F552C504F507
:1043820050C605F551C606F552C607F553C608F5DF
:1043920074EC22F001C54BF502C54CF503C54DF591
:1043A20004C54EF54BC501F54CC502F54DC503F5E7
:1043B2004EC504F5000E056E000E066E000E076E69
:1043C200000E086E3CEC44F0D8A0EAEF21F0ECEFCE
:1043D20021F0F7EF21F0000E0601C06F000EC16F51
:1043E200000EC26F000EC36F73EF22F054C61DF5AC
:1043F20055C61EF556C61FF557C620F530C619F527
:1044020031C61AF532C61BF533C61CF5E3EC26F0AD
:1044120019C505F51AC506F51BC507F51CC508F52E
:1044220058C61DF559C61EF55AC61FF55BC620F5BE
:1044320034C619F535C61AF536C61BF537C61CF54E
:10444200E3EC26F019C501F51AC502F51BC503F503
:104452001CC504F574EC22F001C54FF502C550F5F8
:1044620003C551F504C552F550C61DF551C61EF5DA
:1044720052C61FF553C620F52CC619F52DC61AF5DE
:104482002EC61BF52FC61CF5E3EC26F019C505F563
:104492001AC506F51BC507F51CC508F54FC501F57C
:1044A20050C502F551C503F552C504F574EC22F06E
:1044B20001C532F502C533F503C534F504C535F53A
:1044C2004BC536F54CC537F54DC538F54EC539F5F2
:1044D200C5EC2CF032C5C0F633C5C1F634C5C2F600
:1044E20035C5C3F612000450800B0D6E045004242F
:1044F2000F6E03AE7FEF22F081EF22F082EF22F007
:104502000F800F50D8B488EF22F08AEF22F09EEF8E
:1045120022F00F28D8A490EF22F092EF22F09AEF27
:1045220022F0000E016E000E026E000E036E000EEF
:10453200046E038E046AA6EF22F0000E016E000ED6
:10454200026E000E036E000E046E0850800B0E6E9B
:104552000D500E18D8B4B0EF22F0B2EF22F0B3EF44
:1045620022F00D8C085008240E6E07AEBBEF22F02D
:10457200BDEF22F0BEEF22F00E800E50D8B4C4EF91
:1045820022F0C6EF22F0DAEF22F00E28D8A4CCEF08
:1045920022F0CEEF22F0D6EF22F0000E056E000ED2
:1045A200066E000E076E000E086E078E086AE2EFB6
:1045B20022F0000E056E000E066E000E076E000E53
:1045C200086E0F500E5CD8B0E9EF22F0EBEF22F04C
:1045D20012EF23F00DACF0EF22F0F2EF22F0F4EF45
:1045E20022F0800E0D1A0FC510F50EC50FF510C57D
:1045F2000EF501C510F505C501F510C505F502C595
:1046020010F506C502F510C506F503C510F507C578
:1046120003F510C507F504C510F508C504F510C566
:1046220008F5106A0F500EC509F50A6A095E000EF8
:104632000A5A0ABE26EF23F00A5009E11A0E095C53
:10464200D8A026EF23F028EF23F05FEF23F00150EC
:10465200021003100410D8A431EF23F034EF23F03A
:10466200010E35EF23F0000E106E000E016E000EEB
:10467200026E000E036E000E046E0EC50FF568EF9B
:1046820023F010A047EF23F049EF23F04FEF23F080
:10469200D89010300109106E51EF23F0D8901032EB
:1046A20001A056EF23F058EF23F059EF23F0108EBC
:1046B200043404320332023201320F2A0E500F5CEC
:1046C200D8A066EF23F068EF23F042EF23F00DBC91
:1046D2006DEF23F06FEF23F0AFEF23F00F50D8A46C
:1046E20075EF23F077EF23F081EF23F0000E016ED8
:1046F200000E026E000E036E000E046ECEEF24F06A
:1047020005500126065002220750032208500422B7
:1047120004A08EEF23F090EF23F03CEF24F010A0E2
:1047220095EF23F097EF23F09DEF23F0D890103010
:104732000109106E9FEF23F0D890103201A0A4EF70
:1047420023F0A6EF23F0A7EF23F0108E04340432F7
:104752000332023201320F2A3CEF24F00550015C91
:1047620006500258075003580450800A096E085038
:10477200800A0958D8B0C0EF23F0C2EF23F0EDEF62
:1047820023F00150055C096E025006580A6E035070
:1047920007580B6E045008580C6EFF0E0924016E68
:1047A200FF0E0A20026EFF0E0B20036EFF0E0C207E
:1047B200046E800E0D1A106C1050D8A4E3EF23F093
:1047C200E5EF23F0F5EF23F0010E0126000E0222A1
:1047D20003220422F5EF23F00550015E0650025A2F
:1047E2000750035A0850045A0150021003100410D3
:1047F200D8A4FEEF23F000EF24F035EF24F01050A0
:10480200D8A406EF24F008EF24F035EF24F0000ED0
:10481200016E000E026E000E036E000E046ECEEFED
:1048220024F0D890013602360336043610AE1CEF5F
:1048320024F01EEF24F01FEF24F0018010A024EFDB
:1048420024F026EF24F02AEF24F0D88010362CEF43
:1048520024F0D89010360F50D8B432EF24F034EF51
:1048620024F035EF24F00F0603AE3AEF24F03CEFCC
:1048720024F012EF24F00E6A10AE42EF24F044EF5F
:1048820024F05CEF24F010C509F57F0E0916D8B4A8
:104892004DEF24F04FEF24F053EF24F0010E0E6E93
:1048A2005CEF24F001A058EF24F05AEF24F05CEF03
:1048B20024F04FEF24F00E50D8B462EF24F064EFEE
:1048C20024F08FEF24F0010E0126000E02220322B3
:1048D200042204A06FEF24F071EF24F08FEF24F094
:1048E20001C509F502C50AF503C50BF504C50CF5AA
:1048F2000C340C320B320A32093209C501F50AC5F1
:1049020002F50BC503F50CC504F50F28D8B48CEFDE
:1049120024F08EEF24F08FEF24F00F2A0F28D8B462
:1049220095EF24F097EF24F09FEF24F00F50D8A4D6
:104932009DEF24F09FEF24F0B0EF24F0000E016E03
:10494200000E026E000E036E000E046E0F50D8A40D
:10495200ADEF24F0AFEF24F0B0EF24F00D6A0FA01A
:10496200B5EF24F0B7EF24F0BAEF24F0038EBBEFDB
:1049720024F0039ED8900F30046E0DAEC3EF24F0E6
:10498200C5EF24F0C6EF24F0048E01C501F502C57F
:1049920002F503C503F504C504F5120005016D51C6
:1049A200800B766F6D516D257C6F6CAFDBEF24F061
:1049B200DDEF24F0DEEF24F07C817C51D8B4E4EF0B
:1049C20024F0E6EF24F0F9EF24F07C29D8A4ECEFF0
:1049D20024F0EEEF24F0F6EF24F0000E6A6F000EE2
:1049E2006B6F000E6C6F000E6D6F6C8F01EF25F018
:1049F200000E6A6F000E6B6F000E6C6F000E6D6F13
:104A02007151800B761B71517125776F70AF0CEF6E
:104A120025F00EEF25F00FEF25F077817751D8B40E
:104A220015EF25F017EF25F02AEF25F07729D8A406
:104A32001DEF25F01FEF25F027EF25F0000E6E6F1A
:104A4200000E6F6F000E706F000E716F708F32EF7D
:104A520025F0000E6E6F000E6F6F000E706F000E6D
:104A6200716F7751D8B438EF25F03AEF25F042EF65
:104A720025F07C51D8A440EF25F042EF25F04CEF11
:104A820025F0000E6A6F000E6B6F000E6C6F000E49
:104A92006D6FE2EF26F070516A03F3C481F5F4C43E
:104AA20082F58151786F796B7A6B7B6B82517D6F66
:104AB2007E6B7F6B806B6F516B03F3C481F5F4C423
:104AC20082F581517827000E79237A237B23825144
:104AD2007D27000E7E237F2380236E516C03F3C457
:104AE20081F5F4C482F581517827000E79237A2367
:104AF2007B2382517D27000E7E237F2380237AC56C
:104B02007BF579C57AF578C579F5786B6E516B03CB
:104B1200F3C481F5F4C482F5815178278251792357
:104B2200000E7A23000E7B236F516A03F3C481F5D2
:104B3200F4C482F58151782782517923000E7A23B9
:104B4200000E7B237AC57BF579C57AF578C579F5B0
:104B5200786B6E516A03F3C481F5F4C482F5815116
:104B6200782782517923000E7A23000E7B2370511D
:104B72006B03F3C481F5F4C482F581517D27825120
:104B82007E23000E7F23000E80236F516C03F3C43B
:104B920081F5F4C482F581517D2782517E23000E76
:104BA2007F23000E802370516C03F3C481F5F4C49B
:104BB20082F58151726F8251736F746B756B74C51C
:104BC20075F573C574F572C573F5726B72517D27F5
:104BD20073517E2374517F237551802378C572F5FA
:104BE20079C573F57AC574F57BC575F5190EFFEFB6
:104BF20025F0D8907533743373337233E82EFAEF9D
:104C020025F072517D2773517E2374517F23755194
:104C120080237AC57BF579C57AF578C579F5786B05
:104C220077517CC572F5736B7227000E7323820E67
:104C32007225816FFF0E7321826F35EF26F0D890B7
:104C42007D377E377F3780377BAF2AEF26F02CEF18
:104C520026F02DEF26F07D81D890783779377A3794
:104C62007B378107D8A082077FAF3AEF26F03CEF6F
:104C720026F020EF26F0776B7BAF42EF26F044EF71
:104C820026F068EF26F0FF0E7815726FFF0E791589
:104C9200736FFF0E7A15746F7F0E7B15756F7251ED
:104CA200731174117511D8B459EF26F05BEF26F029
:104CB2005FEF26F0010E776F68EF26F07DA164EFBB
:104CC20026F066EF26F068EF26F05BEF26F07751CC
:104CD200D8B46EEF26F070EF26F094EF26F0010EB6
:104CE2007D27000E7E237F23802380A17BEF26F089
:104CF2007DEF26F094EF26F07DC572F57EC573F543
:104D02007FC574F580C575F57535753374337333A6
:104D1200723372C57DF573C57EF574C57FF575C5B1
:104D220080F5814B822B82BF9FEF26F0825108E1F2
:104D32008129D8A09FEF26F0A1EF26F0ABEF26F055
:104D4200000E7D6F000E7E6F800E7F6F7F0E806F74
:104D5200D8EF26F082BFB8EF26F0825106E1810536
:104D6200D8B0B6EF26F0B8EF26F0C3EF26F0000E6B
:104D72007D6F000E7E6F000E7F6F000E806F766B70
:104D8200D8EF26F081C57CF5FF0E7D17FF0E7E174A
:104D92007F0E7F17000E80177CA1D2EF26F0D4EF92
:104DA20026F0D5EF26F07F8FD8907C31806F765138
:104DB20080137DC56AF57EC56BF57FC56CF580C530
:104DC2006DF512001C50800B256E1C501C242B6E9E
:104DD2001BAEEEEF26F0F0EF26F0F1EF26F02B807F
:104DE2002B50D8B4F7EF26F0F9EF26F00CEF27F0AE
:104DF2002B28D8A4FFEF26F001EF27F009EF27F0C8
:104E0200000E196E000E1A6E000E1B6E000E1C6E46
:104E12001B8E14EF27F0000E196E000E1A6E000E94
:104E22001B6E000E1C6E2050800B251A2050202471
:104E32002A6E1FAE1FEF27F021EF27F022EF27F097
:104E42002A802A50D8B428EF27F02AEF27F03DEF26
:104E520027F02A28D8A430EF27F032EF27F03AEFD4
:104E620027F0000E1D6E000E1E6E000E1F6E000E4D
:104E7200206E1F8E45EF27F0000E1D6E000E1E6E77
:104E8200000E1F6E000E206E2A50D8B44BEF27F092
:104E92004DEF27F055EF27F02B50D8A453EF27F012
:104EA20055EF27F05FEF27F0000E196E000E1A6E15
:104EB200000E1B6E000E1C6EF5EF28F01F5019023B
:104EC200F3C430F5F4C431F53050266E276A286AEF
:104ED200296A31502C6E2D6A2E6A2F6A1E501A02D0
:104EE200F3C430F5F4C431F530502626000E2722E3
:104EF2002822292231502C26000E2D222E222F224A
:104F02001D501B02F3C430F5F4C431F5305026268F
:104F1200000E27222822292231502C26000E2D2273
:104F22002E222F2228C529F527C528F526C527F5C3
:104F3200266A1D501A02F3C430F5F4C431F530501C
:104F4200262631502722000E2822000E29221E502A
:104F52001902F3C430F5F4C431F53050262631502D
:104F62002722000E2822000E292228C529F527C54E
:104F720028F526C527F5266A1D501902F3C430F517
:104F8200F4C431F53050262631502722000E282253
:104F9200000E29221F501A02F3C430F5F4C431F571
:104FA20030502C2631502D22000E2E22000E2F22A0
:104FB2001E501B02F3C430F5F4C431F530502C26D8
:104FC20031502D22000E2E22000E2F221F501B02C6
:104FD200F3C430F5F4C431F53050216E3150226EF5
:104FE200236A246A23C524F522C523F521C522F5A7
:104FF200216A21502C2622502D2223502E22245069
:105002002F2226C521F527C522F528C523F529C556
:1050120024F5190E12EF28F0D890243223322232CE
:105022002132E82E0DEF28F021502C2622502D227D
:1050320023502E2224502F2228C529F527C528F5D2
:1050420026C527F5266A2A502BC521F5226A212674
:10505200000E2222820E2124306EFF0E2220316E9B
:1050620048EF28F0D8902C362D362E362F3629AE22
:105072003DEF28F03FEF28F040EF28F02C80D89049
:1050820026362736283629363006D8A031062EAEE7
:105092004DEF28F04FEF28F033EF28F02A6A29AEBF
:1050A20055EF28F057EF28F07BEF28F0FF0E26147B
:1050B200216EFF0E2714226EFF0E2814236E7F0E20
:1050C2002914246E2150221023102410D8B46CEF1E
:1050D20028F06EEF28F072EF28F0010E2A6E7BEFB7
:1050E20028F02CA077EF28F079EF28F07BEF28F05A
:1050F2006EEF28F02A50D8B481EF28F083EF28F021
:10510200A7EF28F0010E2C26000E2D222E222F2290
:105112002FA08EEF28F090EF28F0A7EF28F02CC5F3
:1051220021F52DC522F52EC523F52FC524F52434EE
:10513200243223322232213221C52CF522C52DF50B
:1051420023C52EF524C52FF5304A312A31BEB2EFE0
:1051520028F0315008E13028D8A0B2EF28F0B4EF9F
:1051620028F0BEEF28F0000E2C6E000E2D6E800E81
:105172002E6E7F0E2F6EEBEF28F031BECBEF28F0B4
:10518200315006E13004D8B0C9EF28F0CBEF28F057
:10519200D6EF28F0000E2C6E000E2D6E000E2E6E35
:1051A200000E2F6E256AEBEF28F030C52BF5FF0EAF
:1051B2002C16FF0E2D167F0E2E16000E2F162BA06C
:1051C200E5EF28F0E7EF28F0E8EF28F02E8ED890F0
:1051D2002B302F6E25502F122CC519F52DC51AF51F
:1051E2002EC51BF52FC51CF51200C8C5D9F4C9C5BB
:1051F200DAF4DFC4F6F4260EF76E000EF86E08003D
:10520200F550250AD8A408EF29F00AEF29F030EF6B
:105212002AF0C8C5D9F4C9C5DAF4DF2A000E06019E
:10522200B06F000EAF6FAF51B011D8A41BEF29F0D1
:105232001EEF29F0010E1FEF29F0000EBC6FC8C54A
:10524200D9F4C9C5DAF4DF5005016A6FDD0E6B6F60
:10525200000E6D6F020E6C6FC0EC40F005016A51DA
:105262006B11D8A437EF29F039EF29F07DEF29F03F
:10527200C8C5D9F4C9C5DAF4020EDF26C6C5B2F52F
:10528200C7C5B3F5D00EB46F050EB56F56EC32F04C
:10529200B2C5D8F5B3C5D9F50501D9BF59EF29F083
:1052A200D95108E1D805D8A059EF29F05BEF29F0D0
:1052B20077EF29F0CAC5D9F4CBC5DAF4DFC4CCF54F
:1052C200020EDE26DFC4CDF5000EDD22CCC5D9F4F8
:1052D200CDC5DAF4DEC4CEF5DDC4CFF5CEC5D9F442
:1052E200CFC5DAF4D0C5DEF4D1C5DDF4D8C5C6F534
:1052F200D9C5C7F5FBEF2AF0C8C5D9F4C9C5DAF498
:10530200DFC4F6F4260EF76E000EF86E0800F550B4
:10531200750AD8A48FEF29F091EF29F0D0EF29F088
:10532200C8C5D9F4C9C5DAF4DF2AC6C5B2F5C7C5FE
:10533200B3F5D00EB46F050EB56F56EC32F0B2C5B0
:10534200D8F5B3C5D9F50501D9BFB0EF29F0D951C8
:1053520008E1D805D8A0B0EF29F0B2EF29F077EF35
:1053620029F0CAC5D9F4CBC5DAF4DFC4CCF5020EF4
:10537200DE26DFC4CDF5000EDD22CCC5D9F4CDC5C5
:10538200DAF4DEC4CEF5DDC4CFF5CEC5D9F4CFC58F
:10539200DAF4D0C5DEF4D1C5DDF477EF29F0C8C563
:1053A200D9F4C9C5DAF4DFC4F6F4260EF76E000E9E
:1053B200F86E0800F550250AD8A4E2EF29F0E4EFD0
:1053C20029F029EF2AF0C6C578F5C7C579F538EC7A
:1053D20046F0C6C56FF5C7C570F586EC3AF06FC5E5
:1053E200DAF570C5DBF5250E0501DA19DB11D8A453
:1053F200FDEF29F0FFEF29F00EEF2AF0C8C5D9F42E
:10540200C9C5DAF4DF2A0601AB4BAC2B000E05014D
:10541200C76F000EC66FFBEF2AF0DA2908E1DB291D
:10542200D8B416EF2AF018EF2AF022EF2AF0DAC5E4
:105432006AF5DBC56BF5C6C56CF5C7C56DF532EC13
:1054420043F0FF0E0501C76FFE0EC66FFBEF2AF099
:10545200C8C5D9F4C9C5DAF4DF2A07EF2AF0C6C5F0
:105462006FF5C7C570F586EC3AF06FC5DAF570C511
:10547200DBF5C8C5D9F4C9C5DAF4DFC4F6F4260EE3
:10548200F76E000EF86E0800F550200AD8B44CEF03
:105492002AF04EEF2AF066EF2AF0C8C5D9F4C9C542
:1054A200DAF4DFC4F6F4260EF76E000EF86E08008A
:1054B200F5C4CCF5F70E0501CC27050ECC6164EFDF
:1054C2002AF066EF2AF0D3EF2AF0C8C5D9F4C9C58D
:1054D200DAF4DF2AC8C5D9F4C9C5DAF4DFC4F6F4B0
:1054E200260EF76E000EF86E0800F550200AD8B4AA
:1054F2007DEF2AF07FEF2AF066EF2AF0C8C5D9F4D3
:10550200C9C5DAF4DFC4F6F4260EF76E000EF86EA3
:105512000800F5C4CCF5F70E0501CC27040ECC65C6
:1055220095EF2AF097EF2AF066EF2AF0A6EF2AF01D
:105532000601AB4BAC2BC6C56FF5C7C570F586EC43
:105542003AF06FC5DAF570C5DBF5200E0501DA1900
:10555200DB11D8B4AFEF2AF0B1EF2AF099EF2AF0BD
:10556200DAC5CCF5F70ECC27040ECC65BBEF2AF0DA
:10557200BDEF2AF099EF2AF0DA2908E1DB29D8B445
:10558200C5EF2AF0C7EF2AF007EF2AF0DAC56AF56D
:10559200DBC56BF5C6C56CF5C7C56DF532EC43F0DE
:1055A20007EF2AF0C8C5D9F4C9C5DAF4DFC4F6F4A6
:1055B200260EF76E000EF86E0800F550CC6FCD6B1C
:1055C200DA51CC1907E1DB51CD19D8A4EBEF2AF05F
:1055D200EDEF2AF0EFEF2AF0FFEF29F0DA2906E1EA
:1055E200DB29D8A4F7EF2AF0F9EF2AF018EF2AF016
:1055F200C669C769120005016D51800B7A6F6D5142
:105602006D25816F6CAF08EF2BF00AEF2BF00BEFDB
:105612002BF081818151D8B411EF2BF013EF2BF0D5
:1056220027EF2BF08129D8A419EF2BF01BEF2BF0D9
:1056320023EF2BF0000E6A6F000E6B6F000E6C6F83
:10564200000E6D6F6C8F6D6B2FEF2BF0000E6A6F7B
:10565200000E6B6F000E6C6F000E6D6F7151800B40
:105662007A1B71517125826F70AF3AEF2BF03CEFCC
:105672002BF03DEF2BF082818251D8B443EF2BF017
:1056820045EF2BF059EF2BF08229D8A44BEF2BF0EA
:105692004DEF2BF055EF2BF0000E6E6F000E6F6F7B
:1056A200000E706F000E716F708F716B61EF2BF0D7
:1056B200000E6E6F000E6F6F000E706F000E716F36
:1056C2006E516F1170117111D8A46AEF2BF06CEF4B
:1056D2002BF084EF2BF0000E6A6F000E6B6F000E42
:1056E2006C6F000E6D6F800E6C137F0E6D137A510E
:1056F2006D136AC56AF56BC56BF56CC56CF56DC546
:105702006DF5C4EF2CF08151D8A48AEF2BF08CEF09
:105712002BF096EF2BF0000E6A6F000E6B6F000EEF
:105722006C6F000E6D6FC4EF2CF0825181C572F563
:10573200736B725F000E735B7F0E72257B6F000EC0
:1057420073217C6F6AC576F56BC577F56CC578F504
:105752006DC579F5000E6A6F000E6B6F000E6C6FEF
:10576200000E6D6F000E7D6F000E7E6F000E7F6F5C
:10577200000E806F826BF6EF2BF08251D8B4C4EF2B
:105782002BF0C6EF2BF0DDEF2BF0D8907637773782
:1057920078377937D8906A376B376C376D3780AF87
:1057A200D5EF2BF0D7EF2BF0D8EF2BF06A81D89002
:1057B2007D377E377F3780376E51765D6F517759EF
:1057C2007051785971517959D8A0EAEF2BF0ECEF6A
:1057D2002BF0F5EF2BF0808D6E51765F6F51775B7A
:1057E2007051785B7151795B822B190E8265FCEFE7
:1057F2002BF0FEEF2BF0BEEF2BF0765177117811E4
:105802007911D8B407EF2CF009EF2CF021EF2CF02E
:105812007D8121EF2CF0D8906A376B376C376D376A
:1058220080AF16EF2CF018EF2CF019EF2CF06A81F4
:10583200D8907D377E377F3780377B07D8A07C07AB
:105842006CAF26EF2CF028EF2CF00CEF2CF0826BD3
:1058520080AF2EEF2CF030EF2CF054EF2CF0FF0E37
:105862007D15726FFF0E7E15736FFF0E7F15746FBD
:105872007F0E8015756F7251731174117511D8B442
:1058820045EF2CF047EF2CF04BEF2CF0010E826F1E
:1058920054EF2CF06AA150EF2CF052EF2CF054EFA1
:1058A2002CF047EF2CF08251D8B45AEF2CF05CEF79
:1058B2002CF080EF2CF0010E6A27000E6B236C2374
:1058C2006D236DA167EF2CF069EF2CF080EF2CF0C7
:1058D2006AC572F56BC573F56CC574F56DC575F562
:1058E2007535753374337333723372C56AF573C5A4
:1058F2006BF574C56CF575C56DF57B4B7C2B7CBF68
:105902008BEF2CF07C5108E17B29D8A08BEF2CF097
:105912008DEF2CF098EF2CF0000E7C6F7B69000E5F
:105922006A6F000E6B6F000E6C6F000E6D6F7CBFA6
:10593200A5EF2CF07C5106E17B05D8B0A3EF2CF04B
:10594200A5EF2CF0B2EF2CF0000E7C6F000E7B6FF7
:10595200000E6A6F000E6B6F000E6C6F000E6D6FA3
:105962007A6B7BC581F581A1B9EF2CF0BBEF2CF0EE
:10597200BEEF2CF06C8FBFEF2CF06C9FD890813172
:105982006D6F78EF2BF012003550800B426E355060
:105992003524496E34AED0EF2CF0D2EF2CF0D3EF99
:1059A2002CF049804950D8B4D9EF2CF0DBEF2CF021
:1059B200EFEF2CF04928D8A4E1EF2CF0E3EF2CF024
:1059C200EBEF2CF0000E326E000E336E000E346ED2
:1059D200000E356E348E356AF7EF2CF0000E326E03
:1059E200000E336E000E346E000E356E3950800B91
:1059F200421A395039244A6E38AE02EF2DF004EFC4
:105A02002DF005EF2DF04A804A50D8B40BEF2DF05F
:105A12000DEF2DF021EF2DF04A28D8A413EF2DF031
:105A220015EF2DF01DEF2DF0000E366E000E376EC5
:105A3200000E386E000E396E388E396A29EF2DF05D
:105A4200000E366E000E376E000E386E000E396E86
:105A52003650371038103910D8A432EF2DF034EF09
:105A62002DF04CEF2DF0000E326E000E336E000E54
:105A7200346E000E356E800E34127F0E3512425097
:105A8200351232C532F533C533F534C534F535C573
:105A920035F58CEF2EF04950D8A452EF2DF054EF8B
:105AA2002DF05EEF2DF0000E326E000E336E000E02
:105AB200346E000E356E8CEF2EF04A5049C53AF521
:105AC2003B6A3A5E000E3B5A7F0E3A24436E000E4A
:105AD2003B20446E32C53EF533C53FF534C540F533
:105AE20035C541F5000E326E000E336E000E346E77
:105AF200000E356E000E456E000E466E000E476EAD
:105B0200000E486E4A6ABEEF2DF04A50D8B48CEFB0
:105B12002DF08EEF2DF0A5EF2DF0D8903E363F36CA
:105B220040364136D890323633363436353648AE82
:105B32009DEF2DF09FEF2DF0A0EF2DF03280D89049
:105B4200453646364736483636503E5C37503F5823
:105B52003850405839504158D8A0B2EF2DF0B4EF28
:105B62002DF0BDEF2DF0488C36503E5E37503F5A37
:105B72003850405A3950415A4A2A190E4A64C4EFE1
:105B82002DF0C6EF2DF086EF2DF03E503F10401065
:105B92004110D8B4CFEF2DF0D1EF2DF0E9EF2DF079
:105BA2004580E9EF2DF0D89032363336343635362B
:105BB20048AEDEEF2DF0E0EF2DF0E1EF2DF0328078
:105BC200D89045364636473648364306D8A044066E
:105BD20034AEEEEF2DF0F0EF2DF0D4EF2DF04A6A57
:105BE20048AEF6EF2DF0F8EF2DF01CEF2EF0FF0E81
:105BF20045143A6EFF0E46143B6EFF0E47143C6E80
:105C02007F0E48143D6E3A503B103C103D10D8B404
:105C12000DEF2EF00FEF2EF013EF2EF0010E4A6E65
:105C22001CEF2EF032A018EF2EF01AEF2EF01CEF20
:105C32002EF00FEF2EF04A50D8B422EF2EF024EFC0
:105C42002EF048EF2EF0010E3226000E33223422BF
:105C5200352235A02FEF2EF031EF2EF048EF2EF047
:105C620032C53AF533C53BF534C53CF535C53DF58E
:105C72003D343D323C323B323A323AC532F53BC5D5
:105C820033F53CC534F53DC535F5434A442A44BE97
:105C920053EF2EF0445008E14328D8A053EF2EF0E2
:105CA20055EF2EF060EF2EF0000E446E4368000EAA
:105CB200326E000E336E000E346E000E356E44BE30
:105CC2006DEF2EF0445006E14304D8B06BEF2EF096
:105CD2006DEF2EF07AEF2EF0000E446E000E436E42
:105CE200000E326E000E336E000E346E000E356EF4
:105CF200426A43C549F549A081EF2EF083EF2EF0A9
:105D020086EF2EF0348E87EF2EF0349ED8904930F5
:105D1200356E40EF2DF012004FC501F550C502F56A
:105D220051C503F552C504F54BC505F54CC506F53D
:105D32004DC507F54EC508F5CCEC3EF0D8B0A4EF42
:105D42002EF0A6EF2EF0BFEF2EF04BC501F54CC59D
:105D520002F54DC503F54EC504F55BC505F55CC5F9
:105D620006F55DC507F55EC508F5CCEC3EF0D8A09A
:105D7200BDEF2EF0BFEF2EF0C9EF2EF0000E4B6EEE
:105D8200000E4C6E000E4D6E000E4E6EF1EF2FF0B7
:105D92004BC501F54CC502F54DC503F54EC504F5DD
:105DA2004FC505F550C506F551C507F552C508F5AD
:105DB200CCEC3EF0D8A0E0EF2EF0E2EF2EF03BEF7D
:105DC2002FF053C501F554C502F555C503F556C567
:105DD20004F54BC505F54CC506F54DC507F54EC591
:105DE20008F5CCEC3EF0D8A0F9EF2EF0FBEF2EF048
:105DF2003BEF2FF04FC515F550C516F551C517F5F8
:105E020052C518F54BC511F54CC512F54DC513F524
:105E12004EC514F5D5EC48F011C532F512C533F56F
:105E220013C534F514C535F54FC515F550C516F52E
:105E320051C517F552C518F553C511F554C512F5DC
:105E420055C513F556C514F5D5EC48F011C536F510
:105E520012C537F513C538F514C539F5C5EC2CF064
:105E620032C54BF533C54CF534C54DF535C54EF548
:105E7200F1EF2FF04BC501F54CC502F54DC503F509
:105E82004EC504F553C505F554C506F555C507F5C8
:105E920056C508F5CCEC3EF0D8A052EF2FF054EFE7
:105EA2002FF077EF2FF057C501F558C502F559C508
:105EB20003F55AC504F54BC505F54CC506F54DC5A8
:105EC20007F54EC508F5CCEC3EF0D8A06BEF2FF0ED
:105ED2006DEF2FF077EF2FF0000E4B6E000E4C6E31
:105EE200800E4D6E3F0E4E6EF1EF2FF04BC501F559
:105EF2004CC502F54DC503F54EC504F557C505F56C
:105F020058C506F559C507F55AC508F5CCEC3EF05B
:105F1200D8A08EEF2FF090EF2FF0E9EF2FF05BC5B6
:105F220001F55CC502F55DC503F55EC504F54BC51B
:105F320005F54CC506F54DC507F54EC508F5CCEC83
:105F42003EF0D8A0A7EF2FF0A9EF2FF0E9EF2FF046
:105F52004BC515F54CC516F54DC517F54EC518F5CB
:105F62005BC511F55CC512F55DC513F55EC514F58B
:105F7200D5EC48F011C532F512C533F513C534F529
:105F820014C535F55BC515F55CC516F55DC517F588
:105F92005EC518F557C511F558C512F559C513F563
:105FA2005AC514F5D5EC48F011C536F512C537F5CA
:105FB20013C538F514C539F5C5EC2CF032C54BF5CF
:105FC20033C54CF534C54DF535C54EF5F1EF2FF01F
:105FD200000E4B6E000E4C6E000E4D6E000E4E6E9D
:105FE200120028C64BF529C64CF52AC64DF52BC61C
:105FF2004EF5D0C74FF5D1C750F5D2C751F5D3C72B
:1060020052F5D4C753F5D5C754F5D6C755F5D7C7FA
:1060120056F5D8C757F5D9C758F5DAC759F5DBC7CA
:106022005AF5DCC75BF5DDC75CF5DEC75DF5DFC79A
:106032005EF58DEC2EF04BC54CF64CC54DF64DC5BC
:106042004EF64EC54FF628C64BF529C64CF52AC664
:106052004DF52BC64EF5ECC74FF5EDC750F5EEC723
:1060620051F5EFC752F5F0C753F5F1C754F5F2C732
:1060720055F5F3C756F5F4C757F5F5C758F5F6C702
:1060820059F5F7C75AF52DEC31F04BC548F64CC51A
:1060920049F64DC54AF64EC54BF628C64BF529C6FC
:1060A2004CF52AC64DF52BC64EF5C0C74FF5C1C7F4
:1060B20050F5C2C751F5C3C752F5C4C753F5C5C79A
:1060C20054F5C6C755F5C7C756F5C8C757F5C9C76A
:1060D20058F5CAC759F5CBC75AF5CCC75BF5CDC73A
:1060E2005CF5CEC75DF5CFC75EF58DEC2EF04BC5E6
:1060F20044F64CC545F64DC546F64EC547F624C690
:106102004BF525C64CF526C64DF527C64EF5B0C74C
:106112004FF5B1C750F5B2C751F5B3C752F5B4C781
:1061220053F5B5C754F5B6C755F5B7C756F5B8C751
:1061320057F5B9C758F5BAC759F5BBC75AF5BCC721
:106142005BF5BDC75CF5BEC75DF5BFC75EF58DECFF
:106152002EF04BC540F64CC541F64DC542F64EC534
:1061620043F624C64BF525C64CF526C64DF527C683
:106172004EF5E0C74FF5E1C750F5E2C751F5E3C769
:1061820052F5E4C753F5E5C754F5E6C755F5E7C739
:1061920056F5E8C757F5E9C758F5EAC759F5EBC709
:1061A2005AF52DEC31F04BC53CF64CC53DF64DC5CC
:1061B2003EF64EC53FF624C64BF525C64CF526C61F
:1061C2004DF527C64EF5A0C74FF5A1C750F5A2C79A
:1061D20051F5A3C752F5A4C753F5A5C754F5A6C7F1
:1061E20055F5A7C756F5A8C757F5A9C758F5AAC7C1
:1061F20059F5ABC75AF5ACC75BF5ADC75CF5AEC791
:106202005DF5AFC75EF58DEC2EF04BC538F64CC58B
:1062120039F64DC53AF64EC53BF6BDEC3CF04BC5E2
:1062220034F64CC535F64DC536F64EC537F63DEC5F
:1062320037F04BC530F64CC531F64DC532F64EC57A
:1062420033F64DEC40F04BC52CF64CC52DF64DC542
:106252002EF64EC52FF612004FC501F550C502F5B8
:1062620051C503F552C504F54BC505F54CC506F5F8
:106272004DC507F54EC508F5CCEC3EF0D8B044EF5D
:1062820031F046EF31F05FEF31F04BC501F54CC50F
:1062920002F54DC503F54EC504F557C505F558C5BC
:1062A20006F559C507F55AC508F5CCEC3EF0D8A05D
:1062B2005DEF31F05FEF31F069EF31F0000E4B6EC0
:1062C200000E4C6E000E4D6E000E4E6E55EF32F00B
:1062D2004BC501F54CC502F54DC503F54EC504F598
:1062E2004FC505F550C506F551C507F552C508F568
:1062F200CCEC3EF0D8A080EF31F082EF31F0DBEF52
:1063020031F053C501F554C502F555C503F556C51F
:1063120004F54BC505F54CC506F54DC507F54EC54B
:1063220008F5CCEC3EF0D8A099EF31F09BEF31F0BC
:10633200DBEF31F04FC515F550C516F551C517F510
:1063420052C518F54BC511F54CC512F54DC513F5DF
:106352004EC514F5D5EC48F011C532F512C533F52A
:1063620013C534F514C535F54FC515F550C516F5E9
:1063720051C517F552C518F553C511F554C512F597
:1063820055C513F556C514F5D5EC48F011C536F5CB
:1063920012C537F513C538F514C539F5C5EC2CF01F
:1063A20032C54BF533C54CF534C54DF535C54EF503
:1063B20055EF32F04BC501F54CC502F54DC503F55D
:1063C2004EC504F553C505F554C506F555C507F583
:1063D20056C508F5CCEC3EF0D8A0F2EF31F0F4EF60
:1063E20031F04DEF32F057C501F558C502F559C5E8
:1063F20003F55AC504F54BC505F54CC506F54DC563
:1064020007F54EC508F5CCEC3EF0D8A00BEF32F004
:106412000DEF32F04DEF32F04BC515F54CC516F5C8
:106422004DC517F54EC518F557C511F558C512F5E6
:1064320059C513F55AC514F5D5EC48F011C532F516
:1064420012C533F513C534F514C535F553C515F525
:1064520054C516F555C517F556C518F557C511F5A6
:1064620058C512F559C513F55AC514F5D5EC48F0BF
:1064720011C536F512C537F513C538F514C539F50A
:10648200C5EC2CF032C54BF533C54CF534C54DF592
:1064920035C54EF555EF32F0000E4B6E000E4C6EC8
:1064A200000E4D6E000E4E6E1200B2C578F5B3C5E9
:1064B20079F538EC46F00601AF51B011D8A464EF7B
:1064C20032F066EF32F06DEF32F0000E0501C16F6F
:1064D2001F0EC06F71EF32F0AFC6C0F5B0C6C1F586
:1064E200000E0501C36F000EC26FF5EF32F0B2C5A8
:1064F2006FF5B3C570F586EC3AF06FC5C4F570C59B
:10650200C5F50501C42906E1C529D8A48BEF32F0EF
:106512008DEF32F0A7EF32F00601AF51B011D8A4DF
:1065220095EF32F097EF32F0A1EF32F00501C25150
:10653200C311D8A49FEF32F0A1EF32F0A7EF32F0EF
:10654200C4C5B2F5C5C5B3F575EF33F0C251C31179
:10655200D8A4AEEF32F0B0EF32F0D3EF32F02B0E20
:10656200C419C511D8B4B8EF32F0BAEF32F0C4EFA3
:1065720032F02D0EC419C511D8A4C2EF32F0C4EF07
:1065820032F0D3EF32F0600EC225D96E070EC3216E
:10659200DA6EC4C5DFF4C24BC32B0601AB4BAC2B86
:1065A200F5EF32F0C4C5B6F5D00EB627090EB665C2
:1065B200DDEF32F0DFEF32F0C4EF32F0C42908E150
:1065C200C529D8B4E7EF32F0E9EF32F010EF33F03B
:1065D200C4C56AF5C5C56BF5B2C56CF5B3C56DF535
:1065E20032EC43F010EF33F00501C051C25DC351EC
:1065F200800AB66FC151800AB659D8B003EF33F0A2
:1066020005EF33F010EF33F0C35109E11F0EC25D05
:10661200D8A00EEF33F010EF33F078EF32F0600EC7
:106622000501C225D96E070EC321DA6EDF6A600E3C
:10663200826F070E836FBE0E846F050E856F000E8C
:10664200876F0A0E866F000E886FA3EC18F082C562
:10665200B6F583C5B7F584C5B8F585C5B9F586C560
:10666200BAF587C5BBF588C5BCF589C5BDF5B4C506
:10667200D9F4B5C5DAF4B6C5DEF4B7C5DEF4B8C5EB
:10668200DEF4B9C5DEF4BAC5DEF4BBC5DEF4BCC5C2
:10669200DEF4BDC5DEF40601B151B211D8A454EF47
:1066A20033F056EF33F070EF33F00501C251C311EE
:1066B200D8B45EEF33F060EF33F070EF33F00601E1
:1066C200BC51D8B467EF33F06AEF33F0010E6BEFD1
:1066D20033F0000E0501B26FB36B75EF33F0FF0EAE
:1066E2000501B36FFE0EB26F120010C693F511C60C
:1066F20094F512C695F513C696F583C593F584C530
:1067020094F585C595F586C596F5810E0501876FC9
:10671200FF0E886F93C589F594C58AF595C58BF5EB
:1067220096C58CF5180E9BEF33F0D8908C338B33D3
:106732008A338933E82E96EF33F089518725916F9A
:10674200000E8821926F92BFB0EF33F0925109E1AF
:10675200170E915DD8A0B0EF33F0B2EF33F0BCEF7B
:1067620033F083C583F584C584F585C585F586C573
:1067720086F580EF34F092BFC1EF33F0C3EF33F010
:1067820034EF34F091C587F5FF0E886FFF0E896FE5
:106792007F0E8A6F000E8B6F8767D2EF33F0DAEFCE
:1067A20033F08B358B338A3389338833872FCDEFA0
:1067B20033F088C58DF589C58EF58AC58FF58BC5F1
:1067C20090F505018D519315876F8E519415886F41
:1067D2008F519515896F905196158A6F875188113F
:1067E20089118A11D8A4F8EF33F0FAEF33F0FCEFF5
:1067F20033F0B2EF33F093C587F594C588F595C5AC
:1068020089F596C58AF5200E0CEF34F0D8908A33BC
:10681200893388338733E82E07EF34F087518811A4
:1068220089118A11D8B418EF34F01AEF34F022EF3C
:1068320034F08D5193278E5194238F51952390518B
:1068420096238D1D876F8E1D886F8F1D896F901DFA
:106852008A6F8751931788519417895195178A51D6
:10686200961778EF34F093C587F594C588F595C5EA
:1068720089F596C58AF5200E44EF34F0D8908A3314
:10688200893388338733E82E3FEF34F087518811FC
:1068920089118A11D8A450EF34F052EF34F05CEF32
:1068A20034F0000E936F000E946F000E956F000E81
:1068B200966F78EF34F0D8909335876F9435886F60
:1068C2009535896F96358A6F8751881189118A119A
:1068D200D8B46EEF34F070EF34F078EF34F0000E8D
:1068E200936F000E946F800E956FBF0E966F93C5D7
:1068F20083F594C584F595C585F596C586F5120090
:106902000601B54BB62BB65109E10A0EB55DD8A00A
:106912008DEF34F08FEF34F081EF35F0000EB66F6B
:10692200000EB56FB9C6B3F6BAC6B4F6C4C601F561
:10693200C5C602F5000E02BEFF0E036E046E010E06
:1069420063EC36F001C511F502C512F503C513F566
:1069520004C514F5B3C601F5B4C602F5000E02BEB5
:10696200FF0E036E046E010E63EC36F001C515F5E1
:1069720002C516F503C517F504C518F5D5EC48F0A0
:1069820011C580F612C581F613C582F614C583F6C9
:1069920080C628F681C629F682C62AF683C62BF659
:1069A2000A0E0501606FD70E616F230E626F3C0EF7
:1069B200636F20C615F521C616F522C617F523C644
:1069C20018F580C611F581C612F582C613F583C685
:1069D20014F5D5EC48F011C532F512C533F513C5DF
:1069E20034F514C535F560C536F561C537F562C5B0
:1069F20038F563C539F5C5EC2CF032C564F533C5FD
:106A020065F534C566F535C567F580C620F681C6DD
:106A120021F682C622F683C623F664C524F665C52E
:106A220025F666C526F667C527F6F2EC2FF019ECB7
:106A320020F0000E016E000E026E000E036E000EBC
:106A4200046EC0C605F5C1C606F5C2C607F5C3C6C3
:106A520008F5CCEC3EF0D8A031EF35F034EF35F04C
:106A6200010E35EF35F0000E0601BD6FC0C601F50F
:106A7200C1C602F5C2C603F5C3C604F5E1EC49F08E
:106A820001C584F602C585F603C586F604C587F6F8
:106A9200000E016E000E026E480E036E440E046E6E
:106AA20084C605F585C606F586C607F587C608F5C8
:106AB200CCEC3EF0D8B060EF35F062EF35F06BEF22
:106AC20035F0000E0601846F000E856F480E866F4A
:106AD200440E876F84C60DF585C60EF586C60FF582
:106AE20087C610F50601BD51D8A47AEF35F07DEFC7
:106AF20035F0010E7EEF35F0000E116E49EC47F0D5
:106B02001200050189BF88EF35F08BEF35F0010ED9
:106B12008CEF35F0000E906FECBF92EF35F094EFF2
:106B220035F096EF35F00601BB930501ECBF9EEF01
:106B320035F09CEF35F0A4EF35F0000E8D6F010EAD
:106B42008C6FA8EF35F0EBC58CF5ECC58DF5A9C6B9
:106B52008EF5AAC68FF59051D8B4B2EF35F0B4EFE6
:106B620035F0CBEF35F08E07D8A08F079051D8A41F
:106B7200BDEF35F0BFEF35F0C5EF35F0000E8B6F8E
:106B82002B0E8A6FC9EF35F0000E8B6F2D0E8A6FB8
:106B92008AC590F5000E926F4F0E916F07015F6BE1
:106BA20005EF36F005019107D8A09207100E912546
:106BB200D96E070E9221DA6E88C56AF589C56BF522
:106BC200000E6D6F0A0E6C6F8EEC43F06AC570F5A5
:106BD2006BC571F5ABEC49F005017051300FDF6EFA
:106BE2008C07D8A08D078E07D8A08F0788C56AF5B5
:106BF20089C56BF5000E6D6F0A0E6C6FD0EC42F01A
:106C02006AC588F56BC589F5050192BF11EF36F0AB
:106C1200925108E19105D8A011EF36F013EF36F04A
:106C22003EEF36F088518911D8A41AEF36F01CEFE6
:106C320036F0D3EF35F08DBF29EF36F08D5106E1F6
:106C42008C05D8B027EF36F029EF36F0D3EF35F0C8
:106C52008FBF34EF36F08F5108E18E05D8A034EFA4
:106C620036F036EF36F03EEF36F00601BBB33CEFBE
:106C720036F03EEF36F0D3EF35F005019051D8B43F
:106C820045EF36F047EF36F052EF36F09107D8A0D5
:106C92009207100E9125D96E070E9221DA6E90C5D9
:106CA200DFF486C57DF587C57EF5100E91257F6FD1
:106CB200070E9221806F8EC581F58FC582F5ACECEF
:106CC20046F01200096E0950D8B46AEF36F06CEF44
:106CD20036F08EEF36F004BE73EF36F071EF36F019
:106CE2008EEF36F001C505F502C506F503C507F5B9
:106CF20004C508F5051E061E071E081E052A000EFD
:106D020006220722082205C50BF506C50CF507C5A4
:106D12000DF508C50EF596EF36F001C50BF502C567
:106D22000CF503C50DF504C50EF501500210031054
:106D32000410D8A49FEF36F0A1EF36F0ABEF36F097
:106D4200000E016E000E026E000E036E000E046E47
:106D52003CEF37F0960E0A6EB5EF36F00A2AD8905D
:106D62000E320D320C320B32000E0B14056E000E79
:106D72000C14066E000E0D14076EFE0E0E14086E35
:106D82000550061007100810D8A4CAEF36F0CCEF51
:106D920036F0AFEF36F0DAEF36F00A2A010E0B26A4
:106DA200000E0C220D220E22D8900E320D320C3221
:106DB2000B32000E0B14056E000E0C14066E000E44
:106DC2000D14076EFF0E0E14086E05500610071004
:106DD2000810D8A4EFEF36F0F1EF36F0CEEF36F030
:106DE200F9EF36F00A06D8900B360C360D360E3611
:106DF2000DBEFEEF36F000EF37F008EF37F0020E6F
:106E02000A6006EF37F008EF37F0F3EF36F00AB01A
:106E12000DEF37F00FEF37F010EF37F00D9ED890EF
:106E22000A320AC505F5066A076A086A05C508F541
:106E3200076A066A056A05500B1206500C120750C3
:106E42000D1208500E120950D8B42AEF37F02CEF69
:106E520037F034EF37F004BE33EF37F031EF37F06D
:106E620034EF37F00E8E0BC501F50CC502F50DC5DA
:106E720003F50EC504F5120054C61DF555C61EF5E0
:106E820056C61FF557C620F5EDC615F5EEC616F522
:106E9200EFC617F5F0C618F5F1C611F5F2C612F5F0
:106EA200F3C613F5F4C614F5D5EC48F011C519F57F
:106EB20012C51AF513C51BF514C51CF5E3EC26F033
:106EC20019C557F51AC558F51BC559F51CC55AF50C
:106ED20057C501F558C502F559C503F55AC504F55C
:106EE200EDC605F5EEC606F5EFC607F5F0C608F5E0
:106EF20074EC22F001C54FF502C550F503C551F5FA
:106F020004C552F5F1C615F5F2C616F5F3C617F526
:106F1200F4C618F5F5C611F5F6C612F5F7C613F55F
:106F2200F8C614F5D5EC48F011C51DF512C51EF5CD
:106F320013C51FF514C520F554C615F555C616F52B
:106F420056C617F557C618F5000E116E000E126ED2
:106F5200800E136E3F0E146ED5EC48F011C519F574
:106F620012C51AF513C51BF514C51CF5E3EC26F082
:106F720019C557F51AC558F51BC559F51CC55AF55B
:106F820057C501F558C502F559C503F55AC504F5AB
:106F9200F1C605F5F2C606F5F3C607F5F4C608F51F
:106FA20074EC22F001C553F502C554F503C555F53D
:106FB20004C556F553C505F554C506F555C507F57F
:106FC20056C508F54FC501F550C502F551C503F583
:106FD20052C504F574EC22F001C532F502C533F551
:106FE20003C534F504C535F5000E366E000E376E56
:106FF200000E386E400E396EC5EC2CF032C54BF5E2
:1070020033C54CF534C54DF535C54EF51200FAC4FD
:1070120068F5FBC469F5A1AE11EF38F013EF38F053
:107022001EEF38F0B1AE18EF38F01AEF38F01EEF5D
:1070320038F018EC49F0A8EF38F0A2A223EF38F0AC
:1070420025EF38F03CEF38F0B2A22AEF38F02CEFFF
:1070520038F03CEF38F002D83AEF38F00500FA6E1B
:107062000601E151FD6EE251FE6EE351FF6EFA50F0
:107072001200A8EF38F0A2A041EF38F043EF38F049
:107082005AEF38F0B2A048EF38F04AEF38F05AEF32
:1070920038F002D858EF38F00500FA6E0601DE51DA
:1070A200FD6EDF51FE6EE051FF6EFA501200A8EF46
:1070B20038F09FA45FEF38F061EF38F06CEF38F0F2
:1070C200AFA466EF38F068EF38F06CEF38F0F4EC0C
:1070D2004AF0A8EF38F0A0A071EF38F073EF38F063
:1070E2007EEF38F0B0A078EF38F07AEF38F07EEF2C
:1070F20038F0F2EC4AF0A8EF38F09EAE83EF38F0A9
:1071020085EF38F0A8EF38F0AEAE8AEF38F08CEFAA
:1071120038F0A8EF38F0040107A392EF38F094EFAB
:1071220038F0A8EF38F00793CEA49AEF38F09CEF2E
:1071320038F0A1EF38F00601B94BBA2BA5EF38F0C1
:107142000601B907D8A0BA07AE9EA8EF38F069C504
:10715200FBF468C5FAF411005F50020D000EF3242F
:10716200D96E060EF420DA6EDE6ADD6A0201B2A77B
:10717200BDEF38F0BFEF38F0E0EF38F05F50020DAE
:10718200000EF324D96E060EF420DA6E0601DF82B9
:10719200975198119911D8B4D1EF38F0D3EF38F054
:1071A200E0EF38F002D8E0EF38F00500FA6E9751C0
:1071B200FD6E9851FE6E9951FF6EFA501200020157
:1071C200B2A3E6EF38F0E8EF38F009EF39F05F509C
:1071D200020D000EF324D96E060EF420DA6E0601BB
:1071E200DF84945195119611D8B4FAEF38F0FCEF80
:1071F20038F009EF39F002D809EF39F00500FA6EDC
:107202009451FD6E9551FE6E9651FF6EFA5012002A
:107212000201B2AD0FEF39F011EF39F032EF39F070
:107222005F50020D000EF324D96E060EF420DA6EC2
:107232000601DF80915192119311D8B423EF39F0F6
:1072420025EF39F032EF39F002D832EF39F005008C
:10725200FA6E9151FD6E9251FE6E9351FF6EFA508D
:107262001200A1C201F55F28070B026E0501F15160
:107272000218D8A43FEF39F041EF39F043EF39F06B
:107282004EEF39F0000E5F24D96EDA6A070EDA2269
:1072920001C5DFF402C55FF5F02B120076EC4AF06F
:1072A200A7EC4AF0D68E020E05016A6F690E6B6F6B
:1072B200000E6C6FAFEC4AF0EBEC4AF0EEEC4AF0E9
:1072C200C090000E0501726F080E736F000E756F8D
:1072D2000B0E746F66EC4AF091EC4AF0E806D8A403
:1072E20075EF39F077EF39F0B2EF39F0000E0501A2
:1072F2006C6F080E6D6F000E6F6F0B0E6E6F9FEC52
:1073020041F0B10E0601C66F000EC76F080EC86FBE
:107312000DEC4AF0000E0501E66F080EE76FDC0E79
:10732200E86FC40EE96F060EEA6F1CEC48F0050127
:10733200E605E711D8A4A0EF39F0A2EF39F0ADEFDE
:1073420039F0BF0E0601C66FC4C6C7F6C5C6C8F679
:107352000DEC4AF0B2EF39F0950E0601C66F0DEC56
:107362004AF0490E0601C66FB9C6C7F6BAC6C8F6D4
:10737200C4C6C9F6C5C6CAF6B3C6CBF6B4C6CCF601
:1073820080C6CDF681C6CEF682C6CFF683C6D0F6CB
:10739200C0C6D1F6C1C6D2F6C2C6D3F6C3C6D4F6AB
:1073A20084C6D5F685C6D6F686C6D7F687C6D8F67B
:1073B2000DEC4AF0030E0601DA6F080ED96F770E54
:1073C200E82EFED7D92FFCD7DA2FFAD761EF39F0A2
:1073D2000DEF00F00501ECBFF1EF39F0F3EF39F0FA
:1073E200F5EF39F00601BB930501ECBFFDEF39F073
:1073F200FBEF39F003EF3AF0000E8B6F010E8A6F4C
:1074020007EF3AF0EBC58AF5ECC58BF5A9C68CF50A
:10741200AAC68DF5000E8F6F4F0E8E6F07015F6B40
:107422003FEF3AF005018E07D8A08F07100E8E2588
:10743200D96E070E8F21DA6E88C56AF589C56BF59C
:10744200000E6D6F0A0E6C6FE5EC46F005016A5195
:10745200300FDF6E8A07D8A08B078C07D8A08D0764
:1074620088C56AF589C56BF5000E6D6F0A0E6C6FE3
:10747200FDEC45F06AC588F56BC589F505018E51AD
:107482008F11D8B447EF3AF049EF3AF074EF3AF07F
:1074920088518911D8A450EF3AF052EF3AF013EF25
:1074A2003AF08BBF5FEF3AF08B5106E18A05D8B014
:1074B2005DEF3AF05FEF3AF013EF3AF08DBF6AEF0B
:1074C2003AF08D5108E18C05D8A06AEF3AF06CEFE2
:1074D2003AF074EF3AF00601BBB372EF3AF074EF90
:1074E2003AF013EF3AF086C57DF587C57EF5100EAA
:1074F20005018E257F6F070E8F21806F8CC581F568
:107502008DC582F5ACEC46F0120005016F51701189
:10751200D8A48EEF3AF090EF3AF0AEEF3AF0EF5196
:10752200D8A496EF3AF098EF3AF0A0EF3AF0FBECDD
:1075320049F06CC576F56DC577F510EF3BF0EF07B6
:10754200880EEF25D96EDA6A060EDA22DF50716FE5
:107552007151766F776B10EF3BF020EE07F06F51B1
:10756200D9267051DA22DE50DE10D8B4BBEF3AF0E1
:10757200BDEF3AF0DDEF3AF020EE07F06F51D92679
:107582007051DA22DE06000EDD5ADEC471F5DDC46A
:1075920072F571516F25736F72517021746F040E01
:1075A2007325D96E000E7421DA6EDF50756F755136
:1075B200766F776B10EF3BF020EE02F06F51D92619
:1075C2007051DA22DEC471F5DDC472F56FC5D9F4EB
:1075D20070C5DAF4DEC473F5DDC474F57151732538
:1075E200D96E72517421DA6EDF50756F7551766FF4
:1075F200776B76517711D8A401EF3BF003EF3BF0A4
:1076020007EF3BF07669776910EF3BF020EE02F06E
:107612006F51D9267051DA22DE2A000EDD2276C59C
:107622006FF577C570F512000FC501F510C502F5AB
:1076320011C503F512C504F5CEEC3FF0015002105E
:10764200D8A426EF3BF028EF3BF032EF3BF013C516
:107652000FF514C510F515C511F516C512F5A3EFF2
:107662003BF013C501F514C502F515C503F516C5A2
:1076720004F5CEEC3FF001500210D8A443EF3BF0EA
:1076820045EF3BF04FEF3BF00FC50FF510C510F57E
:1076920011C511F512C512F5A3EF3BF00FC501F5A7
:1076A20010C502F511C503F512C504F5F4EC47F057
:1076B20001C517F502C518F513C501F514C502F584
:1076C20015C503F516C504F5F4EC47F0015017187B
:1076D20009E102501818D8B471EF3BF073EF3BF098
:1076E20088EF3BF00FC501F510C502F511C503F592
:1076F20012C504F5F4EC47F001500210D8A484EF4F
:107702003BF086EF3BF045EF3BF028EF3BF00FC537
:1077120001F510C502F511C503F512C504F513C52F
:1077220005F514C506F515C507F516C508F5CCEC23
:107732003EF0D8A09FEF3BF0A1EF3BF045EF3BF0CE
:1077420028EF3BF012000FC501F510C502F511C577
:1077520003F512C504F5CEEC3FF001500210D8A497
:10776200B5EF3BF0B7EF3BF0C1EF3BF013C50FF5C0
:1077720014C510F515C511F516C512F532EF3CF01A
:1077820013C501F514C502F515C503F516C504F5B3
:10779200CEEC3FF001500210D8A4D2EF3BF0D4EF70
:1077A2003BF0DEEF3BF00FC50FF510C510F511C52C
:1077B20011F512C512F532EF3CF00FC501F510C5F7
:1077C20002F511C503F512C504F5F4EC47F001C545
:1077D20017F502C518F513C501F514C502F515C54F
:1077E20003F516C504F5F4EC47F00150171809E14A
:1077F20002501818D8B400EF3CF002EF3CF017EF3B
:107802003CF00FC501F510C502F511C503F512C50F
:1078120004F5F4EC47F001500210D8A413EF3CF049
:1078220015EF3CF0B7EF3BF0D4EF3BF00FC501F59D
:1078320010C502F511C503F512C504F513C505F50A
:1078420014C506F515C507F516C508F5CCEC3EF0CE
:10785200D8A02EEF3CF030EF3CF0B7EF3BF0D4EF86
:107862003BF0120078C57EF579C57FF505017E51A2
:107872007F11D8A43FEF3CF041EF3CF047EF3CF0E2
:10788200CD0E7E6F7E51D8A4260E7F6F000E816FC3
:10789200000E806F50EF3CF00501804B812B805130
:1078A2007E257A6F81517F217B6F7AC5F6F47BC585
:1078B200F7F4000EF86E250EF76403D00800F550B9
:1078C20005D0F6C4E9F4F7C4EAF4EF500009D8A4ED
:1078D2006DEF3CF06FEF3CF04DEF3CF00501ECBF7B
:1078E20075EF3CF077EF3CF08AEF3CF08051EB5DB6
:1078F200EC51800A7A6F8151800A7A59D8B084EFAC
:107902003CF086EF3CF08AEF3CF0EBC580F5ECC52D
:1079120081F580C57CF581C57DF5AFEF3CF07EC574
:10792200F6F47FC5F7F4000EF86E250EF76403D067
:107932000800F55005D0F6C4E9F4F7C4EAF4EF50B4
:1079420005017A6F7A516D6F6E6B76C56FF577C5EB
:1079520070F507EC42F005017E4B7F2B7C07D8A027
:107962007D077C2906E17D29D8A4BAEF3CF0BCEF63
:107972003CF090EF3CF0120098C715F599C716F548
:107982009AC717F59BC718F59CC711F59DC712F545
:107992009EC713F59FC714F5D5EC48F011C51DF528
:1079A20012C51EF513C51FF514C520F558C615F5E9
:1079B20059C616F55AC617F55BC618F5000E116EB4
:1079C200000E126E800E136E3F0E146ED5EC48F050
:1079D20011C519F512C51AF513C51BF514C51CF509
:1079E200E3EC26F019C54FF51AC550F51BC551F544
:1079F2001CC552F598C705F599C706F59AC707F54C
:107A02009BC708F54FC501F550C502F551C503F5F1
:107A120052C504F574EC22F001C553F502C554F5C4
:107A220003C555F504C556F594C705F595C706F582
:107A320096C707F597C708F553C501F554C502F572
:107A420055C503F556C504F574EC22F001C532F5AF
:107A520002C533F503C534F504C535F5000E366E9F
:107A6200000E376E000E386E400E396EC5EC2CF0EB
:107A720032C54BF533C54CF534C54DF535C54EF51C
:107A8200120005016C356D35736F7351D8A44CEF3C
:107A92003DF04EEF3DF058EF3DF0000E6A6F000EE4
:107AA2006B6F000E6C6F000E6D6FC5EF3DF06AC517
:107AB2006EF56BC56FF56CC570F56DC571F5200E71
:107AC20068EF3DF0D890713370336F336E33E82E28
:107AD20063EF3DF06E51726F6C8FFF0E6A17FF0EEF
:107AE2006B17FF0E6C17000E6D17960E735F73BF48
:107AF2007FEF3DF07DEF3DF095EF3DF07351800A51
:107B0200970FD8B087EF3DF089EF3DF08BEF3DF056
:107B12004EEF3DF0D8906D336C336B336A33733F65
:107B22008BEF3DF0ADEF3DF01F0E73659BEF3DF027
:107B32009DEF3DF0A5EF3DF04EEF3DF0D8906A3756
:107B42006B376C376D3773077351D8A4ABEF3DF0C9
:107B5200ADEF3DF09FEF3DF07251D8B4B3EF3DF081
:107B6200B5EF3DF0BDEF3DF06D1F6C1F6B1F6A6DF1
:107B7200000E6B236C236D236AC56AF56BC56BF52A
:107B82006CC56CF56DC56DF51200000E050183150F
:107B92008B6F000E84158C6F800E85158D6F7F0E96
:107BA20086158E6F8B518C118D118E11D8A4DCEF3E
:107BB2003DF0DEEF3DF0E6EF3DF0000E836F000E8C
:107BC200846F000E856F000E866F000E87158B6F17
:107BD200000E88158C6F800E89158D6F7F0E8A15A9
:107BE2008E6F8B518C118D118E11D8A4FBEF3DF04D
:107BF200FDEF3DF005EF3EF0000E876F000E886F3F
:107C0200000E896F000E8A6F86AF0AEF3EF00CEF0E
:107C12003EF015EF3EF0836D841FD8B0842B851F94
:107C2200D8B0852B800E86578AAF1AEF3EF01CEF34
:107C32003EF025EF3EF0876D881FD8B0882B891F54
:107C4200D8B0892B800E8A57000E831B000E841B2E
:107C5200000E851B800E861B000E871B000E881BE4
:107C6200000E891B800E8A1B8751835D88518459BF
:107C7200895185598A518659D8B042EF3EF044EF76
:107C82003EF047EF3EF0D89048EF3EF0D880120029
:107C9200033404340A6E0A50D8A452EF3EF054EF73
:107CA2003EF05EEF3EF0000E016E000E026E000E20
:107CB200036E000E046ECBEF3EF001C505F502C562
:107CC20006F503C507F504C508F5200E6EEF3EF074
:107CD200D8900832073206320532E82E69EF3EF0BC
:107CE2000550096E038EFF0E0116FF0E0216FF0EDF
:107CF2000316000E0416960E0A5E0ABE85EF3EF0CB
:107D020083EF3EF09BEF3EF00A50800A970FD8B007
:107D12008DEF3EF08FEF3EF091EF3EF054EF3EF0EC
:107D2200D89004320332023201320A3E91EF3EF021
:107D3200B3EF3EF01F0E0A64A1EF3EF0A3EF3EF058
:107D4200ABEF3EF054EF3EF0D890013602360336E8
:107D520004360A060A50D8A4B1EF3EF0B3EF3EF063
:107D6200A5EF3EF00950D8B4B9EF3EF0BBEF3EF0BC
:107D7200C3EF3EF0041E031E021E016C000E02221F
:107D82000322042201C501F502C502F503C503F56C
:107D920004C504F51200000E0114096E000E02144F
:107DA2000A6E800E03140B6E7F0E04140C6E0950C3
:107DB2000A100B100C10D8A4E1EF3EF0E3EF3EF0F6
:107DC200EBEF3EF0000E016E000E026E000E036E2F
:107DD200000E046E000E0514096E000E06140A6EE3
:107DE200800E07140B6E7F0E08140C6E09500A10D9
:107DF2000B100C10D8A400EF3FF002EF3FF00AEF97
:107E02003FF0000E056E000E066E000E076E000EAD
:107E1200086E04AE0FEF3FF011EF3FF01AEF3FF0A4
:107E2200016C021ED8B0022A031ED8B0032A800EAB
:107E3200045608AE1FEF3FF021EF3FF02AEF3FF06C
:107E4200056C061ED8B0062A071ED8B0072A800E77
:107E52000856000E011A000E021A000E031A800EB6
:107E6200041A000E051A000E061A000E071A800EDA
:107E7200081A0550015C0650025807500358085072
:107E82000458D8B047EF3FF049EF3FF04CEF3FF0D6
:107E9200D8904DEF3FF0D880120018C674F519C67D
:107EA20075F51AC676F51BC677F56AC574F56BC506
:107EB20075F56CC576F56DC577F574C56EF575C546
:107EC2006FF576C570F577C571F5180E6FEF3FF057
:107ED2000501D890713370336F336E33E82E69EF3A
:107EE2003FF06E51726F736B72517311D8A47CEFB5
:107EF2003FF07EEF3FF09EEF3FF0D89074356E6F0B
:107F020075356F6F7635706F7735716F6E516F1192
:107F120070117111D8A490EF3FF092EF3FF098EFFB
:107F22003FF0000E6B6F020E6A6FCDEF3FF0000E56
:107F32006B6F030E6A6FCDEF3FF072297311D8A4F5
:107F4200A5EF3FF0A7EF3FF0C9EF3FF074C56EF524
:107F520075C56FF576C570F577C571F5090ED890C0
:107F62006E376F3770377137E82EB0EF3FF06E51D2
:107F72006F1170117111D8B4C1EF3FF0C4EF3FF02F
:107F8200010EC5EF3FF0000E6A6F6B6BCDEF3FF055
:107F9200000E6B6F040E6A6F120018C60BF519C63D
:107FA2000CF51AC60DF51BC60EF501C50BF502C57B
:107FB2000CF503C50DF504C50EF50BC505F50CC58D
:107FC20006F50DC507F50EC508F5180EEEEF3FF0E4
:107FD200D8900832073206320532E82EE9EF3FF038
:107FE2000550096E0A6A09500A10D8A4FBEF3FF047
:107FF200FDEF3FF01DEF40F0D8900B34056E0C34CE
:10800200066E0D34076E0E34086E0550061007100A
:108012000810D8A40FEF40F011EF40F017EF40F036
:10802200000E026E020E016E4CEF40F0000E026E68
:10803200030E016E4CEF40F009280A10D8A424EF79
:1080420040F026EF40F048EF40F00BC505F50CC5B7
:1080520006F50DC507F50EC508F5090ED8900536CB
:10806200063607360836E82E2FEF40F00550061088
:1080720007100810D8B440EF40F043EF40F0010E73
:1080820044EF40F0000E016E026A4CEF40F0000E29
:10809200026E040E016E120050C61DF551C61EF589
:1080A20052C61FF553C620F580C715F581C716F5D0
:1080B20082C717F583C718F584C711F585C712F56E
