:040000000DEF00F010
:04000800EEEF33F0F4
:06001800FF0038EF41F08B
:1026000000E47A000000004E84000681001C860071
:102610000486000000000000000000000000000030
:1026200000000000000000000000000000000000AA
:102630000000000000000000000000000080850095
:102640005C850038850000000074686574613A207C
:1026500025642020736574706F696E743A25642058
:10266000656E636F6465723A202564206572726FCF
:10267000723A2025302E3266206C6579436F6E7475
:10268000726F6C3A20252E32662070776D44757417
:10269000793A20252E3266206469723A2025752009
:1026A0000A0D004572726F7220616C206C65657254
:1026B00020656C20736574706F696E742E0A005209
:1026C0006563696269646F3A2025730A0061646317
:1026D00056616C75653A2025750A00286E756C6C1C
:0F26E0002900696E66006E616E00256875000046
:1026F0000501C36B9BC5C4F59CC5C5F59DC5C6F555
:102700009EC5C7F5C7BF89EF13F087EF13F09DEFA4
:1027100013F0010EC36FC4C56CF5C5C56DF5C6C514
:102720006EF5C7C56FF599EC41F06CC5C4F56DC584
:10273000C5F56EC5C6F56FC5C7F5000E0501C96FB5
:10274000000EC86FE3C5B7F5E4C5B8F5C351D8B4FA
:10275000ACEF13F0AEEF13F0C2EF13F0C351D8A4F7
:10276000B4EF13F0B6EF13F0BCEF13F0000EA96F47
:102770002B0EA86FC0EF13F0000EA96F2D0EA86FDF
:10278000A8C5C3F5C4C56CF5C5C56DF5C6C56EF560
:10279000C7C56FF57BEC39F005016C056D11D8A448
:1027A000D4EF13F0D6EF13F006EF14F0C351D8B402
:1027B000DCEF13F0DEEF13F0E7EF13F0C3C500F723
:1027C000B707D8A0B807000EC96F010EC86F000E7A
:1027D000C8256C6F070EC9216D6FE20E6E6F5AEC43
:1027E00041F00501FD0EB727FF0EB82399C57FF50F
:1027F0009AC580F5000E816F070E826FB7C583F50D
:10280000B8C584F514EC3FF0A6EF18F0C4C56CF51C
:10281000C5C56DF5C6C56EF5C7C56FF57BEC39F05E
:1028200005016C516D11D8A418EF14F01AEF14F0D3
:1028300037EF14F0C351D8B420EF14F022EF14F0A6
:102840002BEF14F0C3C500F7B707D8A0B807000EE8
:10285000C96F010EC86F000EC8256C6F070EC92125
:102860006D6FE60E6E6F5AEC41F0F1EF13F0000E53
:10287000CA6F000ECB6F800ECC6F3F0ECD6F000E77
:10288000B26F000EB16FC4C56CF5C5C56DF5C6C598
:102890006EF5C7C56FF5000E706F000E716F000EFC
:1028A000726F000E736F1CEC3DF00501D8B05BEF4A
:1028B00014F05DEF14F03FEF15F069EF14F0B3C5BD
:1028C000CAF5B4C5CBF5B5C5CCF5B6C5CDF5B14B9C
:1028D000B22BCAC56CF5CBC56DF5CCC56EF5CDC5B3
:1028E0006FF5000E706F000E716F200E726F410E4B
:1028F000736FE0EC24F06CC5B3F56DC5B4F56EC52F
:10290000B5F56FC5B6F50501B351C45D6C6FB45133
:10291000C5596D6FB551C6596E6FB651C7596F6FB6
:10292000DEEC3FF005016FBFA1EF14F06F516E11A7
:102930006D1109E1020E6C5DD8A0A1EF14F0A3EFB8
:1029400014F05FEF14F0B3C585F5B4C586F5B5C5D1
:1029500087F5B6C588F5C4C589F5C5C58AF5C6C568
:102960008BF5C7C58CF5F3EC37F00501D8A0BBEFAC
:1029700014F0BDEF14F05FEF14F0CA51C45D6C6F3A
:10298000CB51C5596D6FCC51C6596E6FCD51C759DA
:102990006F6FDEEC3FF005016FBFDCEF14F06F519D
:1029A0006E116D1107E1020E6C5DD8B0DAEF14F014
:1029B000DCEF14F025EF15F0CAC5C4F5CBC5C5F59D
:1029C000CCC5C6F5CDC5C7F53FEF15F0CAC56CF54A
:1029D000CBC56DF5CCC56EF5CDC56FF5000E706F2E
:1029E000000E716F200E726F410E736F0CEC2BF0A6
:1029F0006CC5CAF56DC5CBF56EC5CCF56FC5CDF50B
:102A00000501B107D8A0B207CA51C45D6C6FCB51A4
:102A1000C5596D6FCC51C6596E6FCD51C7596F6F87
:102A2000DEEC3FF005016FBF23EF15F06F516E1123
:102A30006D1107E1020E6C5DD8B021EF15F023EFA8
:102A400015F025EF15F0DCEF14F0C4C585F5C5C50C
:102A500086F5C6C587F5C7C588F5CAC589F5CBC54E
:102A60008AF5CCC58BF5CDC58CF5F3EC37F00501B7
:102A7000D8A03DEF15F03FEF15F0E6EF14F09FC53D
:102A8000ABF5ABC5ACF5E6BF48EF15F04AEF15F076
:102A900050EF15F0E5C5A4F5E6C5A5F554EF15F022
:102AA000000EA56F060EA46FA4C5AFF5A5C5B0F5C1
:102AB000AF4BB02B660EAC19D8A461EF15F063EFE5
:102AC00015F083EF15F0B2BF6AEF15F068EF15F05F
:102AD00076EF15F0000ECA6F000ECB6F800ECC6F34
:102AE0003F0ECD6F000EB26F000EB16F670EAB19C7
:102AF000D8B47DEF15F07FEF15F083EF15F0B151ED
:102B0000AF27B251B023000EC26F000EC16FC4C513
:102B1000B9F5C5C5BAF5C6C5BBF5C7C5BCF5CAC5C7
:102B2000B3F5CBC5B4F5CCC5B5F5CDC5B6F515EF48
:102B300016F0B9C56CF5BAC56DF5BBC56EF5BCC56B
:102B40006FF5CAC570F5CBC571F5CCC572F5CDC5AD
:102B500073F50CEC2BF06CC585F56DC586F56EC56F
:102B600087F56FC588F5B5EC2FF085C5BDF586C531
:102B7000BEF587C5BFF588C5C0F5BDC56CF5BEC53A
:102B80006DF5BFC56EF5C0C56FF56FEC37F06CC560
:102B9000ADF56DC5AEF5B9C585F5BAC586F5BBC54C
:102BA00087F5BCC588F5BDC570F5BEC571F5BFC557
:102BB00072F5C0C573F5CAC56CF5CBC56DF5CCC54E
:102BC0006EF5CDC56FF5E0EC24F06CC589F56DC5EB
:102BD0008AF56EC58BF56FC58CF5AAEC40F085C5FE
:102BE000B9F586C5BAF587C5BBF588C5BCF5CAC5B4
:102BF0006CF5CBC56DF5CCC56EF5CDC56FF5000E8A
:102C00000501706F000E716F200E726F410E736FB1
:102C10000CEC2BF06CC5CAF56DC5CBF56EC5CCF5CB
:102C20006FC5CDF50501C14BC22BAF51C15DC2517E
:102C3000800AA06FB051800AA059D8A022EF16F0E8
:102C400024EF16F099EF15F0CAC56CF5CBC56DF5FC
:102C5000CCC56EF5CDC56FF5000E706F000E716FAF
:102C6000A00E726F400E736FE0EC24F06CC5BDF5E2
:102C70006DC5BEF56EC5BFF56FC5C0F5B9C585F5A7
:102C8000BAC586F5BBC587F5BCC588F5BDC589F550
:102C9000BEC58AF5BFC58BF5C0C58CF5F3EC37F022
:102CA0000501D8B056EF16F058EF16F062EF16F0A7
:102CB000000EBD6F000EBE6F000EBF6F000EC06F26
:102CC0008BEF16F0B9C56CF5BAC56DF5BBC56EF5E1
:102CD000BCC56FF5BDC570F5BEC571F5BFC572F554
:102CE000C0C573F51CEC3DF00501D8A07AEF16F0D5
:102CF0007CEF16F08BEF16F0ADB181EF16F083EF9D
:102D000016F08BEF16F0000EBD6F000EBE6F000EBA
:102D1000BF6F000EC06FC4C56CF5C5C56DF5C6C5E7
:102D20006EF5C7C56FF5BDC570F5BEC571F5BFC5FC
:102D300072F5C0C573F529EC20F06CC5B9F56DC509
:102D4000BAF56EC5BBF56FC5BCF5B9C585F5BAC595
:102D500086F5BBC587F5BCC588F5000E0501706F0B
:102D6000000E716F200E726F410E736FB3C56CF55C
:102D7000B4C56DF5B5C56EF5B6C56FF5E0EC24F0DC
:102D80006CC589F56DC58AF56EC58BF56FC58CF57B
:102D9000F3EC37F00501D8A0D0EF16F0D2EF16F023
:102DA000FAEF16F0B14BB22BB3C56CF5B4C56DF5A7
:102DB000B5C56EF5B6C56FF5000E706F000E716F7C
:102DC000200E726F410E736FE0EC24F06CC5B3F50A
:102DD0006DC5B4F56EC5B5F56FC5B6F5660E0501E2
:102DE000AC19D8A4F6EF16F0F8EF16F0FAEF16F0DB
:102DF000AF4BB02BB3C5CAF5B4C5CBF5B5C5CCF553
:102E0000B6C5CDF5B1C5A2F5B2C5A3F5AA6B000E46
:102E1000A76F000EA66F000EC26F000EC16FF7EF16
:102E200017F0B9C56CF5BAC56DF5BBC56EF5BCC577
:102E30006FF5CAC570F5CBC571F5CCC572F5CDC5BA
:102E400073F50CEC2BF06CC585F56DC586F56EC57C
:102E500087F56FC588F5B5EC2FF085C5BDF586C53E
:102E6000BEF587C5BFF588C5C0F5BDC56CF5BEC547
:102E70006DF5BFC56EF5C0C56FF56FEC37F0050198
:102E80006DBF4EEF17F06D5107E10A0E6C5DD8B0C3
:102E90004CEF17F04EEF17F05EEF17F0BDC56CF575
:102EA000BEC56DF5BFC56EF5C0C56FF56FEC37F0EB
:102EB0006CC5ADF56DC5AEF562EF17F0000EAE6FE7
:102EC000090EAD6F0501AA51D8A469EF17F06BEF99
:102ED00017F093EF17F0A3BF72EF17F070EF17F032
:102EE00093EF17F0000EC825D96E070EC921DA6ED0
:102EF0002E0EDF6EC84BC92BB707D8A0B807010E3E
:102F0000AA6F93EF17F0000EC825D96E070EC921DE
:102F1000DA6E300EDF6EC84BC92BB707D8A0B807E2
:102F2000A607D8A0A707A651A711D8A49AEF17F013
:102F30009CEF17F083EF17F0000EC825D96E070E2F
:102F4000C921DA6EAD51300FDF6EC84BC92BB70700
:102F5000D8A0B807B9C585F5BAC586F5BBC587F54C
:102F6000BCC588F5BDC570F5BEC571F5BFC572F5A8
:102F7000C0C573F5CAC56CF5CBC56DF5CCC56EF58E
:102F8000CDC56FF5E0EC24F06CC589F56DC58AF50B
:102F90006EC58BF56FC58CF5AAEC40F085C5B9F50B
:102FA00086C5BAF587C5BBF588C5BCF5CAC56CF53D
:102FB000CBC56DF5CCC56EF5CDC56FF5000E050121
:102FC000706F000E716F200E726F410E736F0CECFC
:102FD0002BF06CC5CAF56DC5CBF56EC5CCF56FC5CC
:102FE000CDF50501A207D8A0A307C14BC22BAF5155
:102FF000C15DC251800AA06FB051800AA059D8B0FB
:1030000004EF18F006EF18F014EF18F0C9BF12EF34
:1030100018F0C95109E14B0EC85DD8A012EF18F0A5
:1030200014EF18F011EF17F0000EC26F4F0EC16FC2
:10303000000EC125D96E070EC221DA6EDF6A000EBE
:10304000A06F070EA16FC851A05FC951A15BC1510C
:10305000A0256C6FC251A1216D6F000E6E6F070E1F
:103060006F6FC8C570F5C9C571F533EC40F0050147
:10307000C851C15DC86FC951C259C96FC351D8A4E5
:1030800044EF18F047EF18F0010E48EF18F0000E6B
:10309000C16FC26BEDA34FEF18F051EF18F07FEF47
:1030A00018F061EF18F0C807D8A0C907000EC825AE
:1030B000D96E070EC921DA6E300EDF6EB707D8A0C1
:1030C000B807B751C15DC251800AA06FB851800ADC
:1030D000A059D8B06EEF18F070EF18F07FEF18F02D
:1030E000C851C15DC251800AA06FC951800AA05960
:1030F000D8A07DEF18F07FEF18F053EF18F0C35110
:10310000D8B485EF18F087EF18F092EF18F0C807E1
:10311000D8A0C907000EC825D96E070EC921DA6EDE
:10312000C3C5DFF4C151B75FC251B85B99C57FF524
:103130009AC580F5000EC825816F070EC921826FE0
:10314000B7C583F5B8C584F514EC3FF0120005014E
:10315000A86B21EEA9F1070EDE6AE806FDE284C540
:10316000B1F585C5B2F589BFC1EF18F0895107E106
:10317000250E885DD8B0BFEF18F0C1EF18F0CAEF88
:1031800018F088058911D8A4C8EF18F0CAEF18F014
:10319000D0EF18F0000EEA6F160EE96F31EF1BF05A
:1031A000B151B211D8B4D7EF18F0D9EF18F031EF10
:1031B0001BF0B1C5D9F4B2C5DAF4DF50D8A4E3EFFF
:1031C00018F0E5EF18F0E7EF18F031EF1BF0B1C59C
:1031D000D9F4B2C5DAF4DF50B36FF7EF18F0B14BA2
:1031E000B22BB1C5D9F4B2C5DAF4DF50B36F200EFB
:1031F000B319D8B4FEEF18F000EF19F0EFEF18F0A4
:10320000B3C58CF5F70E8C27040E8C650AEF19F008
:103210000CEF19F0EFEF18F02D0EB319D8A413EF3F
:1032200019F015EF19F020EF19F0A881B14BB22B6E
:10323000B1C5D9F4B2C5DAF4DF50B36F2BEF19F092
:103240002B0EB319D8A427EF19F029EF19F02BEFA3
:1032500019F016EF19F0300EB319D8A432EF19F0A7
:1032600034EF19F0CDEF19F0B14BB22BB1C5D9F451
:10327000B2C5DAF4DF50B36F88518911D8B443EF87
:1032800019F045EF19F04FEF19F0100E8819891158
:10329000D8A44DEF19F04FEF19F0BFEF19F0780EE9
:1032A000B319D8B456EF19F058EF19F061EF19F0CF
:1032B000580EB319D8A45FEF19F061EF19F0BFEF02
:1032C00019F0000E896F100E886FB14BB22BB1C58B
:1032D000D9F4B2C5DAF4DF50B36FB3C58CF5200E64
:1032E0008C139F0E8C271A0E8C6179EF19F07BEFEF
:1032F00019F09FEF19F0B3C58CF59F0E8C27190EAE
:103300008C6585EF19F087EF19F08CEF19F0B3C5D4
:103310009CF59D6B93EF19F0B3C58CF55F0E8C1780
:103320008C519C6F9D6B9CC58CF5C90E8C27100E23
:103330008C619DEF19F09FEF19F0B9EF19F0B3C54B
:103340008CF5200E8C139F0E8C27190E8C65ABEF1D
:1033500019F0ADEF19F0CDEF19F0B3C58CF5D00E23
:103360008C27090E8C65B7EF19F0B9EF19F0CDEF86
:1033700019F0A885B107D8A0B20731EF1BF0A885D6
:1033800088518911D8A4C7EF19F0C9EF19F0CDEF12
:1033900019F0000E896F080E886F88518911D8A422
:1033A000D4EF19F0D6EF19F0DAEF19F0000E896FAB
:1033B0000A0E886F8A51D8B4E0EF19F0E2EF19F0E5
:1033C0000DEF1AF0A8B1E7EF19F0E9EF19F0FBEFF4
:1033D00019F0FF0EA06FFF0EA16FFF0EA26FFF0E80
:1033E000A36FFF0EA46FFF0EA56FFF0EA66F7F0EDB
:1033F000A76F15EF1AF0000EA06F000EA16F000E60
:10340000A26F000EA36F000EA46F000EA56F000E3A
:10341000A66F800EA76F15EF1AF0A069A169A269C7
:10342000A369A469A569A669A769A9C594F5AAC5F0
:1034300095F5ABC596F5ACC597F5ADC598F5AEC598
:1034400099F5AFC59AF5B0C59BF5B3C58CF5200EBF
:103450008C139F0E8C271A0E8C6131EF1AF033EF0C
:103460001AF050EF1AF0B3C58CF59F0E8C27190E89
:103470008C653DEF1AF03FEF1AF044EF1AF0B3C538
:103480009EF59F6B4BEF1AF0B3C58CF55F0E8C1752
:103490008C519E6F9F6B9E51C90FB36F5EEF1AF0F8
:1034A000B3C58CF5D00E8C270A0E8C615AEF1AF03A
:1034B0005CEF1AF017EF1BF0300EB35FB3518C6F57
:1034C0008D6B88518C5D8D51800A8E6F8951800A79
:1034D0008E59D8A06EEF1AF070EF1AF072EF1AF052
:1034E00017EF1BF0A8B377EF1AF079EF1AF00CEF93
:1034F0001BF088C56CF589C56DF5000E6DBFFF0E1C
:103500006E6F6F6F706F716F726F736FA9C574F5A7
:10351000AAC575F5ABC576F5ACC577F5ADC578F53B
:10352000AEC579F5AFC57AF5B0C57BF515EC3EF0C3
:103530006CC58CF56DC58DF56EC58EF56FC58FF5B7
:1035400070C590F571C591F572C592F573C593F587
:103550000501B3518C25A96F000E8D21AA6F000EB5
:103560008E21AB6F000E8F21AC6F000E9021AD6FDE
:10357000000E9121AE6F000E9221AF6F000E9321CD
:10358000B06F9451A95D9551AA599651AB59975175
:10359000AC599851AD599951AE599A51AF599B5167
:1035A000B059D8A0D6EF1AF0D8EF1AF0F7EF1AF00A
:1035B0008A51D8B4DEEF1AF0E0EF1AF00CEF1BF0EE
:1035C000A951A05DAA51A159AB51A259AC51A3591F
:1035D000AD51A459AE51A559AF51A659B051A759F3
:1035E000D8B0F5EF1AF0F7EF1AF00CEF1BF0A0C50A
:1035F000A9F5A1C5AAF5A2C5ABF5A3C5ACF5A4C5AF
:10360000ADF5A5C5AEF5A6C5AFF5A7C5B0F5000EDD
:10361000EA6F220EE96FA883B14BB22BB1C5D9F482
:10362000B2C5DAF4DF50B36FA88515EF1AF0A851D0
:10363000030BE806D8A41FEF1BF021EF1BF031EFBE
:103640001BF0B01FAF1FAE1FAD1FAC1FAB1FAA1FDB
:10365000A96D000EAA23AB23AC23AD23AE23AF2369
:10366000B02386518711D8B438EF1BF03AEF1BF026
:103670004DEF1BF0A8B53FEF1BF041EF1BF045EFFE
:103680001BF084C5B1F585C5B2F586C5D9F487C5EB
:10369000DAF4B1C5DEF4B2C5DDF4A9C584F5AAC576
:1036A00085F5ABC586F5ACC587F5ADC588F5AEC566
:1036B00089F5AFC58AF5B0C58BF5120020EE0CF088
:1036C0004B50D9264C50DA2210EE10F04B50E12628
:1036D0004C50E222DEC4E6F4DEC4E6F4DEC4E6F4D6
:1036E000DEC4E6F44DC52AF54EC52BF54FC52CF5C5
:1036F00050C52DF551C52EF552C52FF553C530F5E2
:1037000054C531F515EC41F020EE0CF04B50D926A4
:103710004C50DA222AC5DEF42BC5DEF42CC5DEF4CB
:103720002DC5DEF44BC5D9F44CC5DAF4DEC401F581
:10373000DEC402F5DEC403F5DEC404F520EE0CF0B1
:103740004B50D9264C50DA22DEC405F5DEC406F50E
:10375000DEC407F5DEC408F5F4EC26F001C564F517
:1037600002C565F503C566F504C567F520EE0CF0E6
:103770004B50D9264C50DA22DEC405F5DEC406F5DE
:10378000DEC407F5DEC408F520EE04F04B50D92660
:103790004C50DA22DEC401F5DEC402F5DEC403F5C6
:1037A000DEC404F5F4EC26F001C560F502C561F550
:1037B00003C562F504C563F520EE14F04B50D9261D
:1037C0004C50DA22DEC41AF5DEC41BF5DEC41CF54B
:1037D000DEC41DF520EE24F04B50D9264C50DA22E1
:1037E000DEC405F5DEC406F5DEC407F5DEC408F563
:1037F00060C501F561C502F562C503F563C504F551
:10380000F4EC26F001C51EF502C51FF503C520F531
:1038100004C521F585EC22F020EE14F04B50D9269A
:103820004C50DA221AC5DEF41BC5DEF41CC5DEF4EA
:103830001DC5DEF420EE08F04B50D9264C50DA229C
:10384000DEC405F5DEC406F5DEC407F5DEC408F502
:1038500020EE10F04B50D9264C50DA22DEC42EF563
:10386000DEC42FF5DEC430F5DEC431F520EE0CF0F9
:103870004B50D9264C50DA22DEC42AF5DEC42BF593
:10388000DEC42CF5DEC42DF515EC41F02AC501F59A
:103890002BC502F52CC503F52DC504F5F4EC26F077
:1038A00001C532F502C533F503C534F504C535F558
:1038B00020EE24F04B50D9264C50DA22DEC436F5E7
:1038C000DEC437F5DEC438F5DEC439F5D5EC2CF0AE
:1038D00020EE18F04B50D9264C50DA2232C5DEF4D7
:1038E00033C5DEF434C5DEF435C5DEF420EE20F059
:1038F0004B50D9264C50DA22DEC405F5DEC406F55D
:10390000DEC407F5DEC408F520EE14F04B50D926CE
:103910004C50DA22DEC409F5DEC40AF5DEC40BF52C
:10392000DEC40CF5F9EC38F0D8B099EF1CF09BEF41
:103930001CF0B1EF1CF020EE20F04B50D9264C507B
:10394000DA2210EE14F04B50E1264C50E222DEC495
:10395000E6F4DEC4E6F4DEC4E6F4DEC4E6F4FEEF2C
:103960001CF020EE14F04B50D9264C50DA22DEC465
:1039700005F5DEC406F5DEC407F5DEC408F520EE65
:1039800020F04B50D9264C50DA22DEC401F5DEC4BB
:1039900002F5DEC403F5DEC404F5F0EC41F001C528
:1039A00009F502C50AF503C50BF504C50CF5F9ECDC
:1039B00038F0D8B0DEEF1CF0E0EF1CF0FEEF1CF0AA
:1039C00020EE20F04B50D9264C50DA22DEC401F50F
:1039D000DEC402F5DEC403F5DEC404F5F0EC41F00C
:1039E00020EE14F04B50D9264C50DA2201C5DEF4FB
:1039F00002C5DEF403C5DEF404C5DEF464C51EF5BD
:103A000065C51FF566C520F567C521F520EE14F0E4
:103A10004B50D9264C50DA22DEC41AF5DEC41BF511
:103A2000DEC41CF5DEC41DF585EC22F01AC568F570
:103A30001BC569F51CC56AF51DC56BF568C51AF58A
:103A400069C51BF56AC51CF56BC51DF520EE18F0A0
:103A50004B50D9264C50DA22DEC41EF5DEC41FF5C9
:103A6000DEC420F5DEC421F585EC22F020EE1CF04A
:103A70004B50D9264C50DA221AC5DEF41BC5DEF4B1
:103A80001CC5DEF41DC5DEF420EE20F04B50D92617
:103A90004C50DA22DEC405F5DEC406F5DEC407F5B7
:103AA000DEC408F520EE1CF04B50D9264C50DA222B
:103AB000DEC409F5DEC40AF5DEC40BF5DEC40CF580
:103AC000F9EC38F0D8B067EF1DF069EF1DF07FEF2B
:103AD0001DF020EE20F04B50D9264C50DA2210EE8B
:103AE0001CF04B50E1264C50E222DEC4E6F4DEC46A
:103AF000E6F4DEC4E6F4DEC4E6F4CCEF1DF020EE1E
:103B00001CF04B50D9264C50DA22DEC405F5DEC439
:103B100006F5DEC407F5DEC408F520EE20F04B50B4
:103B2000D9264C50DA22DEC401F5DEC402F5DEC42B
:103B300003F5DEC404F5F0EC41F001C509F502C55A
:103B40000AF503C50BF504C50CF5F9EC38F0D8B04F
:103B5000ACEF1DF0AEEF1DF0CCEF1DF020EE20F02D
:103B60004B50D9264C50DA22DEC401F5DEC402F5F2
:103B7000DEC403F5DEC404F5F0EC41F020EE1CF0E9
:103B80004B50D9264C50DA2201C5DEF402C5DEF4D2
:103B900003C5DEF404C5DEF41200D0C5D9F4D1C5E6
:103BA000DAF4DFC4F6F4260EF76E000EF86E0800A5
:103BB000F550250AD8A4DFEF1DF0E1EF1DF011EF5D
:103BC00020F0D0C5D9F4D1C5DAF4DF2A000E050102
:103BD000E46F000EE36FE3C5EDF5E569E669D76BC9
:103BE00010EF1EF0ED83D0C5D9F4D1C5DAF4DF2A89
:103BF00010EF1EF0010ED76F10EF1EF0D0C5D9F4F4
:103C0000D1C5DAF4DFC4F6F4260EF76E000EF86EB6
:103C10000800F550300AD8B4F2EF1DF0FAEF1DF0AD
:103C2000D751D8B416EF1EF018EF1EF0FEEF1DF0BE
:103C3000D0C5D9F4D1C5DAF4DFC4F6F4260EF76E98
:103C4000000EF86E0800F5502E0AD8A42AEF1EF0D8
:103C50002CEF1EF03FEF1EF0D0C5D9F4D1C5DAF439
:103C6000DF2AD0C56CF5D1C56DF5D2C56EF5D3C5CB
:103C70006FF5A3EC3BF06CC5E5F56DC5E6F5D0C579
:103C8000D9F4D1C5DAF4DF500501DC6FDCC5F6F4F8
:103C9000260EF76E000EF86E0800F550640AD8B4D0
:103CA00054EF1EF056EF1EF066EF1EF0DCC5F6F482
:103CB000260EF76E000EF86E0800F550690AD8A4BB
:103CC00064EF1EF066EF1EF08CEF1EF0D2C5D9F443
:103CD000D3C5DAF4DFC4D4F5020EDE26DFC4D5F591
:103CE000000EDD22D4C5D9F4D5C5DAF4DEC4D8F58A
:103CF000DDC4D9F5DC29D0C5D9F4D1C5DAF4DF6E3D
:103D0000CEC588F5CFC589F5D8C58AF5D9C58BF557
:103D1000C0EC30F028EF20F0DCC5F6F4260EF76E8C
:103D2000000EF86E0800F550750AD8A49AEF1EF040
:103D30009CEF1EF0D2EF1EF0D2C5D9F4D3C5DAF451
:103D4000DFC4D4F5020EDE26DFC4D5F5000EDD2279
:103D5000D4C5D9F4D5C5DAF4DEC4D8F5DDC4D9F5B7
:103D6000DC29D0C5D9F4D1C5DAF4DF6EC4EF1EF07A
:103D7000CEC588F5CFC589F5D8C58AF5D9C58BF5E7
:103D800034EC35F028EF20F0DCC5F6F4260EF76EA3
:103D9000000EF86E0800F550750AD8B4B8EF1EF0A2
:103DA000D2EF1EF0D76BD0C5D9F4D1C5DAF4DFC499
:103DB000F6F4260EF76E000EF86E0800F550730A42
:103DC000D8A4E5EF1EF0E7EF1EF0F0EF1EF0D0C52F
:103DD000D9F4D1C5DAF4DF2A010ED76F3CEF1FF01A
:103DE000D0C5D9F4D1C5DAF4DFC4F6F4260EF76EE7
:103DF000000EF86E0800F5506C0AD8A402EF1FF010
:103E000004EF1FF03CEF1FF0D0C5D9F4D1C5DAF4B0
:103E1000DF50D46F010ED427D4C5F6F4260EF76E0A
:103E2000000EF86E0800F5506C0AD8A41AEF1FF0C7
:103E30001CEF1FF03CEF1FF0D0C5D9F4D1C5DAF468
:103E4000DF50D46F020ED427D4C5F6F4260EF76ED9
:103E5000000EF86E0800F550730AD8A432EF1FF078
:103E600034EF1FF03CEF1FF0D0C5D9F4D1C5DAF420
:103E7000030EDF26ECEF1EF0D751D8B442EF1FF04F
:103E800044EF1FF060EF1FF0CEC578F5CFC579F590
:103E9000D2C5D9F4D3C5DAF4DFC4D4F5020EDE26D8
:103EA000DFC4D5F5000EDD22D4C5D9F4D5C5DAF4CA
:103EB000DEC47AF5DDC47BF5E5EC36F028EF20F0C2
:103EC000D0C5D9F4D1C5DAF4DF50DC6FDCC5F6F427
:103ED000260EF76E000EF86E0800F5C4D6F57BEFDF
:103EE0001FF0DC2B8AEF1FF06C0ED66F8AEF1FF0ED
:103EF000D66B8AEF1FF0D6514C0AD8B471EF1FF081
:103F00002A0AD8B474EF1FF00A0AD8B471EF1FF070
:103F100078EF1FF0DCC5F6F4260EF76E000EF86E93
:103F20000800F550660AD8A498EF1FF09AEF1FF02A
:103F30000AEF20F0D0EF1FF0D2C5D9F4D3C5DAF4E0
:103F4000DFC4D4F5040EDE26DFC4D5F5000EDD2275
:103F5000D4C5D9F4D5C5DAF4DEC4D8F5DEC4D9F5B4
:103F6000DEC4DAF5DEC4DBF5DBEF1FF0D2C5D9F431
:103F7000D3C5DAF4DFC4D4F5040EDE26DFC4D5F5EC
:103F8000000EDD22D4C5D9F4D5C5DAF4DEC4D8F5E7
:103F9000DEC4D9F5DEC4DAF5DEC4DBF5DBEF1FF0F5
:103FA000D6514C0AD8B4B6EF1FF0200AD8B49CEF13
:103FB0001FF0DBEF1FF0DC29D0C5D9F4D1C5DAF44E
:103FC000DF6EFCEF1FF0CEC599F5CFC59AF5D8C5C9
:103FD0009BF5D9C59CF5DAC59DF5DBC59EF5DCC51D
:103FE000F6F4260EF76E000EF86E0800F5C49FF585
:103FF00078EC13F028EF20F0DCC5F6F4260EF76E0F
:10400000000EF86E0800F550660AD8B4E3EF1FF012
:104010000AEF20F0D0C5D9F4D1C5DAF4DF2A28EFB1
:1040200020F0D0C5D9F4D1C5DAF4DFC4F6F4260EF9
:10403000F76E000EF86E0800F55005016F6F706B9B
:10404000CEC571F5CFC572F53DEC3BF00AEF20F01F
:10405000120005016F51800B786F6F516F257A6FD9
:104060006EAF35EF20F037EF20F038EF20F07A8197
:104070007A51D8B43EEF20F040EF20F054EF20F01A
:104080007A29D8A446EF20F048EF20F050EF20F036
:10409000000E6C6F000E6D6F000E6E6F000E6F6F76
:1040A0006E8F6F6B5CEF20F0000E6C6F000E6D6F0B
:1040B000000E6E6F000E6F6F7351800B796F785129
:1040C0007919D8B466EF20F068EF20F069EF20F09E
:1040D000788D73517325796F72AF71EF20F073EFA4
:1040E00020F074EF20F079817951D8B47AEF20F084
:1040F0007CEF20F090EF20F07929D8A482EF20F017
:1041000084EF20F08CEF20F0000E706F000E716FC6
:10411000000E726F000E736F728F736B98EF20F04A
:10412000000E706F000E716F000E726F000E736FD5
:104130007A51795DD8B09FEF20F0A1EF20F0C8EF61
:1041400020F078ADA6EF20F0A8EF20F0AAEF20F045
:10415000800E781B7AC57BF579C57AF57BC579F534
:104160006CC57BF570C56CF57BC570F56DC57BF5D1
:1041700071C56DF57BC571F56EC57BF572C56EF5C4
:104180007BC572F56FC57BF573C56FF57BC573F5A0
:104190007B6B7A5179C574F5756B745F000E755B36
:1041A00075BFDCEF20F0755109E11A0E745DD8A0DF
:1041B000DCEF20F0DEEF20F015EF21F06C516D11F7
:1041C0006E116F11D8A4E7EF20F0EAEF20F0010E96
:1041D000EBEF20F0000E7B6F000E6C6F000E6D6F2A
:1041E000000E6E6F000E6F6F79C57AF51EEF21F02D
:1041F0007BA1FDEF20F0FFEF20F005EF21F0D8903C
:104200007B3101097B6F07EF21F0D8907B336CA1E4
:104210000CEF21F00EEF21F00FEF21F07B8F6F35C7
:104220006F336E336D336C337A2B79517A5DD8A04E
:104230001CEF21F01EEF21F0F8EF20F078BD23EF06
:1042400021F025EF21F065EF21F07A51D8A42BEF72
:1042500021F02DEF21F037EF21F0000E6C6F000EF2
:104260006D6F000E6E6F000E6F6F84EF22F0705155
:104270006C2771516D2372516E2373516F236FA19F
:1042800044EF21F046EF21F0F2EF21F07BA14BEF5C
:1042900021F04DEF21F053EF21F0D8907B3101094F
:1042A0007B6F55EF21F0D8907B336CA15AEF21F052
:1042B0005CEF21F05DEF21F07B8F6F356F336E3354
:1042C0006D336C337A2BF2EF21F070516C5D7151CC
:1042D0006D5972516E596F51800A746F7351800A13
:1042E0007459D8B076EF21F078EF21F0A3EF21F0E8
:1042F0006C51705D746F6D517159756F6E5172595B
:10430000766F6F517359776FFF0E74256C6FFF0EC8
:1043100075216D6FFF0E76216E6FFF0E77216F6F27
:10432000800E781B7B6D7B51D8A499EF21F09BEF19
:1043300021F0ABEF21F0010E6C27000E6D236E23F0
:104340006F23ABEF21F070516C5F71516D5B725157
:104350006E5B73516F5B6C516D116E116F11D8A450
:10436000B4EF21F0B6EF21F0EBEF21F07B51D8A4B0
:10437000BCEF21F0BEEF21F0EBEF21F0000E6C6FEF
:10438000000E6D6F000E6E6F000E6F6F84EF22F0E7
:10439000D8906C376D376E376F377BAFD2EF21F027
:1043A000D4EF21F0D5EF21F06C817BA1DAEF21F081
:1043B000DCEF21F0E0EF21F0D8807B37E2EF21F055
:1043C000D8907B377A51D8B4E8EF21F0EAEF21F0AA
:1043D000EBEF21F07A076EAFF0EF21F0F2EF21F072
:1043E000C8EF21F0796B7BAFF8EF21F0FAEF21F005
:1043F00012EF22F07BC574F57F0E7417D8B403EF6B
:1044000022F005EF22F009EF22F0010E796F12EF92
:1044100022F06CA10EEF22F010EF22F012EF22F04A
:1044200005EF22F07951D8B418EF22F01AEF22F0FC
:1044300045EF22F0010E6C27000E6D236E236F23D3
:104440006FA125EF22F027EF22F045EF22F06CC597
:1044500074F56DC575F56EC576F56FC577F577356D
:10446000773376337533743374C56CF575C56DF574
:1044700076C56EF577C56FF57A29D8B442EF22F08C
:1044800044EF22F045EF22F07A2B7A29D8B44BEF93
:1044900022F04DEF22F055EF22F07A51D8A453EFDD
:1044A00022F055EF22F066EF22F0000E6C6F000E46
:1044B0006D6F000E6E6F000E6F6F7A51D8A463EFB0
:1044C00022F065EF22F066EF22F0786B7AA16BEFB5
:1044D00022F06DEF22F070EF22F06E8F71EF22F07C
:1044E0006E9FD8907A316F6F78AF79EF22F07BEFC3
:1044F00022F07CEF22F06F8F6CC56CF56DC56DF509
:104500006EC56EF56FC56FF512001D50800B266EDF
:104510001D501D24286E1CAE90EF22F092EF22F069
:1045200093EF22F028802850D8B499EF22F09BEF27
:1045300022F0AFEF22F02828D8A4A1EF22F0A3EFB9
:1045400022F0ABEF22F0000E1A6E000E1B6E000E72
:104550001C6E000E1D6E1C8E1D6AB7EF22F0000E41
:104560001A6E000E1B6E000E1C6E000E1D6E21508A
:10457000800B276E26502718D8B4C1EF22F0C3EF66
:1045800022F0C4EF22F0268C21502124276E20AE89
:10459000CCEF22F0CEEF22F0CFEF22F02780275091
:1045A000D8B4D5EF22F0D7EF22F0EBEF22F0272896
:1045B000D8A4DDEF22F0DFEF22F0E7EF22F0000ECB
:1045C0001E6E000E1F6E000E206E000E216E208EDD
:1045D000216AF3EF22F0000E1E6E000E1F6E000E19
:1045E000206E000E216E2850275CD8B0FAEF22F022
:1045F000FCEF22F023EF23F026AC01EF23F003EFD2
:1046000023F005EF23F0800E261A28C529F527C5CB
:1046100028F529C527F51AC529F51EC51AF529C596
:104620001EF51BC529F51FC51BF529C51FF51CC5A2
:1046300029F520C51CF529C520F51DC529F521C57D
:104640001DF529C521F5296A285027C522F5236AB9
:10465000225E000E235A23BE37EF23F0235009E1D8
:104660001A0E225CD8A037EF23F039EF23F070EF59
:1046700023F01A501B101C101D10D8A442EF23F079
:1046800045EF23F0010E46EF23F0000E296E000ED9
:104690001A6E000E1B6E000E1C6E000E1D6E27C5DE
:1046A00028F579EF23F029A058EF23F05AEF23F0F3
:1046B00060EF23F0D89029300109296E62EF23F0D2
:1046C000D89029321AA067EF23F069EF23F06AEF40
:1046D00023F0298E1D341D321C321B321A32282A37
:1046E0002750285CD8A077EF23F079EF23F053EF21
:1046F00023F026BC7EEF23F080EF23F0C0EF23F001
:104700002850D8A486EF23F088EF23F092EF23F00F
:10471000000E1A6E000E1B6E000E1C6E000E1D6E3B
:10472000DFEF24F01E501A261F501B2220501C229F
:1047300021501D221DA09FEF23F0A1EF23F04DEF8C
:1047400024F029A0A6EF23F0A8EF23F0AEEF23F08A
:10475000D89029300109296EB0EF23F0D890293282
:104760001AA0B5EF23F0B7EF23F0B8EF23F0298EAE
:104770001D341D321C321B321A32282A4DEF24F010
:104780001E501A5C1F501B5820501C581D50800A88
:10479000226E2150800A2258D8B0D1EF23F0D3EFF7
:1047A00023F0FEEF23F01A501E5C226E1B501F58A0
:1047B000236E1C502058246E1D502158256EFF0E6C
:1047C00022241A6EFF0E23201B6EFF0E24201C6E67
:1047D000FF0E25201D6E800E261A296C2950D8A4A4
:1047E000F4EF23F0F6EF23F006EF24F0010E1A2683
:1047F000000E1B221C221D2206EF24F01E501A5E02
:104800001F501B5A20501C5A21501D5A1A501B1061
:104810001C101D10D8A40FEF24F011EF24F046EF68
:1048200024F02950D8A417EF24F019EF24F046EF14
:1048300024F0000E1A6E000E1B6E000E1C6E000E91
:104840001D6EDFEF24F0D8901A361B361C361D364D
:1048500029AE2DEF24F02FEF24F030EF24F01A8052
:1048600029A035EF24F037EF24F03BEF24F0D88077
:1048700029363DEF24F0D89029362850D8B443EF9C
:1048800024F045EF24F046EF24F028061CAE4BEF51
:1048900024F04DEF24F023EF24F0276A29AE53EFE4
:1048A00024F055EF24F06DEF24F029C522F57F0E9A
:1048B0002216D8B45EEF24F060EF24F064EF24F009
:1048C000010E276E6DEF24F01AA069EF24F06BEF54
:1048D00024F06DEF24F060EF24F02750D8B473EF8C
:1048E00024F075EF24F0A0EF24F0010E1A26000E3C
:1048F0001B221C221D221DA080EF24F082EF24F039
:10490000A0EF24F01AC522F51BC523F51CC524F51C
:104910001DC525F52534253224322332223222C505
:104920001AF523C51BF524C51CF525C51DF528283A
:10493000D8B49DEF24F09FEF24F0A0EF24F0282AB4
:104940002828D8B4A6EF24F0A8EF24F0B0EF24F084
:104950002850D8A4AEEF24F0B0EF24F0C1EF24F03B
:10496000000E1A6E000E1B6E000E1C6E000E1D6EE9
:104970002850D8A4BEEF24F0C0EF24F0C1EF24F0FB
:10498000266A28A0C6EF24F0C8EF24F0CBEF24F06D
:104990001C8ECCEF24F01C9ED89028301D6E26AEC5
:1049A000D4EF24F0D6EF24F0D7EF24F01D8E1AC5F3
:1049B0001AF51BC51BF51CC51CF51DC51DF5120000
:1049C00005016F51800B786F6F516F257E6F6EAF51
:1049D000ECEF24F0EEEF24F0EFEF24F07E817E5137
:1049E000D8B4F5EF24F0F7EF24F00AEF25F07E2994
:1049F000D8A4FDEF24F0FFEF24F007EF25F0000E20
:104A00006C6F000E6D6F000E6E6F000E6F6F6E8F0D
:104A100012EF25F0000E6C6F000E6D6F000E6E6FC2
:104A2000000E6F6F7351800B781B73517325796F74
:104A300072AF1DEF25F01FEF25F020EF25F07981F3
:104A40007951D8B426EF25F028EF25F03BEF25F07B
:104A50007929D8A42EEF25F030EF25F038EF25F096
:104A6000000E706F000E716F000E726F000E736F8C
:104A7000728F43EF25F0000E706F000E716F000E05
:104A8000726F000E736F7951D8B449EF25F04BEF78
:104A900025F053EF25F07E51D8A451EF25F053EFC8
:104AA00025F05DEF25F0000E6C6F000E6D6F000EAF
:104AB0006E6F000E6F6FF3EF26F072516C03F3C44C
:104AC00083F5F4C484F583517A6F7B6B7C6B7D6BCB
:104AD00084517F6F806B816B826B71516D03F3C466
:104AE00083F5F4C484F583517A27000E7B237C235D
:104AF0007D2384517F27000E8023812382237051E0
:104B00006E03F3C483F5F4C484F583517A27000E51
:104B10007B237C237D2384517F27000E80238123E8
:104B200082237CC57DF57BC57CF57AC57BF57A6BE8
:104B300070516D03F3C483F5F4C484F583517A276F
:104B400084517B23000E7C23000E7D2371516C0366
:104B5000F3C483F5F4C484F583517A2784517B230D
:104B6000000E7C23000E7D237CC57DF57BC57CF586
:104B70007AC57BF57A6B70516C03F3C483F5F4C48A
:104B800084F583517A2784517B23000E7C23000E09
:104B90007D2372516D03F3C483F5F4C484F583510E
:104BA0007F2784518023000E8123000E82237151C0
:104BB0006E03F3C483F5F4C484F583517F278451D5
:104BC0008023000E8123000E822372516E03F3C4F2
:104BD00083F5F4C484F58351746F8451756F766BDB
:104BE000776B76C577F575C576F574C575F5746B15
:104BF00074517F2775518023765181237751822309
:104C00007AC574F57BC575F57CC576F57DC577F5F8
:104C1000190E10EF26F0D89077337633753374334E
:104C2000E82E0BEF26F074517F27755180237651C3
:104C30008123775182237CC57DF57BC57CF57AC5C0
:104C40007BF57A6B79517EC574F5756B7427000E10
:104C50007523820E7425836FFF0E7521846F46EFD6
:104C600026F0D8907F378037813782377DAF3BEF92
:104C700026F03DEF26F03EEF26F07F81D8907A3780
:104C80007B377C377D378307D8A0840781AF4BEF14
:104C900026F04DEF26F031EF26F0796B7DAF53EF24
:104CA00026F055EF26F079EF26F0FF0E7A15746F97
:104CB000FF0E7B15756FFF0E7C15766F7F0E7D15D1
:104CC000776F7451751176117711D8B46AEF26F0A9
:104CD0006CEF26F070EF26F0010E796F79EF26F079
:104CE0007FA175EF26F077EF26F079EF26F06CEFD5
:104CF00026F07951D8B47FEF26F081EF26F0A5EFAA
:104D000026F0010E7F27000E80238123822382A1BB
:104D10008CEF26F08EEF26F0A5EF26F07FC574F518
:104D200080C575F581C576F582C577F5773577331A
:104D300076337533743374C57FF575C580F576C5E4
:104D400081F577C582F5834B842B84BFB0EF26F0C5
:104D5000845108E18329D8A0B0EF26F0B2EF26F005
:104D6000BCEF26F0000E7F6F000E806F800E816F0B
:104D70007F0E826FE9EF26F084BFC9EF26F08451E1
:104D800006E18305D8B0C7EF26F0C9EF26F0D4EFCF
:104D900026F0000E7F6F000E806F000E816F000EF8
:104DA000826F786BE9EF26F083C57EF5FF0E7F17E3
:104DB000FF0E80177F0E8117000E82177EA1E3EF92
:104DC00026F0E5EF26F0E6EF26F0818FD8907E31D1
:104DD000826F785182137FC56CF580C56DF581C5F2
:104DE0006EF582C56FF512000450800B0D6E0450F5
:104DF0000424136E03AEFFEF26F001EF27F002EF5D
:104E000027F013801350D8B408EF27F00AEF27F0EB
:104E10001DEF27F01328D8A410EF27F012EF27F08A
:104E20001AEF27F0000E016E000E026E000E036EE8
:104E3000000E046E038E25EF27F0000E016E000EAB
:104E4000026E000E036E000E046E0850800B0D1AE9
:104E500008500824126E07AE30EF27F032EF27F02B
:104E600033EF27F012801250D8B439EF27F03BEF20
:104E700027F04EEF27F01228D8A441EF27F043EF98
:104E800027F04BEF27F0000E056E000E066E000EA9
:104E9000076E000E086E078E56EF27F0000E056EA7
:104EA000000E066E000E076E000E086E1250D8B48B
:104EB0005CEF27F05EEF27F066EF27F01350D8A4E1
:104EC00064EF27F066EF27F070EF27F0000E016E19
:104ED000000E026E000E036E000E046E06EF29F047
:104EE00007500102F3C418F5F4C419F518500E6EFA
:104EF0000F6A106A116A1950146E156A166A176AD9
:104F000006500202F3C418F5F4C419F518500E2621
:104F1000000E0F221022112219501426000E152205
:104F20001622172205500302F3C418F5F4C419F52C
:104F300018500E26000E0F2210221122195014268E
:104F4000000E15221622172210C511F50FC510F5F7
:104F50000EC50FF50E6A05500202F3C418F5F4C42D
:104F600019F518500E2619500F22000E1022000EAF
:104F7000112206500102F3C418F5F4C419F51850B3
:104F80000E2619500F22000E1022000E112210C5FD
:104F900011F50FC510F50EC50FF50E6A055001028B
:104FA000F3C418F5F4C419F518500E2619500F2241
:104FB000000E1022000E112207500202F3C418F551
:104FC000F4C419F51850142619501522000E162293
:104FD000000E172206500302F3C418F5F4C419F5A5
:104FE0001850142619501522000E1622000E1722F2
:104FF00007500302F3C418F5F4C419F51850096EEC
:1050000019500A6E0B6A0C6A0BC50CF50AC50BF534
:1050100009C50AF5096A095014260A5015220B50D1
:1050200016220C5017220EC509F50FC50AF510C53A
:105030000BF511C50CF5190E23EF28F0D8900C32A2
:105040000B320A320932E82E1EEF28F009501426DE
:105050000A5015220B5016220C50172210C511F5BC
:105060000FC510F50EC50FF50E6A125013C509F5E0
:105070000A6A0926000E0A22820E0924186EFF0E03
:105080000A20196E59EF28F0D890143615361636C6
:10509000173611AE4EEF28F050EF28F051EF28F000
:1050A0001480D8900E360F36103611361806D8A058
:1050B000190616AE5EEF28F060EF28F044EF28F0F6
:1050C000126A11AE66EF28F068EF28F08CEF28F036
:1050D000FF0E0E14096EFF0E0F140A6EFF0E101451
:1050E0000B6E7F0E11140C6E09500A100B100C1071
:1050F000D8B47DEF28F07FEF28F083EF28F0010E81
:10510000126E8CEF28F014A088EF28F08AEF28F0B8
:105110008CEF28F07FEF28F01250D8B492EF28F0EF
:1051200094EF28F0B8EF28F0010E1426000E152297
:105130001622172217A09FEF28F0A1EF28F0B8EF52
:1051400028F014C509F515C50AF516C50BF517C5E0
:105150000CF50C340C320B320A32093209C514F545
:105160000AC515F50BC516F50CC517F5184A192A09
:1051700019BEC3EF28F0195008E11828D8A0C3EFD2
:1051800028F0C5EF28F0CFEF28F0000E146E000EC7
:10519000156E800E166E7F0E176EFCEF28F019BE8E
:1051A000DCEF28F0195006E11804D8B0DAEF28F047
:1051B000DCEF28F0E7EF28F0000E146E000E156EFD
:1051C000000E166E000E176E0D6AFCEF28F018C563
:1051D00013F5FF0E1416FF0E15167F0E1616000E91
:1051E000171613A0F6EF28F0F8EF28F0F9EF28F0E3
:1051F000168ED8901330176E0D50171214C501F586
:1052000015C502F516C503F517C504F51200CAC584
:10521000D9F4CBC5DAF4DFC4F6F4260EF76E000E2F
:10522000F86E0800F550250AD8A419EF29F01BEFF5
:1052300029F040EF2AF0CAC5D9F4CBC5DAF4DF2A49
:10524000000E0501E86F000EE76FE751E811D8A4E2
:105250002CEF29F02FEF29F0010E30EF29F0000E8E
:10526000EF6FCAC5D9F4CBC5DAF4DF506C6FEB0E23
:105270006D6F000E6F6F020E6E6FFBEC39F0050163
:105280006C516D11D8A447EF29F049EF29F08DEF4B
:1052900029F0CAC5D9F4CBC5DAF4020EDF26C8C599
:1052A000B4F5C9C5B5F5D20EB66F050EB76F9DEC56
:1052B0002EF0B4C5DAF5B5C5DBF50501DBBF69EF46
:1052C00029F0DB5108E1DA05D8A069EF29F06BEF8E
:1052D00029F087EF29F0CCC5D9F4CDC5DAF4DFC4C5
:1052E000CEF5020EDE26DFC4CFF5000EDD22CEC5E0
:1052F000D9F4CFC5DAF4DEC4D0F5DDC4D1F5D0C51C
:10530000D9F4D1C5DAF4D2C5DEF4D3C5DDF4DAC5FB
:10531000C8F5DBC5C9F50BEF2BF0CAC5D9F4CBC571
:10532000DAF4DFC4F6F4260EF76E000EF86E08000D
:10533000F550750AD8A49FEF29F0A1EF29F0E0EF0E
:1053400029F0CAC5D9F4CBC5DAF4DF2AC8C5B4F54B
:10535000C9C5B5F5D20EB66F050EB76F9DEC2EF030
:10536000B4C5DAF5B5C5DBF50501DBBFC0EF29F043
:10537000DB5108E1DA05D8A0C0EF29F0C2EF29F02F
:1053800087EF29F0CCC5D9F4CDC5DAF4DFC4CEF56A
:10539000020EDE26DFC4CFF5000EDD22CEC5D9F425
:1053A000CFC5DAF4DEC4D0F5DDC4D1F5D0C5D9F46B
:1053B000D1C5DAF4D2C5DEF4D3C5DDF487EF29F028
:1053C000CAC5D9F4CBC5DAF4DFC4F6F4260EF76EFD
:1053D000000EF86E0800F550250AD8A4F2EF29F067
:1053E000F4EF29F039EF2AF0C8C57AF5C9C57BF585
:1053F000A0EC3EF0C8C571F5C9C572F5CAEC35F030
:1054000071C5DCF572C5DDF5250E0501DC19DD1170
:10541000D8A40DEF2AF00FEF2AF01EEF2AF0CAC52C
:10542000D9F4CBC5DAF4DF2A0601514B522B000E1A
:105430000501C96F000EC86F0BEF2BF0DC2908E1E6
:10544000DD29D8B426EF2AF028EF2AF032EF2AF02F
:10545000DCC56CF5DDC56DF5C8C56EF5C9C56FF564
:1054600068EC3CF0FF0E0501C96FFE0EC86F0BEF34
:105470002BF0CAC5D9F4CBC5DAF4DF2A17EF2AF02E
:10548000C8C571F5C9C572F5CAEC35F071C5DCF552
:1054900072C5DDF5CAC5D9F4CBC5DAF4DFC4F6F4BC
:1054A000260EF76E000EF86E0800F550200AD8B4EC
:1054B0005CEF2AF05EEF2AF076EF2AF0CAC5D9F445
:1054C000CBC5DAF4DFC4F6F4260EF76E000EF86EE4
:1054D0000800F5C4CEF5F70E0501CE27050ECE6106
:1054E00074EF2AF076EF2AF0E3EF2AF0CAC5D9F478
:1054F000CBC5DAF4DF2ACAC5D9F4CBC5DAF4DFC4E8
:10550000F6F4260EF76E000EF86E0800F550200A2D
:10551000D8B48DEF2AF08FEF2AF076EF2AF0CAC5C3
:10552000D9F4CBC5DAF4DFC4F6F4260EF76E000E1C
:10553000F86E0800F5C4CEF5F70E0501CE27040E6F
:10554000CE65A5EF2AF0A7EF2AF076EF2AF0B6EFA6
:105550002AF00601514B522BC8C571F5C9C572F529
:10556000CAEC35F071C5DCF572C5DDF5200E05011C
:10557000DC19DD11D8B4BFEF2AF0C1EF2AF0A9EF92
:105580002AF0DCC5CEF5F70ECE27040ECE65CBEFA4
:105590002AF0CDEF2AF0A9EF2AF0DC2908E1DD2975
:1055A000D8B4D5EF2AF0D7EF2AF017EF2AF0DCC5F0
:1055B0006CF5DDC56DF5C8C56EF5C9C56FF568EC50
:1055C0003CF017EF2AF0CAC5D9F4CBC5DAF4DFC432
:1055D000F6F4260EF76E000EF86E0800F550CE6F4A
:1055E000CF6BDC51CE1907E1DD51CF19D8A4FBEF09
:1055F0002AF0FDEF2AF0FFEF2AF00FEF2AF0DC2966
:1056000006E1DD29D8A407EF2BF009EF2BF028EFF6
:105610002AF0C869C969120005016F51800B7C6FBF
:105620006F516F25836F6EAF18EF2BF01AEF2BF0D1
:105630001BEF2BF083818351D8B421EF2BF023EFA4
:105640002BF037EF2BF08329D8A429EF2BF02BEF89
:105650002BF033EF2BF0000E6C6F000E6D6F000E11
:105660006E6F000E6F6F6E8F6F6B3FEF2BF0000E43
:105670006C6F000E6D6F000E6E6F000E6F6F7351CA
:10568000800B7C1B73517325846F72AF4AEF2BF034
:105690004CEF2BF04DEF2BF084818451D8B453EFB5
:1056A0002BF055EF2BF069EF2BF08429D8A45BEF9A
:1056B0002BF05DEF2BF065EF2BF0000E706F000EFE
:1056C000716F000E726F000E736F728F736B71EFDC
:1056D0002BF0000E706F000E716F000E726F000ED7
:1056E000736F7051711172117311D8A47AEF2BF08E
:1056F0007CEF2BF094EF2BF0000E6C6F000E6D6FB3
:10570000000E6E6F000E6F6F800E6E137F0E6F13A4
:105710007C516F136CC56CF56DC56DF56EC56EF57E
:105720006FC56FF5D4EF2CF08351D8A49AEF2BF00E
:105730009CEF2BF0A6EF2BF0000E6C6F000E6D6F40
:10574000000E6E6F000E6F6FD4EF2CF0845183C586
:1057500074F5756B745F000E755B7F0E74257D6F3D
:10576000000E75217E6F6CC578F56DC579F56EC537
:105770007AF56FC57BF5000E6C6F000E6D6F000E35
:105780006E6F000E6F6F000E7F6F000E806F000E49
:10579000816F000E826F846B06EF2CF08451D8B4B9
:1057A000D4EF2BF0D6EF2BF0EDEF2BF0D89078372D
:1057B00079377A377B37D8906C376D376E376F37DC
:1057C00082AFE5EF2BF0E7EF2BF0E8EF2BF06C81E9
:1057D000D8907F378037813782377051785D71512B
:1057E000795972517A5973517B59D8A0FAEF2BF03D
:1057F000FCEF2BF005EF2CF0828D7051785F71512A
:10580000795B72517A5B73517B5B842B190E8465D3
:105810000CEF2CF00EEF2CF0CEEF2BF0785179112D
:105820007A117B11D8B417EF2CF019EF2CF031EF6F
:105830002CF07F8131EF2CF0D8906C376D376E37BC
:105840006F3782AF26EF2CF028EF2CF029EF2CF0E9
:105850006C81D8907F378037813782377D07D8A019
:105860007E076EAF36EF2CF038EF2CF01CEF2CF0EB
:10587000846B82AF3EEF2CF040EF2CF064EF2CF005
:10588000FF0E7F15746FFF0E8015756FFF0E81156B
:10589000766F7F0E8215776F7451751176117711BF
:1058A000D8B455EF2CF057EF2CF05BEF2CF0010E35
:1058B000846F64EF2CF06CA160EF2CF062EF2CF0A1
:1058C00064EF2CF057EF2CF08451D8B46AEF2CF031
:1058D0006CEF2CF090EF2CF0010E6C27000E6D2376
:1058E0006E236F236FA177EF2CF079EF2CF090EF00
:1058F0002CF06CC574F56DC575F56EC576F56FC584
:1059000077F57735773376337533743374C56CF543
:1059100075C56DF576C56EF577C56FF57D4B7E2B3C
:105920007EBF9BEF2CF07E5108E17D29D8A09BEF34
:105930002CF09DEF2CF0A8EF2CF0000E7E6F7D690F
:10594000000E6C6F000E6D6F000E6E6F000E6F6FAD
:105950007EBFB5EF2CF07E5106E17D05D8B0B3EFE8
:105960002CF0B5EF2CF0C2EF2CF0000E7E6F000E85
:105970007D6F000E6C6F000E6D6F000E6E6F000E6F
:105980006F6F7C6B7DC583F583A1C9EF2CF0CBEFE6
:105990002CF0CEEF2CF06E8FCFEF2CF06E9FD890C6
:1059A00083316F6F88EF2BF012003550800B426E01
:1059B00035503524496E34AEE0EF2CF0E2EF2CF098
:1059C000E3EF2CF049804950D8B4E9EF2CF0EBEF2D
:1059D0002CF0FFEF2CF04928D8A4F1EF2CF0F3EFD6
:1059E0002CF0FBEF2CF0000E326E000E336E000E2A
:1059F000346E000E356E348E356A07EF2DF0000ED2
:105A0000326E000E336E000E346E000E356E39505D
:105A1000800B421A395039244A6E38AE12EF2DF0FD
:105A200014EF2DF015EF2DF04A804A50D8B41BEF3B
:105A30002DF01DEF2DF031EF2DF04A28D8A423EFE3
:105A40002DF025EF2DF02DEF2DF0000E366E000E0F
:105A5000376E000E386E000E396E388E396A39EFA7
:105A60002DF0000E366E000E376E000E386E000EF2
:105A7000396E3650371038103910D8A442EF2DF057
:105A800044EF2DF05CEF2DF0000E326E000E336E01
:105A9000000E346E000E356E800E34127F0E3512FD
:105AA0004250351232C532F533C533F534C534F5BD
:105AB00035C535F59CEF2EF04950D8A462EF2DF096
:105AC00064EF2DF06EEF2DF0000E326E000E336E8F
:105AD000000E346E000E356E9CEF2EF04A5049C514
:105AE0003AF53B6A3A5E000E3B5A7F0E3A24436E0B
:105AF000000E3B20446E32C53EF533C53FF534C53C
:105B000040F535C541F5000E326E000E336E000EC5
:105B1000346E000E356E000E456E000E466E000EA1
:105B2000476E000E486E4A6ACEEF2DF04A50D8B448
:105B30009CEF2DF09EEF2DF0B5EF2DF0D8903E3676
:105B40003F3640364136D8903236333634363536E5
:105B500048AEADEF2DF0AFEF2DF0B0EF2DF032806D
:105B6000D890453646364736483636503E5C375034
:105B70003F583850405839504158D8A0C2EF2DF006
:105B8000C4EF2DF0CDEF2DF0488C36503E5E3750EF
:105B90003F5A3850405A3950415A4A2A190E4A64DD
:105BA000D4EF2DF0D6EF2DF096EF2DF03E503F10B4
:105BB00040104110D8B4DFEF2DF0E1EF2DF0F9EFF8
:105BC0002DF04580F9EF2DF0D8903236333634364B
:105BD000353648AEEEEF2DF0F0EF2DF0F1EF2DF071
:105BE0003280D89045364636473648364306D8A0E8
:105BF000440634AEFEEF2DF000EF2EF0E4EF2DF072
:105C00004A6A48AE06EF2EF008EF2EF02CEF2EF089
:105C1000FF0E45143A6EFF0E46143B6EFF0E4714FE
:105C20003C6E7F0E48143D6E3A503B103C103D10C8
:105C3000D8B41DEF2EF01FEF2EF023EF2EF0010E43
:105C40004A6E2CEF2EF032A028EF2EF02AEF2EF025
:105C50002CEF2EF01FEF2EF04A50D8B432EF2EF07A
:105C600034EF2EF058EF2EF0010E3226000E3322C4
:105C70003422352235A03FEF2EF041EF2EF058EFC1
:105C80002EF032C53AF533C53BF534C53CF535C584
:105C90003DF53D343D323C323B323A323AC532F585
:105CA0003BC533F53CC534F53DC535F5434A442A7B
:105CB00044BE63EF2EF0445008E14328D8A063EFC0
:105CC0002EF065EF2EF070EF2EF0000E446E43685C
:105CD000000E326E000E336E000E346E000E356E06
:105CE00044BE7DEF2EF0445006E14304D8B07BEF74
:105CF0002EF07DEF2EF08AEF2EF0000E446E000E97
:105D0000436E000E326E000E336E000E346E000EC7
:105D1000356E426A43C549F549A091EF2EF093EFE5
:105D20002EF096EF2EF0348E97EF2EF0349ED89012
:105D30004930356E50EF2DF01200B4C57AF5B5C577
:105D40007BF5A0EC3EF00501E751E811D8A4ABEFDC
:105D50002EF0ADEF2EF0B3EF2EF0000EC36F1F0E3E
:105D6000C26FB7EF2EF0E7C5C2F5E8C5C3F5000E68
:105D7000C56F000EC46F38EF2FF0B4C571F5B5C50F
:105D800072F5CAEC35F071C5C6F572C5C7F50501E7
:105D9000C62906E1C729D8A4D0EF2EF0D2EF2EF005
:105DA000EAEF2EF0E751E811D8A4D9EF2EF0DBEF9F
:105DB0002EF0E4EF2EF0C451C511D8A4E2EF2EF07E
:105DC000E4EF2EF0EAEF2EF0C6C5B4F5C7C5B5F581
:105DD000B4EF2FF0C451C511D8A4F1EF2EF0F3EFBA
:105DE0002EF016EF2FF02B0EC619C711D8B4FBEF0B
:105DF0002EF0FDEF2EF007EF2FF02D0EC619C71174
:105E0000D8A405EF2FF007EF2FF016EF2FF0840E38
:105E1000C425D96E060EC521DA6EC6C5DFF4C44BA3
:105E2000C52B0601514B522B38EF2FF0C6C5B8F5E4
:105E3000D00EB827090EB86520EF2FF022EF2FF013
:105E400007EF2FF0C62908E1C729D8B42AEF2FF0B1
:105E50002CEF2FF053EF2FF0C6C56CF5C7C56DF5CD
:105E6000B4C56EF5B5C56FF568EC3CF053EF2FF097
:105E70000501C251C45DC551800AB86FC351800A83
:105E8000B859D8B046EF2FF048EF2FF053EF2FF06E
:105E9000C55109E11F0EC45DD8A051EF2FF053EF9B
:105EA0002FF0BDEF2EF0840E0501C425D96E060E2D
:105EB000C521DA6EDF6A840E846F060E856FC00E10
:105EC000866F050E876F000E896F0A0E886F000EB1
:105ED0008A6FA7EC18F084C5B8F585C5B9F586C5F5
:105EE000BAF587C5BBF588C5BCF589C5BDF58AC5BA
:105EF000BEF58BC5BFF5B6C5D9F4B7C5DAF4B8C5DC
:105F0000DEF4B9C5DEF4BAC5DEF4BBC5DEF4BCC54B
:105F1000DEF4BDC5DEF4BEC5DEF4BFC5DEF40501AA
:105F2000E951EA11D8A497EF2FF099EF2FF0B0EFD5
:105F30002FF0C451C511D8B4A0EF2FF0A2EF2FF06D
:105F4000B0EF2FF0EF51D8B4A8EF2FF0ABEF2FF058
:105F5000010EACEF2FF0000EB46FB56BB4EF2FF065
:105F6000FF0EB56FFE0EB46F120020C695F521C668
:105F700096F522C697F523C698F585C595F586C58D
:105F800096F587C597F588C598F5810E0501896F47
:105F9000FF0E8A6F95C58BF596C58CF597C58DF567
:105FA00098C58EF5180EDAEF2FF0D8908E338D331A
:105FB0008C338B33E82ED5EF2FF08B518925936FDF
:105FC000000E8A21946F94BFEFEF2FF0945109E1F6
:105FD000170E935DD8A0EFEF2FF0F1EF2FF0FBEF4E
:105FE0002FF085C585F586C586F587C587F588C5F3
:105FF00088F5BFEF30F094BF00EF30F002EF30F0E3
:1060000073EF30F093C589F5FF0E8A6FFF0E8B6F2B
:106010007F0E8C6F000E8D6F896711EF30F019EFD6
:1060200030F08D358D338C338B338A33892F0CEFE1
:1060300030F08AC58FF58BC590F58CC591F58DC56F
:1060400092F505018F519515896F905196158A6FBC
:10605000915197158B6F925198158C6F89518A11B8
:106060008B118C11D8A437EF30F039EF30F03BEFC3
:1060700030F0F1EF2FF095C589F596C58AF597C5F3
:106080008BF598C58CF5200E4BEF30F0D8908C3303
:106090008B338A338933E82E46EF30F089518A11E9
:1060A0008B118C11D8B457EF30F059EF30F061EF0D
:1060B00030F08F519527905196239151972392510B
:1060C00098238F1D896F901D8A6F911D8B6F921D74
:1060D0008C6F895195178A5196178B5197178C5150
:1060E0009817B7EF30F095C589F596C58AF597C52D
:1060F0008BF598C58CF5200E83EF30F0D8908C335B
:106100008B338A338933E82E7EEF30F089518A1140
:106110008B118C11D8A48FEF30F091EF30F09BEF02
:1061200030F0000E956F000E966F000E976F000E08
:10613000986FB7EF30F0D8909535896F96358A6FA4
:1061400097358B6F98358C6F89518A118B118C1113
:10615000D8B4ADEF30F0AFEF30F0B7EF30F0000E65
:10616000956F000E966F800E976FBF0E986F95C556
:1061700085F596C586F597C587F598C588F512000B
:1061800005018BBFC6EF30F0C9EF30F0010ECAEF4A
:1061900030F0000E926FE6BFD0EF30F0D2EF30F06B
:1061A000D3EF30F0ED93E6BFDAEF30F0D8EF30F018
:1061B000E0EF30F0000E8F6F010E8E6FE4EF30F0E5
:1061C000E5C58EF5E6C58FF5E3C590F5E4C591F517
:1061D0009251D8B4EEEF30F0F0EF30F007EF31F03D
:1061E0009007D8A091079251D8A4F9EF30F0FBEFB7
:1061F00030F001EF31F0000E8D6F2B0E8C6F05EF3C
:1062000031F0000E8D6F2D0E8C6F8CC592F5000E47
:10621000946F4F0E936F07014F6B40EF31F0930770
:10622000D8A09407000E9325D96E070E9421DA6E3C
:106230008AC56CF58BC56DF5000E6F6F0A0E6E6F1B
:10624000C4EC3CF06CC572F56DC573F50CEC42F016
:1062500005017251300FDF6E8E07D8A08F079007AF
:10626000D8A091078AC56CF58BC56DF5000E6F6FD0
:106270000A0E6E6F06EC3CF06CC58AF56DC58BF5A9
:10628000050194BF4CEF31F0945108E19305D8A07B
:106290004CEF31F04EEF31F078EF31F08A518B1145
:1062A000D8A455EF31F057EF31F00FEF31F08FBF39
:1062B00064EF31F08F5106E18E05D8B062EF31F016
:1062C00064EF31F00FEF31F091BF6FEF31F091518A
:1062D00008E19005D8A06FEF31F071EF31F078EF61
:1062E00031F0EDB376EF31F078EF31F00FEF31F0C0
:1062F0009251D8B47EEF31F080EF31F08BEF31F076
:106300009307D8A09407000E9325D96E070E942109
:10631000DA6E92C5DFF488C57FF589C580F5000E79
:106320009325816F070E9421826F90C583F591C5E7
:1063300084F514EC3FF01200096E0950D8B4A3EFB5
:1063400031F0A5EF31F0C7EF31F004BEACEF31F022
:10635000AAEF31F0C7EF31F001C505F502C506F52A
:1063600003C507F504C508F5051E061E071E081E11
:10637000052A000E06220722082205C50BF506C5D0
:106380000CF507C50DF508C50EF5CFEF31F001C5C9
:106390000BF502C50CF503C50DF504C50EF501504E
:1063A000021003100410D8A4D8EF31F0DAEF31F066
:1063B000E4EF31F0000E016E000E026E000E036E6F
:1063C000000E046E75EF32F0960E0A6EEEEF31F0AD
:1063D0000A2AD8900E320D320C320B32000E0B14FA
:1063E000056E000E0C14066E000E0D14076EFE0EE8
:1063F0000E14086E0550061007100810D8A403EFFD
:1064000032F005EF32F0E8EF31F013EF32F00A2A04
:10641000010E0B26000E0C220D220E22D8900E32F9
:106420000D320C320B32000E0B14056E000E0C14E4
:10643000066E000E0D14076EFF0E0E14086E05504A
:10644000061007100810D8A428EF32F02AEF32F017
:1064500007EF32F032EF32F00A06D8900B360C36E6
:106460000D360E360DBE37EF32F039EF32F041EF18
:1064700032F0020E0A603FEF32F041EF32F02CEFC3
:1064800032F00AB046EF32F048EF32F049EF32F026
:106490000D9ED8900A320AC505F5066A076A086A91
:1064A00005C508F5076A066A056A05500B1206500D
:1064B0000C1207500D1208500E120950D8B463EF99
:1064C00032F065EF32F06DEF32F004BE6CEF32F077
:1064D0006AEF32F06DEF32F00E8E0BC501F50CC590
:1064E00002F50DC503F50EC504F51200F3EC42F0FC
:1064F00023EC43F0D68E840E05016C6F660E6D6F33
:10650000000E6E6F2BEC43F061EC43F064EC43F053
:106510005C0E05016C6F060E6D6F000E6E6F000E47
:106520006F6F0C0E706F420E716FCD0E726FCC0ECE
:10653000736FCC0E746F3D0E756F660E766F660EC0
:10654000776FE60E786F3F0E796F000E7A6F000E50
:106550007B6F480E7C6F440E7D6F0A0E7E6FD70EE8
:106560007F6F230E806F3C0E816F59EC36F0C09028
:10657000BF0E0501746F060E756F000E776F0B0E60
:10658000766FE3EC42F00EEC43F0E806D8A4CBEFD4
:1065900032F0CDEF32F006EF33F0BF0E05016E6F33
:1065A000060E6F6F000E716F0B0E706FD5EC3AF028
:1065B000BF0E0601A46FBF0EA56F060EA66F77EC87
:1065C00042F0BF0E0601A96F060EAA6FEA0EAB6F6E
:1065D000F20EAC6F050EAD6F5CEC40F00601A90544
:1065E000AA11D8A4F6EF32F0F8EF32F002EF33F050
:1065F000CD0EA46FF2C5A5F6F3C5A6F677EC42F072
:1066000006EF33F0A30EA46F77EC42F0490E0601BB
:10661000A46F59C6A5F65AC6A6F6F2C5A7F6F3C5E5
:10662000A8F655C6A9F656C6AAF668C6ABF669C658
:10663000ACF66AC6ADF66BC6AEF678C6AFF679C6EE
:10664000B0F67AC6B1F67BC6B2F62CC6B3F62DC646
:10665000B4F62EC6B5F62FC6B6F65BC6B7F6B86B5F
:1066600077EC42F0030E0601BE6F080EBD6F770E89
:10667000E82EFED7BD2FFCD7BE2FFAD7B7EF32F0EA
:106680000DEF00F00501EB4BEC2BEC5109E10A0E8C
:10669000EB5DD8A04EEF33F050EF33F0EDEF33F079
:1066A000000EEC6F000EEB6F59C655F65AC656F643
:1066B0005C0E4B6E060E4C6EF2C501F5F3C502F58D
:1066C000000E02BEFF0E036E046E010E9CEC31F054
:1066D00001C54DF502C54EF503C54FF504C550F58E
:1066E00055C601F556C602F5000E02BEFF0E036E3A
:1066F000046E010E9CEC31F001C551F502C552F556
:1067000003C553F504C554F55EEC1BF0000E056E91
:10671000000E066E000E076E000E086E78C609F5B4
:1067200079C60AF57AC60BF57BC60CF5F9EC38F09C
:10673000D8A09DEF33F0A0EF33F0010EA1EF33F0BE
:10674000000E06015B6F78C601F579C602F57AC6C0
:1067500003F57BC604F55DEC42F001C52CF602C5DD
:106760002DF603C52EF604C52FF6000E056E000E9D
:10677000066E480E076E440E086E2CC609F52DC62F
:106780000AF52EC60BF52FC60CF5F9EC38F0D8B08B
:10679000CCEF33F0CEEF33F0D7EF33F0000E06013D
:1067A0002C6F000E2D6F480E2E6F440E2F6F2CC6CF
:1067B0000DF52DC60EF52EC60FF52FC610F50601E8
:1067C0005B51D8A4E6EF33F0E9EF33F0010EEAEFC6
:1067D00033F0000E116EB1EC3FF01200FAC455F523
:1067E000FBC456F5A1AEF7EF33F0F9EF33F004EF49
:1067F00034F0B1AEFEEF33F000EF34F004EF34F0DC
:106800007AEC41F08EEF34F0A2A209EF34F00BEFF6
:1068100034F022EF34F0B2A210EF34F012EF34F083
:1068200022EF34F002D820EF34F00500FA6E0601B2
:10683000D051FD6ED151FE6ED251FF6EFA50120052
:106840008EEF34F0A2A027EF34F029EF34F040EFC0
:1068500034F0B2A02EEF34F030EF34F040EF34F0EB
:1068600002D83EEF34F00500FA6E0601CD51FD6E00
:10687000CE51FE6ECF51FF6EFA5012008EEF34F003
:106880009FA445EF34F047EF34F052EF34F0AFA45B
:106890004CEF34F04EEF34F052EF34F06AEC43F04A
:1068A0008EEF34F0A0A057EF34F059EF34F064EFDE
:1068B00034F0B0A05EEF34F060EF34F064EF34F009
:1068C00068EC43F08EEF34F09EAE69EF34F06BEF7E
:1068D00034F08EEF34F0AEAE70EF34F072EF34F08F
:1068E0008EEF34F0040107A378EF34F07AEF34F040
:1068F0008EEF34F00793CEA480EF34F082EF34F0C3
:1069000087EF34F00601594B5A2B8BEF34F0060118
:106910005907D8A05A07AE9E8EEF34F056C5FBF447
:1069200055C5FAF411005C50020D000EF324D96E27
:10693000060EF420DA6EDE6ADD6A0201B2A7A3EF6A
:1069400034F0A5EF34F0C6EF34F05C50020D000EC9
:10695000F324D96E060EF420DA6E0601DF823F5171
:1069600040114111D8B4B7EF34F0B9EF34F0C6EFAD
:1069700034F002D8C6EF34F00500FA6E3F51FD6ED8
:106980004051FE6E4151FF6EFA5012000201B2A357
:10699000CCEF34F0CEEF34F0EFEF34F05C50020D7A
:1069A000000EF324D96E060EF420DA6E0601DF84A1
:1069B0003C513D113E11D8B4E0EF34F0E2EF34F039
:1069C000EFEF34F002D8EFEF34F00500FA6E3C51EF
:1069D000FD6E3D51FE6E3E51FF6EFA5012000201F7
:1069E000B2ADF5EF34F0F7EF34F018EF35F05C505E
:1069F000020D000EF324D96E060EF420DA6E0601A5
:106A0000DF8039513A113B11D8B409EF35F00BEF63
:106A100035F018EF35F002D818EF35F00500FA6EB2
:106A20003951FD6E3A51FE6E3B51FF6EFA50120025
:106A3000A1C201F55C28070B026E5B500218D8A4B6
:106A400024EF35F026EF35F028EF35F033EF35F051
:106A5000100E5C24D96EDA6A060EDA2201C5DFF464
:106A600002C55CF55A2A12000501E6BF3AEF35F07F
:106A70003CEF35F03DEF35F0ED93E6BF44EF35F0F8
:106A800042EF35F04AEF35F0000E8D6F010E8C6F3E
:106A90004EEF35F0E5C58CF5E6C58DF5E3C58EF511
:106AA000E4C58FF5000E916F4F0E906F07014F6B8D
:106AB00085EF35F09007D8A09107000E9025D96E8C
:106AC000070E9121DA6E8AC56CF58BC56DF5000E47
:106AD0006F6F0A0E6E6F4DEC3FF005016C51300F79
:106AE000DF6E8C07D8A08D078E07D8A08F078AC5C8
:106AF0006CF58BC56DF5000E6F6F0A0E6E6F65EC51
:106B00003EF06CC58AF56DC58BF50501905191116C
:106B1000D8B48DEF35F08FEF35F0B9EF35F08A51FD
:106B20008B11D8A496EF35F098EF35F05AEF35F089
:106B30008DBFA5EF35F08D5106E18C05D8B0A3EFE0
:106B400035F0A5EF35F05AEF35F08FBFB0EF35F0E7
:106B50008F5108E18E05D8A0B0EF35F0B2EF35F0D7
:106B6000B9EF35F0EDB3B7EF35F0B9EF35F05AEFD7
:106B700035F088C57FF589C580F5000E9025816FB9
:106B8000070E9121826F8EC583F58FC584F514ECB5
:106B90003FF01200050171517211D8A4D2EF35F007
:106BA000D4EF35F0F2EF35F0EE51D8A4DAEF35F04E
:106BB000DCEF35F0E4EF35F08AEC42F06EC578F5A5
:106BC0006FC579F554EF36F0EE07300EEE25D96E2D
:106BD000DA6A060EDA22DF50736F7351786F796BC1
:106BE00054EF36F020EE07F07151D9267251DA22B7
:106BF000DE50DE10D8B4FFEF35F001EF36F021EFB4
:106C000036F020EE07F07151D9267251DA22DE06F5
:106C1000000EDD5ADEC473F5DDC474F573517125C1
:106C2000756F74517221766F040E7525D96E000E42
:106C30007621DA6EDF50776F7751786F796B54EF8A
:106C400036F020EE02F07151D9267251DA22DEC4FC
:106C500073F5DDC474F571C5D9F472C5DAF4DEC418
:106C600075F5DDC476F573517525D96E74517621AD
:106C7000DA6EDF50776F7751786F796B78517911D1
:106C8000D8A445EF36F047EF36F04BEF36F0786991
:106C9000796954EF36F020EE02F07151D926725125
:106CA000DA22DE2A000EDD2278C571F579C572F58B
:106CB00012006CC5D9F46DC5DAF46EC5DEF46FC58B
:106CC000DEF470C5DEF471C5DEF4050120EE04F0DB
:106CD0006C51D9266D51DA2272C5DEF473C5DEF42B
:106CE00074C5DEF475C5DEF420EE08F06C51D926CB
:106CF0006D51DA2276C5DEF477C5DEF478C5DEF4B0
:106D000079C5DEF420EE0CF06C51D9266D51DA22F3
:106D1000000EDE6E000EDE6E000EDE6E000EDD6E0C
:106D200020EE10F06C51D9266D51DA22000EDE6E85
:106D3000000EDE6E000EDE6E000EDD6E20EE14F034
:106D40006C51D9266D51DA22000EDE6E000EDE6E19
:106D5000000EDE6E000EDD6E20EE18F06C51D926AE
:106D60006D51DA22000EDE6E000EDE6E000EDE6E5B
:106D7000000EDD6E20EE1CF06C51D9266D51DA222A
:106D8000000EDE6E000EDE6E000EDE6E000EDD6E9C
:106D900020EE20F06C51D9266D51DA227AC5DEF44E
:106DA0007BC5DEF47CC5DEF47DC5DEF420EE24F088
:106DB0006C51D9266D51DA227EC5DEF47FC5DEF432
:106DC00080C5DEF481C5DEF412007AC580F57BC58E
:106DD00081F5050180518111D8A4F1EF36F0F3EF70
:106DE00036F0F9EF36F0DB0E806F8051D8A4260E16
:106DF000816F000E836F000E826F02EF37F0050186
:106E0000824B832B825180257C6F835181217D6F42
:106E10007CC5F6F47DC5F7F4000EF86E250EF76418
:106E200003D00800F55005D0F6C4E9F4F7C4EAF43D
:106E3000EF500009D8A41FEF37F021EF37F0FFEF34
:106E400036F00501E6BF27EF37F029EF37F03CEFCA
:106E500037F08251E55DE651800A7C6F8351800AEC
:106E60007C59D8B036EF37F038EF37F03CEF37F0D9
:106E7000E5C582F5E6C583F582C57EF583C57FF558
:106E800061EF37F080C5F6F481C5F7F4000EF86EB7
:106E9000250EF76403D00800F55005D0F6C4E9F4D8
:106EA000F7C4EAF4EF5005017C6F7C516F6F706B93
:106EB00078C571F579C572F53DEC3BF00501804B65
:106EC000812B7E07D8A07F077E2906E17F29D8A4E1
:106ED0006CEF37F06EEF37F042EF37F0120005013C
:106EE0006E356F35756F7551D8A479EF37F07BEF3C
:106EF00037F085EF37F0000E6C6F000E6D6F000EEF
:106F00006E6F000E6F6FF2EF37F06CC570F56DC5E8
:106F100071F56EC572F56FC573F5200E95EF37F0FC
:106F2000D8907333723371337033E82E90EF37F0AB
:106F30007051746F6E8FFF0E6C17FF0E6D17FF0E82
:106F40006E17000E6F17960E755F75BFACEF37F0BA
:106F5000AAEF37F0C2EF37F07551800A970FD8B01B
:106F6000B4EF37F0B6EF37F0B8EF37F07BEF37F02C
:106F7000D8906F336E336D336C33753FB8EF37F0A5
:106F8000DAEF37F01F0E7565C8EF37F0CAEF37F04C
:106F9000D2EF37F07BEF37F0D8906C376D376E3724
:106FA0006F3775077551D8A4D8EF37F0DAEF37F09F
:106FB000CCEF37F07451D8B4E0EF37F0E2EF37F0B0
:106FC000EAEF37F06F1F6E1F6D1F6C6D000E6D23A3
:106FD0006E236F236CC56CF56DC56DF56EC56EF5D2
:106FE0006FC56FF51200000E050185158D6F000E3F
:106FF00086158E6F800E87158F6F7F0E8815906FA8
:107000008D518E118F119011D8A409EF38F00BEF2C
:1070100038F013EF38F0000E856F000E866F000E0B
:10702000876F000E886F000E89158D6F000E8A1510
:107030008E6F800E8B158F6F7F0E8C15906F8D511C
:107040008E118F119011D8A428EF38F02AEF38F064
:1070500032EF38F0000E896F000E8A6F000E8B6FD2
:10706000000E8C6F88AF37EF38F039EF38F042EF11
:1070700038F0856D861FD8B0862B871FD8B0872B38
:10708000800E88578CAF47EF38F049EF38F052EF59
:1070900038F0896D8A1FD8B08A2B8B1FD8B08B2B04
:1070A000800E8C57000E851B000E861B000E871B62
:1070B000800E881B000E891B000E8A1B000E8B1B86
:1070C000800E8C1B8951855D8A5186598B51875959
:1070D0008C518859D8B06FEF38F071EF38F074EFF9
:1070E00038F0D89075EF38F0D880120003340434AB
:1070F0000A6E0A50D8A47FEF38F081EF38F08BEF9A
:1071000038F0000E016E000E026E000E036E000ECF
:10711000046EF8EF38F001C505F502C506F503C5A4
:1071200007F504C508F5200E9BEF38F0D89008321B
:10713000073206320532E82E96EF38F00550096E18
:10714000038EFF0E0116FF0E0216FF0E0316000E31
:107150000416960E0A5E0ABEB2EF38F0B0EF38F0B1
:10716000C8EF38F00A50800A970FD8B0BAEF38F05D
:10717000BCEF38F0BEEF38F081EF38F0D890043231
:107180000332023201320A3EBEEF38F0E0EF38F04F
:107190001F0E0A64CEEF38F0D0EF38F0D8EF38F099
:1071A00081EF38F0D89001360236033604360A06ED
:1071B0000A50D8A4DEEF38F0E0EF38F0D2EF38F024
:1071C0000950D8B4E6EF38F0E8EF38F0F0EF38F0D7
:1071D000041E031E021E016C000E02220322042262
:1071E00001C501F502C502F503C503F504C504F5A3
:1071F0001200000E05140D6E000E06140E6E800EA9
:1072000007140F6E7F0E0814106E0D500E100F1025
:107210001010D8A40EEF39F010EF39F018EF39F054
:10722000000E056E000E066E000E076E000E086E54
:10723000000E09140D6E000E0A140E6E800E0B1453
:107240000F6E7F0E0C14106E0D500E100F101010DC
:10725000D8A42DEF39F02FEF39F037EF39F0000EC9
:10726000096E000E0A6E000E0B6E000E0C6E08AE5C
:107270003CEF39F03EEF39F047EF39F0056C061E70
:10728000D8B0062A071ED8B0072A800E08560CAEC2
:107290004CEF39F04EEF39F057EF39F0096C0A1E18
:1072A000D8B00A2A0B1ED8B00B2A800E0C56000E3E
:1072B000051A000E061A000E071A800E081A000E94
:1072C000091A000E0A1A000E0B1A800E0C1A095029
:1072D000055C0A5006580B5007580C500858D8B097
:1072E00074EF39F076EF39F079EF39F0D8907AEF22
:1072F00039F0D880120024C676F525C677F526C663
:1073000078F527C679F56CC576F56DC577F56EC548
:1073100078F56FC579F576C570F577C571F578C5DF
:1073200072F579C573F5180E9CEF39F00501D89008
:107330007333723371337033E82E96EF39F0705136
:10734000746F756B74517511D8A4A9EF39F0ABEF58
:1073500039F0CBEF39F0D8907635706F7735716FA3
:107360007835726F7935736F7051711172117311B5
:10737000D8A4BDEF39F0BFEF39F0C5EF39F0000EFA
:107380006D6F020E6C6FFAEF39F0000E6D6F030E29
:107390006C6FFAEF39F074297511D8A4D2EF39F077
:1073A000D4EF39F0F6EF39F076C570F577C571F5A1
:1073B00078C572F579C573F5090ED89070377137B5
:1073C00072377337E82EDDEF39F070517111721199
:1073D0007311D8B4EEEF39F0F1EF39F0010EF2EF9E
:1073E00039F0000E6C6F6D6BFAEF39F0000E6D6FB7
:1073F000040E6C6F120005016E07D8A06F076E298E
:1074000006E16F29D8A407EF3AF009EF3AF014EF3C
:107410003AF0000E6D6F000E6C6F6CEF3AF06C2B53
:107420006D2B6E07D8A06F076CC5F6F4260EF76EAD
:10743000000EF86E0800F5500009D8B422EF3AF0BB
:1074400024EF3AF056EF3AF06DC5F6F4260EF76EDB
:10745000000EF86E0800F5500009D8B432EF3AF08B
:1074600034EF3AF056EF3AF06E516F11D8B43BEF6B
:107470003AF03DEF3AF056EF3AF06CC5F6F4260ECE
:10748000F76E000EF86E0800F5C470F56DC5F6F4E1
:10749000260EF76E000EF86E0800F5507019D8B47D
:1074A00054EF3AF056EF3AF00FEF3AF06CC5F6F4BD
:1074B000260EF76E000EF86E0800F5C470F56DC567
:1074C000F6F4260EF76E000EF86E0800F550705DAB
:1074D0006C6F6D6BD8A06D071200E0C5A8F6000EAA
:1074E0000601526F000E516F51C653F652C654F644
:1074F000E9C5A4F6EAC5A5F6A3EF3AF0000E05012A
:10750000EA6F000EE96FDEC5C8F5DFC5C9F5A80E44
:10751000CA6F060ECB6FE1C5CCF5E2C5CDF507EC21
:1075200029F0C8C5A6F6C9C5A7F60601A7BF9DEFF5
:107530003AF09BEF3AF09FEF3AF0B3EF3AF0A651F2
:107540005327A7515423A8C6F6F4260EF76E000E53
:10755000F86E0800F5500009D8A4B1EF3AF0B3EF87
:107560003AF07EEF3AF0A4C6E9F5A5C6EAF5A629F9
:1075700006E1A729D8A4BFEF3AF0C1EF3AF0D0EF67
:107580003AF053515411D8A4C8EF3AF0CAEF3AF088
:10759000D0EF3AF0A6C6DEF5A7C6DFF5D4EF3AF095
:1075A00053C6DEF554C6DFF51200000E05017A6FF2
:1075B000000E796F500E746FC30E756F000E766FEC
:1075C000000E776F21EF3BF00EEC43F00009D8B4CA
:1075D000ECEF3AF0EEEF3AF021EF3BF027EC42F01F
:1075E0000501786F0A0E7819D8B4F9EF3AF0FBEF7D
:1075F0003AF035EF3BF00D0E7819D8A402EF3BF0CE
:1076000004EF3BF006EF3BF035EF3BF0FF0E70254B
:10761000726FFF0E7121736F7251795D73517A59D8
:10762000D8B015EF3BF017EF3BF021EF3BF079516D
:107630006E25D96E7A516F21DA6E78C5DFF4794BF9
:107640007A2B05017407000E755B765B775B7429F6
:107650000AE1752908E1762906E17729D8A433EFF4
:107660003BF035EF3BF0E4EF3AF079516E25D96EFF
:107670007A516F21DA6EDF6A1200050171517211C1
:10768000D8B445EF3BF047EF3BF050EF3BF0715182
:107690007211D8A44EEF3BF050EF3BF055EF3BF0AA
:1076A0006F51D2EC42F0A2EF3BF020EE09F07151A5
:1076B000D9267251DA22DE50DE10D8B462EF3BF0E8
:1076C00064EF3BF07FEF3BF020EE09F07151D926DB
:1076D0007251DA2210EE02F07151E1267251E2226B
:1076E000DE50E65CE650800A776FDE50800A7759FC
:1076F000D8B07DEF3BF07FEF3BF0A2EF3BF020EE08
:1077000002F07151D9267251DA22DEC473F5DDC45C
:1077100074F571C5D9F472C5DAF4DEC475F5DDC44B
:1077200076F573517525D96E74517621DA6E6FC571
:10773000DFF420EE02F07151D9267251DA22DE2AEE
:10774000000EDD221200000E0501746F000E736F33
:107750006CC5D9F46DC5DAF4DFC4F6F4260EF76E05
:10776000000EF86E0800F5502A0AD8A4BAEF3BF0D4
:10777000BCEF3BF0EBEF3BF06CC5D9F46DC5DAF430
:10778000DF2A6EC5D9F46FC5DAF4DFC470F5020ED6
:10779000DE26DFC471F5000EDD2270C5D9F471C597
:1077A000DAF4DEC473F5DDC474F501EF3CF00A0EC3
:1077B0007303F3C470F5F4C471F57403F3507127C7
:1077C00072517025736F000E7121746F6CC5D9F4FE
:1077D0006DC5DAF4DF2A6CC5D9F46DC5DAF4DFC4FF
:1077E000F6F4260EF76E000EF86E0800F550D00F76
:1077F000726F090E7265FFEF3BF001EF3CF0D7EFBF
:107800003BF073C56CF574C56DF512000501716B25
:107810006FBF0FEF3CF00DEF3CF015EF3CF06E6DDD
:107820006F1FD8B06F2B010E716F6DBF1CEF3CF056
:107830001AEF3CF022EF3CF06C6D6D1FD8B06D2B51
:10784000010E711B000E736F000E726F6E516F117F
:10785000D8B42DEF3CF02FEF3CF057EF3CF0010E89
:10786000706F37EF3CF0D8906E376F37702B6FAF7B
:107870003CEF3CF03EEF3CF033EF3CF0D8907237F9
:1078800073376E516C5D6F516D59D8A04AEF3CF063
:107890004CEF3CF051EF3CF06E516C5F6F516D5B03
:1078A0007281D8906F336E33702F3EEF3CF0715180
:1078B000D8B45DEF3CF05FEF3CF063EF3CF0726DED
:1078C000731FD8B0732B72C56CF573C56DF51200BC
:1078D00005016C2906E16D29D8A471EF3CF073EF26
:1078E0003CF075EF3CF0C3EF3CF06E516F11D8A443
:1078F0007CEF3CF07EEF3CF092EF3CF0030EEE1993
:10790000D8B485EF3CF087EF3CF0C3EF3CF0300E8D
:10791000EE25D96EDA6A060EDA226CC5DFF4EE2B9C
:10792000C3EF3CF020EE07F06E51D9266F51DA22FA
:10793000030EDE18DE10D8B4A0EF3CF0A2EF3CF04E
:10794000C3EF3CF020EE07F06E51D9266F51DA22DA
:10795000DEC470F5DDC471F570516E25726F715122
:107960006F21736F040E7225D96E000E7321DA6ECB
:107970006CC5DFF420EE07F06E51D9266F51DA2284
:10798000DE2A000EDD2212000501716B6DBFCDEF06
:107990003CF0CBEF3CF0D3EF3CF06C6D6D1FD8B0FA
:1079A0006D2B010E716F6FBFDAEF3CF0D8EF3CF03A
:1079B000DEEF3CF06E6D6F1FD8B06F2B6E516F1104
:1079C000D8B4E5EF3CF0E7EF3CF00BEF3DF0010EF3
:1079D000706FEFEF3CF0D8906E376F37702B6FAF52
:1079E000F4EF3CF0F6EF3CF0EBEF3CF06E516C5DE9
:1079F0006F516D59D8A0FFEF3CF001EF3DF005EF5E
:107A00003DF06E516C5F6F516D5BD8906F336E338C
:107A1000702FF6EF3CF07151D8B411EF3DF013EF39
:107A20003DF017EF3DF06C6D6D1FD8B06D2B6CC540
:107A30006CF56DC56DF51200000E05016C15746FC7
:107A4000000E6D15756F800E6E15766F7F0E6F15BB
:107A5000776F7451751176117711D8A432EF3DF01C
:107A600034EF3DF03CEF3DF0000E6C6F000E6D6F9B
:107A7000000E6E6F000E6F6F000E7015746F000EAB
:107A80007115756F800E7215766F7F0E7315776F97
:107A90007451751176117711D8A451EF3DF053EF61
:107AA0003DF05BEF3DF0000E706F000E716F000E49
:107AB000726F000E736F70516C190FE171516D1977
:107AC0000CE172516E1909E173516F19D8B46BEF63
:107AD0003DF06DEF3DF070EF3DF0D89071EF3DF06F
:107AE000D8801200A290260E0601CD6F690ECE6FCF
:107AF000000ECF6FA292A60ED06F830ED16F000E34
:107B0000D26F0201A26BA46BA56BA66BA76BA86BCF
:107B1000A96BAA6BB00EAB6F800EAC6F080EAD6F89
:107B2000A00EAE6F010EAF6F2E0EB06FB16B800E58
:107B3000B26FB36BDC0E05016C6F860E6D6F000EBD
:107B40006E6FC0EC42F0DA0E05016C6F860E6D6F41
:107B5000000E6E6FAEEC42F0D80E05016C6F860E13
:107B60006D6F000E6E6F9CEC42F0000E0601586FB8
:107B7000000E576F0501F16B5D6A080EF06F5C6ACD
:107B80005B6A5A6AA2801200BE6ABF6AC06AC16A92
:107B9000C26AC36A0401026B0A6B126B1A6B226B16
:107BA0002A6BC668F90EC76EF80EC86EC9680F0E4C
:107BB000CA6EFE0ECB6EF90E006FE90E086FFE0E58
:107BC000106F1869070E206FFC0E286F016B096B90
:107BD000116B196B216B296B03690B6913691B69A5
:107BE000070E236F2B6904690C6914691C690F0E59
:107BF000246F2C690201896B886B876B866B290E59
:107C0000726F180E126F190E136F200E296F040178
:107C1000056B066B076B0D6B0E6B0F6B156B166BA5
:107C2000176B256B266B276B120021EE7CF1070E7C
:107C3000DE6AE806FDE205016CA121EF3EF023EFCC
:107C40003EF033EF3EF074517C2775517D23765121
:107C50007E2377517F2378518023795181237A5174
:107C600082237B518323D8907437753776377737E3
:107C7000783779377A377B37D890733372337133EB
:107C800070336F336E336D336C336C516D116E1115
:107C90006F117011711172117311D8A452EF3EF06F
:107CA00054EF3EF01BEF3EF07CC56CF57DC56DF5E5
:107CB0007EC56EF57FC56FF580C570F581C571F520
:107CC00082C572F583C573F51200000E0501726F4F
:107CD000000E716F6E516F11D8B471EF3EF073EFFB
:107CE0003EF09BEF3EF0010E706F7BEF3EF0D890C0
:107CF0006E376F37702B6FAF80EF3EF082EF3EF044
:107D000077EF3EF0D890713772376E516C5D6F51DE
:107D10006D59D8A08EEF3EF090EF3EF095EF3EF01B
:107D20006E516C5F6F516D5B7181D8906F336E33A4
:107D3000702F82EF3EF071C56CF572C56DF51200C3
:107D4000C4EF3EF0200E7D197E11D8B4AAEF3EF0AC
:107D5000ACEF3EF0C4EF3EF07DC57CF5F70E7C271E
:107D6000040E7C65B6EF3EF0B8EF3EF0C4EF3EF097
:107D70007DC56CF57EC56DF57AC56EF57BC56FF575
:107D800068EC3CF0D9EF3EF07AC571F57BC572F531
:107D9000CAEC35F071C57DF572C57EF505017D290A
:107DA00006E17E29D8A4D7EF3EF0D9EF3EF0A2EF4E
:107DB0003EF01200606A020E616E626AE70E636E48
:107DC000030E646E0F0E656E666A676A686A6A6A99
:107DD000F40E6B6E010E6C6EF40E6D6E010E6E6E17
:107DE000B29CB29E67906792A29EA29C000E050173
:107DF0006C6F000E6D6F000E6E6F39EC43F0000E6D
:107E000005016C6F000E6D6F000E6E6F32EC43F06B
:107E1000000E05016C6F000E6D6F000E6E6F40EC72
:107E200043F0800E696E1200050184BF1CEF3FF025
:107E30001AEF3FF020EF3FF0000E846F000E836FCB
:107E4000000E876F000E866F33EF3FF0000E706FED
:107E5000200E6F6F7FC571F580C572F53DEC3BF06C
:107E60000501864B872B8351865D8751800A856F7C
:107E70008451800A8559D8A040EF3FF042EF3FF08F
:107E800026EF3FF081C578F582C579F57FC57AF593
:107E900080C57BF5CEEC40F0120005016E516F11EC
:107EA000D8B455EF3FF057EF3FF07BEF3FF0010EB6
:107EB000706F5FEF3FF0D8906E376F37702B6FAFFA
:107EC00064EF3FF066EF3FF05BEF3FF06E516C5DAB
:107ED0006F516D59D8A06FEF3FF071EF3FF075EF24
:107EE0003FF06E516C5F6F516D5BD8906F336E33A6
:107EF000702F66EF3FF06CC56CF56DC56DF5120027
:107F00000301F39FD96BDA6BDB6BDC6BDF6BE06B30
:107F1000E56BE76BEC6BEE6BEF6BD86BF06BF16BBB
:107F2000F26BF46B180EF56F100EF66FF76BF86BC3
:107F3000070EFA6FF96B000E06014E6F000E4F6FC1
:107F4000000E506F000E4B6F000E4C6F000E4D6F09
:107F50005E6AAF949F94B090A090840E0301F36F7B
:107F600012000DC501F50EC502F50FC503F510C5CC
:107F700004F576EC38F001C50BF502C50CF55CECA8
:107F800043F066EC43F01104D8A4C9EF3FF0CBEF07
:107F90003FF0CFEF3FF0BF92BF84DDEF3FF01150D5
:107FA000D8A4D5EF3FF0D7EF3FF0DBEF3FF0BF8233
:107FB000BF94DDEF3FF0BF92BF94120005016FBF89
:107FC000E4EF3FF0E6EF3FF0F0EF3FF06CC56CF50B
:107FD0006DC56DF56EC56EF56FC56FF509EF40F0B7
:107FE0006CC570F56DC571F56EC572F56FC573F52D
:107FF000701F711F721F731F702B000E712372236D
:10800000732370C56CF571C56DF572C56EF573C5DA
:108010006FF51200DFC5E2F51DEF40F0DDC5CEF5CE
:10802000DEC5CFF5E20E0501D06F050ED16FE0C5BC
:10803000D2F5E1C5D3F5CDEC1DF0E2C5F6F4260E80
:10804000F76E000EF86E0800F5500009D8A42BEF6B
:1080500040F02DEF40F00EEF40F0000E0501DE6F16
:10806000000EDD6F12006EC575F56FC576F56CC537
:1080700073F56DC574F54DEF40F075C5D9F476C54F
:10808000DAF4DF50726F754B762B73C5D9F474C573
:10809000DAF472C5DFF4734B742B05017007D8A0B6
:1080A0007107702906E17129D8A459EF40F05BEF00
:1080B00040F03DEF40F01200AC0E0601B06F060E2E
:1080C000B16FA9C6B2F6AAC6B3F6000EB56F000E20
